{
	"data": {
		"bytecode": {
			"linkReferences": {},
			"object": "60808060405234604d57600260085560016009553360018060a01b0319600d541617600d553360018060a01b0319600a541617600a555f600b555f600c555f600755614ef990816100528239f35b5f80fdfe6101206040526004361015610012575f80fd5b5f3560e01c80630206866414613f465780630695b9c314613f0b5780631535a96e14613e5c57806316002f4a14613e3f57806316830e7614613b7f57806316f2147014613b0357806317fdcc8e14613a885780631ca090981461393a57806320e7c6d41461374e57806326b7aeea1461354457806327cdfaf01461342b57806327dc3fbd146133a957806331a16ae41461337f57806337be380514612e195780633d4602a914612d45578063444a281414612aa25780634f389721146129a2578063571a26a01461292e5780635dedf657146128ba57806362861202146126dc5780637d22c35c146126725780638009d5d7146123895780638498129f146123065780638c639a85146122e957806394fafc58146122cc57806396b5a755146121ef5780639703ef35146120d257806397491d6f14611f8a5780639979ef4514611cd0578063aa0b598814611c5d578063abcac4f414611c3f578063ad33a6f514611bfb578063ada4ef3014611b69578063b06f9c9a14611918578063b9a2de3a14611669578063cba7e03414611111578063cda4beef14610e37578063ce606ee014610e0f578063ce9c70cb14610df2578063cf44b5d514610cda578063dc219adc14610c82578063e0b0481314610a80578063e3f8da5414610a18578063e65459b6146109fb578063f046fc0114610875578063f20e5e3514610746578063f84df8741461065c578063fa2af9da14610634578063fa5d638714610474578063fd1a8fef1461034a5763fe0cb7dc1461024b575f80fd5b34610346576020366003190112610346576004358015158061033a575b610271906145ee565b5f525f60205260405f20805460018060a01b0360018301541691600381015490600481015461032a600583015460ff8160081c1660ff8260101c16906006860154946102e76102c7600260088a01549901614448565b6040519b8c9b8c5260208c015261016060408c01526101608b01906144e8565b9760608a0152608089015260ff8316151560a08901526103068161450c565b60c08801526103148161450c565b60e087015260ff61010087019160181c16614516565b6101208401526101408301520390f35b50600b54811115610268565b5f80fd5b3461034657610358366145bf565b81151580610468575b61036a906145ee565b815f525f60205261038b60018060a01b03600160405f20015416331461462c565b815f525f60205260ff600b60405f20015416158015610447575b6103ae90614683565b8015610402575f828152602081815260409182902060048101849055600501805460ff1916600117905590519182527fdea5c3193c68e6199b356e0ceac7970d0951be96d03378b29dbaf40b6e2f433491a2005b60405162461bcd60e51b815260206004820152601f60248201527f5072696365206d7573742062652067726561746572207468616e207a65726f006044820152606490fd5b505f828152602081905260409020600d01546001600160a01b0316156103a5565b50600b54821115610361565b60203660031901126103465760043580151580610628575b610495906145ee565b805f525f6020526104b660018060a01b03600160405f20015416331461462c565b805f525f60205260405f2060128101906104d18254426146cf565b600382015460ff600584015460101c166104ea8161450c565b60018101809111610614576104fe9161471c565b6103e88102908082046103e814901517156106145763bbf81e009161052961052e926009549061471c565b61471c565b04918234106105cf575f9160139142905501555f8080808460018060a01b03600a54168282156105c6575bf1156105b257803411610594575b60207f65c3c2ca9c0a91fa382799173e8eaba4f2d15dc17f9d7b3194a673f5311ccdaa91604051908152a2005b5f8080806105a285346146cf565b8181156105bd575b3390f1610567575b6040513d5f823e3d90fd5b506108fc6105aa565b506108fc610559565b60405162461bcd60e51b815260206004820152601860248201527f496e73756666696369656e7420746178207061796d656e7400000000000000006044820152606490fd5b634e487b7160e01b5f52601160045260245ffd5b50600b5481111561048c565b34610346575f36600319011261034657600a546040516001600160a01b039091168152602090f35b34610346576020366003190112610346576004358015158061073a575b61068290614c9e565b5f52600160205260405f206040519061069a826142ef565b805482526106aa60018201614448565b90602083019182526106be600282016148a5565b9283604082015260018060a01b036003830154169182606083015261072660ff60056004840154938460808701520154161515928360a082015251945195610718604051978897885260c0602089015260c08801906144e8565b9086820360408801526142bc565b926060850152608084015260a08301520390f35b50600c54811115610679565b346103465760203660031901126103465760043580151580610869575b61076c90614989565b5f52600660205260405f20604051906107848261430a565b8054825260018060a01b036001820154169060208301918252600281015492604081019384526003820154906060810191825260018060a01b03600484015416906080810191825260058401549360a08201948552600760068201549160c0840192835201549460ff86169260e0810193600381101561085557845260089690961c60ff1615156101008701908152955196519751945193519051915192516001600160a01b039889169890949116906003851015610855576108519651151595604051998a998a61453d565b0390f35b634e487b7160e01b5f52602160045260245ffd5b50600754811115610763565b3461034657610883366145bf565b90801515806109ef575b610896906145ee565b805f525f6020526108b760018060a01b03600160405f20015416331461462c565b811515806109e3575b6108c990614c9e565b815f52600160205260ff600560405f200154161561099e57805f52600260205260405f205461095957815f52600160205261090a81600260405f200161486a565b815f526001602052600460405f2001610923815461491b565b9055805f5260026020528160405f20557f1d001cb7826dbf79dd4e0acec5e26016317537f484d7dfb88e017dc2425614b75f80a3005b60405162461bcd60e51b815260206004820152601e60248201527f4c616e6420616c726561647920696e2061206e65696768626f72686f6f6400006044820152606490fd5b60405162461bcd60e51b815260206004820152601a60248201527f4e65696768626f72686f6f64206973206e6f74206163746976650000000000006044820152606490fd5b50600c548211156108c0565b50600b5481111561088d565b34610346575f366003190112610346576020600954604051908152f35b3461034657610a26366145bf565b905f52600460205260405f20805482101561034657608091610a47916145d5565b5060018060a01b038154169060018101549060ff6003600283015492015416916040519384526020840152604083015215156060820152f35b346103465760203660031901126103465760043580151580610c76575b610aa6906145ee565b5f905f5b815f52600460205260405f2054811015610afc57815f52600460205260ff6003610ad78360405f206145d5565b50015416610ae8575b600101610aaa565b91610af460019161491b565b929050610ae0565b50610b068261439c565b610b136040519182614326565b828152610b1f8361439c565b602082019290601f1901368437610b3e610b3885614c6c565b94614c6c565b5f915f5b815f52600460205260405f2054811015610c0757815f52600460205260ff6003610b6f8360405f206145d5565b50015416610b80575b600101610b42565b92610bff600191835f526004602052610b9c8660405f206145d5565b50838060a01b03905416610bb08289614907565b52835f52600460205282610bc78760405f206145d5565b500154610bd4828b614907565b52835f5260046020526002610bec8760405f206145d5565b500154610bf98287614907565b5261491b565b939050610b78565b86858488604051938493606085019060608652518091526080850192905f5b818110610c545750505081610c46918561085195940360208701526142bc565b9083820360408501526142bc565b82516001600160a01b0316855287965060209485019490920191600101610c26565b50600b54811115610a9d565b3461034657604036600319011261034657610c9b6142a6565b6001600160a01b03165f9081526003602052604090208054602435919082101561034657602091610ccb91614596565b90549060031b1c604051908152f35b34610346575f366003190112610346576007545f60015b82811115610d8f5750610d0390614c6c565b5f9160015b81811115610d265760405160208082528190610851908201866142bc565b805f52600660205260ff600760405f200154166003811015610855571580610d77575b610d5c575b610d579061491b565b610d08565b92610d6f8185610bf9610d579487614907565b939050610d4e565b50805f526006602052600660405f2001544210610d49565b805f52600660205260ff600760405f200154166003811015610855571580610dda575b610dc5575b610dc09061491b565b610cf1565b90610dd2610dc09161491b565b919050610db7565b50805f526006602052600660405f2001544210610db2565b34610346575f366003190112610346576020600c54604051908152f35b34610346575f36600319011261034657600d546040516001600160a01b039091168152602090f35b3461034657610e4536614523565b909180151580611105575b610e59906145ee565b805f525f602052610e7a60018060a01b03600160405f20015416331461462c565b805f525f60205260ff600b60405f200154161580156110e4575b610e9d90614683565b821561109157610e1082101580611084575b610eb890614a0e565b805f525f60205260ff600560405f2001541661103f57610ed960075461491b565b9182600755610ee881426148ed565b6007604051610ef68161430a565b84815233602080830191825260408084018a81525f60608601818152608087018281524260a0890190815260c089019a8b5260e089018481526101008a018581529e8552600697889052959093209751885595516001880180546001600160a01b03199081166001600160a01b0393841617909155935160028901559051600380890191909155955160048801805490941691161790915551600585015594519083015592519591019185101561085557602095610ffc7fa9c8dfcda5664a5a124c713e386da27de87432d5b668e79458501eb296389ba79360409361102d9860ff8019845416911617825551151561ff00825491151560081b169061ff001916179055565b845f525f87526005825f2001600160ff19825416179055845f525f8752806004835f200155600754958694426148ed565b825191825287820152a3604051908152f35b60405162461bcd60e51b815260206004820152601860248201527f4c616e6420697320616c726561647920666f722073616c6500000000000000006044820152606490fd5b5062278d00821115610eaf565b60405162461bcd60e51b815260206004820152602560248201527f5374617274207072696365206d7573742062652067726561746572207468616e604482015264207a65726f60d81b6064820152608490fd5b505f818152602081905260409020600d01546001600160a01b031615610e94565b50600b54811115610e50565b34610346576060366003190112610346576004356024356001600160401b038111610346576111449036906004016143b3565b604435906001600160401b038211610346573660238301121561034657816004013561116f8161439c565b9261117d6040519485614326565b8184526024602085019260051b820101903682116103465760248101925b82841061163a57505050508215158061162e575b6111b8906145ee565b825f525f6020526111d960018060a01b03600160405f20015416331461462c565b805160028110159081611622575b50156115dd57805182510361159857825f525f60205260ff600560405f20015416611553575f838152602081905260409020600d01546001600160a01b031661150e575f92835b82518510156112565761124e6001916112478786614907565b51906148ed565b94019361122e565b909350835f525f602052600360405f200154036114c9578290815f525f60205260405f20926112858251614c6c565b600685019490923392600783019290916005909101905f5b8151811015611457576112b1600b5461491b565b80600b556112bd614a92565b6112c633614cfb565b6112cf826148fa565b526112d9816148fa565b508a5460508102908082046050149015171561061457606490835f525f60205260405f20938455600184018a6001600160601b0360a01b82541617905561132d611323868a614907565b5160028601614745565b6113378587614907565b51600385015561136e60ff885460081c16611356600587019182614acc565b805462ff000019168155885460181c60ff1690614b0c565b0460068301556113d460ff8854166113966007850191829060ff801983541691151516179055565b8854815461ff001916600891821c60ff16151590911b61ff001617815560ff895460101c1662ff0000825491151560101b169062ff00001916179055565b426009830155600a820160208251926113ed8484614b7d565b01905f5260205f20905f905b83821061143a575050505090600191601242910155335f52600360205261142660405f20600b549061486a565b600b54611433828a614907565b520161129d565b600160208261144b83945187614745565b019301910190916113f9565b6108518789805f525f60205261146f60405f20614bc4565b6114798133614e14565b60405190602082527f176684a7d4089aa4586eee2827366f12e1399a439726071d23d6c96c1be281e23392806114b260208201876142bc565b0390a36040519182916020835260208301906142bc565b60405162461bcd60e51b815260206004820152601f60248201527f546f74616c2073697a6573206d75737420657175616c206f726967696e616c006044820152606490fd5b60405162461bcd60e51b815260206004820152601860248201527f43616e6e6f742073706c69742072656e746564206c616e6400000000000000006044820152606490fd5b60405162461bcd60e51b815260206004820152601a60248201527f43616e6e6f742073706c6974206c616e6420666f722073616c650000000000006044820152606490fd5b60405162461bcd60e51b815260206004820152601e60248201527f53697a657320616e64206c6f636174696f6e73206d757374206d6174636800006044820152606490fd5b60405162461bcd60e51b815260206004820152601c60248201527f4d7573742073706c697420696e746f20322d31302070617263656c73000000006044820152606490fd5b600a91501115846111e7565b50600b548311156111af565b83356001600160401b0381116103465760209161165e839260243691870101614347565b81520193019261119b565b34610346576020366003190112610346576004358015158061190c575b61168f90614989565b805f52600660205260405f209060078201805460ff81166003811015610855576116b990156149ca565b600684015442106118cf5760ff8160081c1661188a5761ffff191661010117905581545f818152602081905260409020600501805460ff19169055600483018054919390916001600160a01b03161561184b575f80808060038501978854956117c3611734606461172c6008548b61471c565b0480996146cf565b838552602085815260408087206001908101548d54888a52898552838a2090920180546001600160a01b0319166001600160a01b03938416179055878952928890529087208c549396939282169261179d92600a92909201916117979116614cfb565b9061483d565b8a546001600160a01b031686526003602052604086206117be90839061486a565b614e14565b600101546001600160a01b0316828215611842575bf1156105b257600a545f918291829182916001600160a01b0316828215611839575bf1156105b25760207fd2aa34a4fdbbc6dff6a3e56f46e0f3ae2a31d7785ff3487aa5c95c642acea5019160018060a01b039054169354604051908152a3005b506108fc6117fa565b506108fc6117d8565b50505f918252816020528160046040822001557fd2aa34a4fdbbc6dff6a3e56f46e0f3ae2a31d7785ff3487aa5c95c642acea5016020604051848152a3005b60405162461bcd60e51b815260206004820152601960248201527f41756374696f6e20616c72656164792066696e616c697a6564000000000000006044820152606490fd5b60405162461bcd60e51b8152602060048201526015602482015274105d58dd1a5bdb881b9bdd081e595d08195b991959605a1b6044820152606490fd5b50600754811115611686565b60203660031901126103465760043580151580611b5d575b611939906145ee565b805f525f60205260405f2090600b82019160ff83541615611b2157600d8101805461196d906001600160a01b031615614a4d565b600c82015493843410611adc57600183019160018060a01b038354163314611aa0575f8080939288958294600f89018054996119b860646119b06008548d61471c565b04809b6146cf565b85546001600160a01b031916331790955542600e919091018190556119de908b906148ed565b9055805460ff19169055546001600160a01b0316828215611a97575bf1156105b257600a545f918291829182916001600160a01b0316828215611a8e575bf1156105b257823411611a5d575b60405192835260208301527f1b605793181864eece69e25665ad41b233544b2168748fdae00dbf44c9678db960403393a3005b5f808080611a6b87346146cf565b818115611a85575b3390f1611a2a576040513d5f823e3d90fd5b506108fc611a73565b506108fc611a1c565b506108fc6119fa565b60405162461bcd60e51b815260206004820152601460248201527310d85b9b9bdd081c995b9d081bdddb881b185b9960621b6044820152606490fd5b60405162461bcd60e51b815260206004820152601960248201527f496e73756666696369656e742072656e74207061796d656e74000000000000006044820152606490fd5b60405162461bcd60e51b815260206004820152601460248201527313185b99081a5cc81b9bdd08199bdc881c995b9d60621b6044820152606490fd5b50600b54811115611930565b3461034657602036600319011261034657611b826142a6565b611b9760018060a01b03600d54163314614929565b6001600160a01b03168015611bbd576001600160601b0360a01b600a541617600a555f80f35b60405162461bcd60e51b8152602060048201526016602482015275496e76616c69642077616c6c6574206164647265737360501b6044820152606490fd5b3461034657604036600319011261034657611c14614290565b6004355f52600560205260405f209060018060a01b03165f52602052602060405f2054604051908152f35b34610346575f3660031901126103465760206040516301e133808152f35b3461034657602036600319011261034657600435611c8660018060a01b03600d54163314614929565b600a8111611c9357600855005b60405162461bcd60e51b81526020600482015260156024820152744665652063616e6e6f74206578636565642031302560581b6044820152606490fd5b60203660031901126103465760043580151580611f7e575b611cf1906145ee565b3415611f3957805f525f60205260018060a01b03600160405f200154163314611efb575f81815260056020908152604080832033845290915290205480151580611ecc575b611e61575b50805f52600460205260405f2060405190608082018281106001600160401b03821117611e4d57604052338252602082019134835260408101914283526060820190600182528054600160401b811015611e4d57611d9e916001820181556145d5565b939093611e3a57915183546001600160a01b039091166001600160a01b03199091161783559251600183015551600282015590516003909101805460ff191691151560ff169190911790555f8181526004602090815260408083205460058352818420338086529084529382902055513481529192917f0e54eff26401bf69b81b26f60bd85ef47f5d85275c1d268d84f68d6897431c479190a3005b634e487b7160e01b5f525f60045260245ffd5b634e487b7160e01b5f52604160045260245ffd5b815f52600460205260405f205f198201918211610614575f80836003611ea36001611e8e859886986145d5565b500154928885526004602052604085206145d5565b5001805460ff19169055818115611ec3575b3390f1156105b25781611d3b565b506108fc611eb5565b50815f52600460205260405f205f19820182811161061457611ef260039160ff936145d5565b50015416611d36565b60405162461bcd60e51b815260206004820152601660248201527510d85b9b9bdd08189a59081bdb881bdddb881b185b9960521b6044820152606490fd5b60405162461bcd60e51b815260206004820152601d60248201527f426964206d7573742062652067726561746572207468616e207a65726f0000006044820152606490fd5b50600b54811115611ce8565b3461034657602036600319011261034657600435801515806120c6575b611fb0906145ee565b805f525f602052611fd160018060a01b03600160405f20015416331461462c565b5f818152602081905260409020600d810180546001600160a01b03169291831561208c57600f81019081544210612047575f600c9281946001600160601b0360a01b815416905581600e8401555501557f56b5c19db471102362fa03335aa6d41bc46678fd6c0ad439669dd70a553805815f80a3005b60405162461bcd60e51b815260206004820152601760248201527f52656e74616c20706572696f64206e6f7420656e6465640000000000000000006044820152606490fd5b60405162461bcd60e51b815260206004820152601260248201527113185b99081a5cc81b9bdd081c995b9d195960721b6044820152606490fd5b50600b54811115611fa7565b3461034657602036600319011261034657600435801515806121e3575b6120f8906145ee565b5f818152600560209081526040808320338452909152902054801561219e57815f52600460205260405f20905f198101908111610614575f8061213e81949382946145d5565b5060038101600181549261215460ff85166146dc565b01549160ff19169055818115612195575b3390f1156105b25733907f529d3bdff5de00724e674a22c5cc88aeca2e6496bf02e3369a4e43a7171be0525f80a3005b506108fc612165565b60405162461bcd60e51b815260206004820152601860248201527f4e6f206269642066726f6d20796f7572206164647265737300000000000000006044820152606490fd5b50600b548111156120ef565b346103465760203660031901126103465760043561221860018060a01b03600d54163314614929565b801515806122c0575b61222a90614989565b5f52600660205260405f206007810160ff81541660038110156108555761225190156149ca565b805461ffff191661010217905580545f90815260208190526040808220600501805460ff191690558254825281206004908101919091558101546001600160a01b0316908161229c57005b5f808093600382940154908282156122b7575bf1156105b257005b506108fc6122af565b50600754811115612221565b34610346575f366003190112610346576020600b54604051908152f35b34610346575f366003190112610346576020600854604051908152f35b34610346576040366003190112610346576004356024358015158103610346578161237b9215158061237d575b61233c906145ee565b805f525f60205261235d60018060a01b03600160405f20015416331461462c565b5f525f602052601060405f20019060ff801983541691151516179055565b005b50600b54811115612333565b60203660031901126103465760043580151580612666575b6123aa906145ee565b805f525f60205260405f20600581019160ff8354161561262a57600482018054938434106125ee576001840180546001600160a01b0316949091903386146125a9578693601082019260ff84541661252b575b935f949361245a869594868096958196612427606461241f8e6008549061471c565b04809d6146cf565b87546001600160a01b03191633908117909855815460ff191690915591905593600a9061245390614cfb565b910161483d565b60ff1981541690553382526003602052612477876040842061486a565b6124818789614e14565b87828215612522575bf1156105b257600a545f918291829182916001600160a01b0316828215612519575bf1156105b2578234116124e8575b6040519283527f807451718126bb3ea1827b4f2dcd9babf574bca415f9f210235f670d7c6e203060203394a4005b5f8080806124f687346146cf565b818115612510575b3390f16124ba576040513d5f823e3d90fd5b506108fc6124fe565b506108fc6124ac565b506108fc61248a565b335f908152601184016020526040902054949550929390929060ff16156125565791879493926123fd565b60405162461bcd60e51b815260206004820152602560248201527f596f7520617265206e6f742077686974656c697374656420666f722074686973604482015264081b185b9960da1b6064820152608490fd5b60405162461bcd60e51b815260206004820152601960248201527f596f7520616c7265616479206f776e2074686973206c616e64000000000000006044820152606490fd5b60405162461bcd60e51b8152602060048201526014602482015273125b9cdd59999a58da595b9d081c185e5b595b9d60621b6044820152606490fd5b60405162461bcd60e51b81526020600482015260146024820152734c616e64206973206e6f7420666f722073616c6560601b6044820152606490fd5b50600b548111156123a1565b346103465760403660031901126103465760043561268e614290565b90801515806126d0575b6126a1906145ee565b5f525f602052601160405f20019060018060a01b03165f52602052602060ff60405f2054166040519015158152f35b50600b54811115612698565b34610346576040366003190112610346576004356001600160401b0381116103465761270c903690600401614347565b60243561271a600b5461491b565b600b819055612727614a92565b61273033614cfb565b612739826148fa565b52612743816148fa565b505f8281526020819052604090209182556001820180546001600160a01b031916331790556127758460028401614745565b600382018390555f6004830181905560058301805462ffffff1916815561279c9190614b0c565b600a6006830181905560078301805462ffffff191690555f6008840155426009840155815191908301906020906127d38484614b7d565b01905f5260205f205f915b83831061289d578686601087600b810160ff1981541690555f600c820155600d81016001600160601b0360a01b81541690554260128201555f60138201550160ff198154169055335f52600360205261283d60405f20600b549061486a565b600b5490612856604051936080855260808501906144e8565b60208401919091525f6040840152817ff147bdd7a176cb89cc4796f2da2c02a6c13f3a7fbe89cd8f01c0f912f962b200845f606060209701528033940390a3604051908152f35b60016020826128ae83945186614745565b019201920191906127de565b346103465760203660031901126103465760043580151580612922575b6128e0906145ee565b5f525f602052608060405f206006600782015491015460ff6040519281811615158452818160081c161515602085015260101c16151560408301526060820152f35b50600b548111156128d7565b34610346576020366003190112610346576004355f52600660205260405f2080549061085160018060a01b036001830154169160028101549360038201549160018060a01b03600482015416600582015490600760068401549301549460405198899860ff808960081c169816968a61453d565b346103465760203660031901126103465760043580151580612a96575b6129c8906145ee565b5f9081526020819052604090206009810154600a9091018054906129eb8261439c565b916129f96040519384614326565b8083526020830180925f5260205f205f915b838310612a7957505050506040519160408301906040845251809152606083019060608160051b85010192915f905b828210612a4e578580868960208301520390f35b90919293602080612a6b600193605f198a820301865288516144e8565b960192019201909291612a3a565b600160208192612a8885614448565b815201920192019190612a0b565b50600b548111156129bf565b3461034657610100366003190112610346576004356001600160401b03811161034657612ad3903690600401614347565b6044356024356005821015610346576064359160058310156103465760843560068110156103465760a4359081151582036103465760c4359182151583036103465760e435801515810361034657612b2c600b5461491b565b9384600b55612b3a8861450c565b601488028881046014148915171561061457600a810180911161061457612b5f614a92565b94612b6933614cfb565b612b72876148fa565b52612b7c866148fa565b505f8781526020819052604090209687556001870180546001600160a01b03191633179055612bae8b60028901614745565b600387018990555f600488015560058701805460ff1916815590612bd28983614acc565b612bdc8b83614aeb565b612be591614b0c565b60068601556007850192612c0590849060ff801983541691151516179055565b825461ff00191690151560081b61ff0016178255815462ff0000191690151560101b62ff000016179055600882015f9055426009830155600a8201815191612c4d8383614b7d565b602001905f5260205f205f915b838310612d285750505050602094601082600b7ff147bdd7a176cb89cc4796f2da2c02a6c13f3a7fbe89cd8f01c0f912f962b200940160ff1981541690555f600c820155600d81016001600160601b0360a01b81541690554260128201555f60138201550160ff198154169055335f5260038652612cde60405f20600b549061486a565b600b54948593612cf9604051936080855260808501906144e8565b9588840152612d078161450c565b6040830152612d158161450c565b60608201528033940390a3604051908152f35b6001602082612d3983945186614745565b01920192019190612c5a565b3461034657606036600319011261034657600435612d61614290565b906044359182151592838103610346577f6ac489d45eb8bf1a970353adde961baf16a2ab4af3d2a8f0cb488b0cd30af85691612dfa60209285151580612e0d575b612dab906145ee565b855f525f8452612dcb60018060a01b03600160405f20015416331461462c565b855f525f8452601160405f200160018060a01b0384165f52845260405f209060ff801983541691151516179055565b6040519485526001600160a01b031693a3005b50600b54861115612da2565b34610346576040366003190112610346576004356001600160401b03811161034657612e499036906004016143b3565b6024356001600160401b03811161034657612e68903690600401614347565b815160028110159081613373575b5015613336575f918291829182918280805b84518610156130db57612e9b8686614907565b515f525f6020523360018060a01b03600160405f20015416036130a157612ec28686614907565b515f525f60205260ff600560405f2001541661305c57612ee28686614907565b515f908152602081905260409020600d01546001600160a01b031661301757612f27612f4791612f128888614907565b515f525f602052600360405f200154906148ed565b96612f328787614907565b515f525f602052600660405f200154906148ed565b94612f528186614907565b515f525f60205288600860405f20015411612ff6575b612f728186614907565b515f525f60205260ff600760405f20015416612fed575b612f938186614907565b515f525f60205260ff600760405f20015460081c16612fe4575b612fb78186614907565b515f525f60205260ff600760405f20015460101c16612fdb575b6001019495612e88565b60019150612fd1565b60019750612fad565b60019250612f89565b97506130028885614907565b515f525f602052600860405f20015497612f68565b60405162461bcd60e51b815260206004820152601960248201527f43616e6e6f74206d657267652072656e746564206c616e6473000000000000006044820152606490fd5b60405162461bcd60e51b815260206004820152601b60248201527f43616e6e6f74206d65726765206c616e647320666f722073616c6500000000006044820152606490fd5b60405162461bcd60e51b81526020600482015260126024820152714d757374206f776e20616c6c206c616e647360701b6044820152606490fd5b92918891888887519081156133225704600188516005811015613319575b60081115613311575b600b5461310e9061491b565b9788600b5561311b614a92565b9761312533614cfb565b61312e8a6148fa565b52613138896148fa565b505f8a8152602081905260409020998a5560018a0180546001600160a01b0319163317905561316a9060028b01614745565b6003890155613178896148fa565b515f525f60205260405f206005015460081c60ff1690600589019161319d9083614acc565b6131a79082614aeb565b6131b0896148fa565b515f525f60205260405f206005015460181c60ff166131ce91614b0c565b600687015560078601926131ee90849060ff801983541691151516179055565b825461ff00191690151560081b61ff0016178255815462ff0000191690151560101b62ff0000161790556008830155426009830155600a82018151916132348383614b7d565b602001905f5260205f205f915b8383106132f457426012860155855f5b8151811015613294578061326760019284614907565b515f525f60205261327a60405f20614bc4565b61328e6132878285614907565b5133614e14565b01613251565b602082335f52600382526132ae60405f20600b549061486a565b600b5490817ff1186830884d3646a4bd92d122316cc7dfafa84f89c32d04c35020a82d01aa74604051858152806132e93395888301906142bc565b0390a3604051908152f35b600160208261330583945186614745565b01920192019190613241565b506003613102565b600291506130f9565b634e487b7160e01b5f52601260045260245ffd5b60405162461bcd60e51b81526020600482015260156024820152744d757374206d6572676520322d3130206c616e647360581b6044820152606490fd5b600a9150111583612e76565b34610346576020366003190112610346576004355f526002602052602060405f2054604051908152f35b34610346576020366003190112610346576004358015158061341f575b6133cf906145ee565b5f525f60205260a060405f2060ff600b8201541690600c81015490600180851b03600d82015416600f600e8301549201549260405194151585526020850152604084015260608301526080820152f35b50600b548111156133c6565b346103465761343936614523565b919081151580613538575b61344d906145ee565b815f525f60205261346e60018060a01b03600160405f20015416331461462c565b80156134e75762015180831015806134d9575b61348a90614a0e565b5f828152602081905260409020600d01546134ae906001600160a01b031615614a4d565b5f91825260208290526040909120600b8101805460ff19166001179055600c810191909155600f0155005b506301e13380831115613481565b60405162461bcd60e51b8152602060048201526024808201527f52656e74207072696365206d7573742062652067726561746572207468616e206044820152637a65726f60e01b6064820152608490fd5b50600b54821115613444565b60203660031901126103465760043580151580613742575b61356590614989565b805f52600660205260405f2060ff60078201541660038110156108555761358c90156149ca565b600681015442101561370957600281015434106136cc5760038101805491823411156136915760018101546001600160a01b0316331461364c5760040180549092906001600160a01b031680613628575b5050349081905581546001600160a01b031916339081179092556040519081529091907f190a5c21cc0eb4d267fd75d52d8c9f16f57e9e2fba3863695c51cc73236abf6690602090a3005b5f8080938193828215613643575bf1156105b25783806135dd565b506108fc613636565b60405162461bcd60e51b815260206004820152601960248201527f43616e6e6f7420626964206f6e206f776e2061756374696f6e000000000000006044820152606490fd5b60405162461bcd60e51b8152602060048201526013602482015272084d2c840dcdee840d0d2ced040cadcdeeaced606b1b6044820152606490fd5b60405162461bcd60e51b81526020600482015260156024820152744269642062656c6f7720737461727420707269636560581b6044820152606490fd5b60405162461bcd60e51b8152602060048201526011602482015270105d58dd1a5bdb881a185cc8195b991959607a1b6044820152606490fd5b5060075481111561355c565b34610346576020366003190112610346576004355f908152602081905260409020805460018201546001600160a01b031660e0529061378f60028201614448565b61010052600381015460a05260048101549160058201546006830154600784015460088501546009860154600b87015460ff1690600c88015492600160a01b60019003600d8a01541694600e8a015496600f8b01549860108c015460ff169a60128d01549c6013015460805260405160c05260c0515260e05160c0516020015260c0516040016102e0905260c0516102e001610100519061382f916144e8565b9c60a05160c0516060015260c0516080015260ff8116151560c05160a001528060081c60ff1661385e9061450c565b8060081c60ff1660c05160c001528060101c60ff1661387c9061450c565b8060101c60ff1660c05160e0015260c051610100019060181c60ff16906138a291614516565b60c051610120015260ff8116151560c05161014001528060081c60ff16151560c051610160015260101c60ff16151560c051610180015260c0516101a0015260c0516101c00152151560c0516101e0015260c051610200015260c051610220015260c051610240015260c0516102600152151560c051610280015260c0516102a0015260805160c0516102c0015260c051900360c051f35b346103465760203660031901126103465760043580151580613a7c575b613960906145ee565b805f525f60205261398160018060a01b03600160405f20015416331461462c565b805f525f602052600a600860405f2001541015613a3757805f525f602052600860405f20016139b0815461491b565b9055805f525f602052605f600660405f20015410613a15575b805f525f6020527fa1248244890293ccfe9d77aa1483e8b04eaa5ae6636a40ba47f320d716d7f92d60406006815f200154835f525f6020526008825f20015482519182526020820152a2005b805f525f602052600660405f20018054906005820180921161061457556139c9565b60405162461bcd60e51b815260206004820152601760248201527f4c616e642069732066756c6c7920646576656c6f7065640000000000000000006044820152606490fd5b50600b54811115613957565b3461034657602036600319011261034657600435613ab160018060a01b03600d54163314614929565b60058111613abe57600955005b60405162461bcd60e51b815260206004820152601960248201527f54617820726174652063616e6e6f7420657863656564203525000000000000006044820152606490fd5b34610346576020366003190112610346576004355f52600160205260405f208054613b3060018301614448565b9160018060a01b036003820154169060ff600560048301549201541690613b69604051958695865260a0602087015260a08601906144e8565b9260408501526060840152151560808301520390f35b34610346576040366003190112610346576004356001600160401b03811161034657613baf903690600401614347565b6024356001600160401b03811161034657613bce9036906004016143b3565b805115613de9575f5b8151811015613c5f57613bea8183614907565b515f525f6020523360018060a01b03600160405f2001541603613c0f57600101613bd7565b60405162461bcd60e51b815260206004820152602260248201527f4d757374206f776e20616c6c206c616e647320696e206e65696768626f72686f6044820152611bd960f21b6064820152608490fd5b50613c6b600c5461491b565b80600c5581519060405191613c7f836142ef565b8183526020830185815260408401858152613cc460608601923384526080870194855260a0870195600187525f52600160205260405f20965187555160018701614745565b5180519060028601906001600160401b038311611e4d57600160401b8311611e4d576020908254848455808510613dce575b5001905f5260205f205f5b838110613dba5784516003890180546001600160a01b039092166001600160a01b031990921691909117905585516004890155865160058901805460ff191691151560ff1691909117905589895f5b8151811015613d7c57600190600c54613d698285614907565b515f52600260205260405f205501613d50565b602083600c5490817f52d72c8eb8cb30382081a95562527e11a2137d5a887935270cc7f0f0a3cccf76604051858152806132e93395888301906144e8565b600190602084519401938184015501613d01565b613de390845f5285845f20918201910161472f565b8a613cf6565b60405162461bcd60e51b815260206004820152602860248201527f4e65696768626f72686f6f64206d7573742068617665206174206c65617374206044820152671bdb99481b185b9960c21b6064820152608490fd5b34610346575f366003190112610346576020600754604051908152f35b346103465760203660031901126103465760043580151580613eff575b613e82906145ee565b5f525f60205260405f20613e9a6012820154426146cf565b9060ff6005600383015492015460101c16613eb48161450c565b6001810180911161061457613ec89161471c565b906103e88202918083046103e8149015171561061457613ef663bbf81e00916105296020946009549061471c565b04604051908152f35b50600b54811115613e79565b34610346575f36600319011261034657335f526003602052610851613f3260405f206148a5565b6040519182916020835260208301906142bc565b3461034657604036600319011261034657600435613f62614290565b9080151580614284575b613f75906145ee565b805f525f602052613f9660018060a01b03600160405f20015416331461462c565b805f525f60205260ff600b60405f20015416158015614263575b613fb990614683565b805f52600560205260405f2060018060a01b0383165f5260205260405f2054801561421e57815f52600460205260405f20905f19810190811161061457613fff916145d5565b509160038301600181549461401660ff87166146dc565b01549360ff19169055606461402d6008548561471c565b049061403982856146cf565b5f8481526020819052604081206001810180546001600160a01b038681166001600160a01b031983161790925560058301805460ff1916905560048301849055939593169382918291829161409490600a0161179783614cfb565b60018060a01b03169687825260036020526140b2896040842061486a565b6140bc8988614e14565b86828215614215575bf1156105b257600a545f918291829182916001600160a01b031682821561420c575bf1156105b2575f5b835f52600460205260405f20548110156141dd57835f52600460205260ff600361411c8360405f206145d5565b50015416806141b4575b614133575b6001016140ef565b835f526004602052600361414a8260405f206145d5565b500160ff198154169055835f5260046020525f80808061416d85604083206145d5565b5060018060a01b039054168882526004602052600161418f87604085206145d5565b500154908282156141ab575bf161412b576040513d5f823e3d90fd5b506108fc61419b565b50835f526004602052826141cb8260405f206145d5565b50546001600160a01b03161415614126565b50827fe6d56779a392535d3a591e92b65ba36f2ecc424bbf5220d0176a7da29385b504602086604051908152a4005b506108fc6140e7565b506108fc6140c5565b60405162461bcd60e51b815260206004820152601860248201527f4e6f206269642066726f6d2074686973206164647265737300000000000000006044820152606490fd5b505f818152602081905260409020600d01546001600160a01b031615613fb0565b50600b54811115613f6c565b602435906001600160a01b038216820361034657565b600435906001600160a01b038216820361034657565b90602080835192838152019201905f5b8181106142d95750505090565b82518452602093840193909201916001016142cc565b60c081019081106001600160401b03821117611e4d57604052565b61012081019081106001600160401b03821117611e4d57604052565b90601f801991011681019081106001600160401b03821117611e4d57604052565b81601f82011215610346578035906001600160401b038211611e4d576040519261437b601f8401601f191660200185614326565b8284526020838301011161034657815f926020809301838601378301015290565b6001600160401b038111611e4d5760051b60200190565b9080601f830112156103465781356143ca8161439c565b926143d86040519485614326565b81845260208085019260051b82010192831161034657602001905b8282106144005750505090565b81358152602091820191016143f3565b90600182811c9216801561443e575b602083101461442a57565b634e487b7160e01b5f52602260045260245ffd5b91607f169161441f565b9060405191825f82549261445b84614410565b80845293600181169081156144c65750600114614482575b5061448092500383614326565b565b90505f9291925260205f20905f915b8183106144aa575050906020614480928201015f614473565b6020919350806001915483858901015201910190918492614491565b90506020925061448094915060ff191682840152151560051b8201015f614473565b805180835260209291819084018484015e5f828201840152601f01601f1916010190565b6005111561085557565b9060068210156108555752565b606090600319011261034657600435906024359060443590565b9796949290999895939161012089019a895260018060a01b031660208901526040880152606087015260018060a01b0316608086015260a085015260c08401526003821015610855576101009160e08401521515910152565b80548210156145ab575f5260205f2001905f90565b634e487b7160e01b5f52603260045260245ffd5b6040906003190112610346576004359060243590565b80548210156145ab575f5260205f209060021b01905f90565b156145f557565b60405162461bcd60e51b815260206004820152600f60248201526e125b9d985b1a59081b185b99081251608a1b6044820152606490fd5b1561463357565b60405162461bcd60e51b815260206004820152602260248201527f596f7520617265206e6f7420746865206f776e6572206f662074686973206c616044820152611b9960f21b6064820152608490fd5b1561468a57565b60405162461bcd60e51b815260206004820152601860248201527f4c616e642069732063757272656e746c792072656e74656400000000000000006044820152606490fd5b9190820391821161061457565b156146e357565b60405162461bcd60e51b8152602060048201526011602482015270426964206973206e6f742061637469766560781b6044820152606490fd5b8181029291811591840414171561061457565b81811061473a575050565b5f815560010161472f565b91909182516001600160401b038111611e4d576147628254614410565b601f8111614802575b506020601f82116001146147a457819293945f92614799575b50508160011b915f199060031b1c1916179055565b015190505f80614784565b601f19821690835f52805f20915f5b8181106147ea575095836001959697106147d2575b505050811b019055565b01515f1960f88460031b161c191690555f80806147c8565b9192602060018192868b0151815501940192016147b3565b61482d90835f5260205f20601f840160051c81019160208510614833575b601f0160051c019061472f565b5f61476b565b9091508190614820565b8054600160401b811015611e4d5761485a91600182018155614596565b919091611e3a5761448091614745565b90815491600160401b831015611e4d578261488d91600161448095018155614596565b90919082549060031b91821b915f19901b1916179055565b90604051918281549182825260208201905f5260205f20925f5b8181106148d457505061448092500383614326565b84548352600194850194879450602090930192016148bf565b9190820180921161061457565b8051156145ab5760200190565b80518210156145ab5760209160051b010190565b5f1981146106145760010190565b1561493057565b60405162461bcd60e51b815260206004820152602b60248201527f4f6e6c7920636f6e7472616374206f776e65722063616e20706572666f726d2060448201526a3a3434b99030b1ba34b7b760a91b6064820152608490fd5b1561499057565b60405162461bcd60e51b8152602060048201526012602482015271125b9d985b1a5908185d58dd1a5bdb88125160721b6044820152606490fd5b156149d157565b60405162461bcd60e51b815260206004820152601560248201527441756374696f6e206973206e6f742061637469766560581b6044820152606490fd5b15614a1557565b60405162461bcd60e51b815260206004820152601060248201526f24b73b30b634b210323ab930ba34b7b760811b6044820152606490fd5b15614a5457565b60405162461bcd60e51b815260206004820152601660248201527513185b99081a5cc8185b1c9958591e481c995b9d195960521b6044820152606490fd5b60408051909190614aa38382614326565b6001815291601f1901825f5b828110614abb57505050565b806060602080938501015201614aaf565b90614ad68161450c565b61ff0082549160081b169061ff001916179055565b90614af58161450c565b62ff000082549160101b169062ff00001916179055565b9060068110156108555763ff00000082549160181b169063ff0000001916179055565b614b398154614410565b9081614b43575050565b81601f5f9311600114614b54575055565b81835260208320614b7091601f0160051c81019060010161472f565b8082528160208120915555565b90600160401b8111611e4d57815491818155828210614b9b57505050565b5f5260205f2091820191015b818110614bb2575050565b80614bbe600192614b2f565b01614ba7565b5f81555f6001820155614bd960028201614b2f565b5f60038201555f60048201555f60058201555f60068201555f60078201555f60088201555f6009820155600a81018054905f815581614c47575b50506013815f600b8194015582600c82015582600d82015582600e82015582600f8201558260108201558260128201550155565b5f5260205f20908101905b81811015614c135780614c66600192614b2f565b01614c52565b90614c768261439c565b614c836040519182614326565b8281528092614c94601f199161439c565b0190602036910137565b15614ca557565b60405162461bcd60e51b815260206004820152601760248201527f496e76616c6964206e65696768626f72686f6f642049440000000000000000006044820152606490fd5b9081518110156145ab570160200190565b60018060a01b0316604051614d11604082614326565b601081526f181899199a1a9b1b9c1cb0b131b232b360811b602082015260405191614d3d606084614326565b602a83526020830160403682378351156145ab57603090538251600110156145ab57607860218401535f5b60148110614d765750505090565b600c81018082116106145760208110156145ab5782901a906001600160f81b0319614da8600484901c600f1686614cea565b5116918160011b92828404600214831517156106145783600201908160021161061457614dd8905f1a9188614cea565b536001600160f81b031990614df090600f1686614cea565b5116916003018060031161061457614e0d6001935f1a9187614cea565b5301614d68565b6001600160a01b03165f908152600360205260408120905b815480821015614ebd5783614e418385614596565b90549060031b1c14614e565750600101614e2c565b9192505f1982019182116106145761488d614e74614e829385614596565b90549060031b1c9184614596565b80548015614ea9575f190190614e988282614596565b8154905f199060031b1b1916905555565b634e487b7160e01b5f52603160045260245ffd5b5050505056fea26469706673582212207d3cd4a4e324f9438eea8ebcd1ee8bdfb7faafa4c45583471803c7416ba1f15c64736f6c634300081e0033",
			"opcodes": "PUSH1 0x80 DUP1 PUSH1 0x40 MSTORE CALLVALUE PUSH1 0x4D JUMPI PUSH1 0x2 PUSH1 0x8 SSTORE PUSH1 0x1 PUSH1 0x9 SSTORE CALLER PUSH1 0x1 DUP1 PUSH1 0xA0 SHL SUB NOT PUSH1 0xD SLOAD AND OR PUSH1 0xD SSTORE CALLER PUSH1 0x1 DUP1 PUSH1 0xA0 SHL SUB NOT PUSH1 0xA SLOAD AND OR PUSH1 0xA SSTORE PUSH0 PUSH1 0xB SSTORE PUSH0 PUSH1 0xC SSTORE PUSH0 PUSH1 0x7 SSTORE PUSH2 0x4EF9 SWAP1 DUP2 PUSH2 0x52 DUP3 CODECOPY RETURN JUMPDEST PUSH0 DUP1 REVERT INVALID PUSH2 0x120 PUSH1 0x40 MSTORE PUSH1 0x4 CALLDATASIZE LT ISZERO PUSH2 0x12 JUMPI PUSH0 DUP1 REVERT JUMPDEST PUSH0 CALLDATALOAD PUSH1 0xE0 SHR DUP1 PUSH4 0x2068664 EQ PUSH2 0x3F46 JUMPI DUP1 PUSH4 0x695B9C3 EQ PUSH2 0x3F0B JUMPI DUP1 PUSH4 0x1535A96E EQ PUSH2 0x3E5C JUMPI DUP1 PUSH4 0x16002F4A EQ PUSH2 0x3E3F JUMPI DUP1 PUSH4 0x16830E76 EQ PUSH2 0x3B7F JUMPI DUP1 PUSH4 0x16F21470 EQ PUSH2 0x3B03 JUMPI DUP1 PUSH4 0x17FDCC8E EQ PUSH2 0x3A88 JUMPI DUP1 PUSH4 0x1CA09098 EQ PUSH2 0x393A JUMPI DUP1 PUSH4 0x20E7C6D4 EQ PUSH2 0x374E JUMPI DUP1 PUSH4 0x26B7AEEA EQ PUSH2 0x3544 JUMPI DUP1 PUSH4 0x27CDFAF0 EQ PUSH2 0x342B JUMPI DUP1 PUSH4 0x27DC3FBD EQ PUSH2 0x33A9 JUMPI DUP1 PUSH4 0x31A16AE4 EQ PUSH2 0x337F JUMPI DUP1 PUSH4 0x37BE3805 EQ PUSH2 0x2E19 JUMPI DUP1 PUSH4 0x3D4602A9 EQ PUSH2 0x2D45 JUMPI DUP1 PUSH4 0x444A2814 EQ PUSH2 0x2AA2 JUMPI DUP1 PUSH4 0x4F389721 EQ PUSH2 0x29A2 JUMPI DUP1 PUSH4 0x571A26A0 EQ PUSH2 0x292E JUMPI DUP1 PUSH4 0x5DEDF657 EQ PUSH2 0x28BA JUMPI DUP1 PUSH4 0x62861202 EQ PUSH2 0x26DC JUMPI DUP1 PUSH4 0x7D22C35C EQ PUSH2 0x2672 JUMPI DUP1 PUSH4 0x8009D5D7 EQ PUSH2 0x2389 JUMPI DUP1 PUSH4 0x8498129F EQ PUSH2 0x2306 JUMPI DUP1 PUSH4 0x8C639A85 EQ PUSH2 0x22E9 JUMPI DUP1 PUSH4 0x94FAFC58 EQ PUSH2 0x22CC JUMPI DUP1 PUSH4 0x96B5A755 EQ PUSH2 0x21EF JUMPI DUP1 PUSH4 0x9703EF35 EQ PUSH2 0x20D2 JUMPI DUP1 PUSH4 0x97491D6F EQ PUSH2 0x1F8A JUMPI DUP1 PUSH4 0x9979EF45 EQ PUSH2 0x1CD0 JUMPI DUP1 PUSH4 0xAA0B5988 EQ PUSH2 0x1C5D JUMPI DUP1 PUSH4 0xABCAC4F4 EQ PUSH2 0x1C3F JUMPI DUP1 PUSH4 0xAD33A6F5 EQ PUSH2 0x1BFB JUMPI DUP1 PUSH4 0xADA4EF30 EQ PUSH2 0x1B69 JUMPI DUP1 PUSH4 0xB06F9C9A EQ PUSH2 0x1918 JUMPI DUP1 PUSH4 0xB9A2DE3A EQ PUSH2 0x1669 JUMPI DUP1 PUSH4 0xCBA7E034 EQ PUSH2 0x1111 JUMPI DUP1 PUSH4 0xCDA4BEEF EQ PUSH2 0xE37 JUMPI DUP1 PUSH4 0xCE606EE0 EQ PUSH2 0xE0F JUMPI DUP1 PUSH4 0xCE9C70CB EQ PUSH2 0xDF2 JUMPI DUP1 PUSH4 0xCF44B5D5 EQ PUSH2 0xCDA JUMPI DUP1 PUSH4 0xDC219ADC EQ PUSH2 0xC82 JUMPI DUP1 PUSH4 0xE0B04813 EQ PUSH2 0xA80 JUMPI DUP1 PUSH4 0xE3F8DA54 EQ PUSH2 0xA18 JUMPI DUP1 PUSH4 0xE65459B6 EQ PUSH2 0x9FB JUMPI DUP1 PUSH4 0xF046FC01 EQ PUSH2 0x875 JUMPI DUP1 PUSH4 0xF20E5E35 EQ PUSH2 0x746 JUMPI DUP1 PUSH4 0xF84DF874 EQ PUSH2 0x65C JUMPI DUP1 PUSH4 0xFA2AF9DA EQ PUSH2 0x634 JUMPI DUP1 PUSH4 0xFA5D6387 EQ PUSH2 0x474 JUMPI DUP1 PUSH4 0xFD1A8FEF EQ PUSH2 0x34A JUMPI PUSH4 0xFE0CB7DC EQ PUSH2 0x24B JUMPI PUSH0 DUP1 REVERT JUMPDEST CALLVALUE PUSH2 0x346 JUMPI PUSH1 0x20 CALLDATASIZE PUSH1 0x3 NOT ADD SLT PUSH2 0x346 JUMPI PUSH1 0x4 CALLDATALOAD DUP1 ISZERO ISZERO DUP1 PUSH2 0x33A JUMPI JUMPDEST PUSH2 0x271 SWAP1 PUSH2 0x45EE JUMP JUMPDEST PUSH0 MSTORE PUSH0 PUSH1 0x20 MSTORE PUSH1 0x40 PUSH0 KECCAK256 DUP1 SLOAD PUSH1 0x1 DUP1 PUSH1 0xA0 SHL SUB PUSH1 0x1 DUP4 ADD SLOAD AND SWAP2 PUSH1 0x3 DUP2 ADD SLOAD SWAP1 PUSH1 0x4 DUP2 ADD SLOAD PUSH2 0x32A PUSH1 0x5 DUP4 ADD SLOAD PUSH1 0xFF DUP2 PUSH1 0x8 SHR AND PUSH1 0xFF DUP3 PUSH1 0x10 SHR AND SWAP1 PUSH1 0x6 DUP7 ADD SLOAD SWAP5 PUSH2 0x2E7 PUSH2 0x2C7 PUSH1 0x2 PUSH1 0x8 DUP11 ADD SLOAD SWAP10 ADD PUSH2 0x4448 JUMP JUMPDEST PUSH1 0x40 MLOAD SWAP12 DUP13 SWAP12 DUP13 MSTORE PUSH1 0x20 DUP13 ADD MSTORE PUSH2 0x160 PUSH1 0x40 DUP13 ADD MSTORE PUSH2 0x160 DUP12 ADD SWAP1 PUSH2 0x44E8 JUMP JUMPDEST SWAP8 PUSH1 0x60 DUP11 ADD MSTORE PUSH1 0x80 DUP10 ADD MSTORE PUSH1 0xFF DUP4 AND ISZERO ISZERO PUSH1 0xA0 DUP10 ADD MSTORE PUSH2 0x306 DUP2 PUSH2 0x450C JUMP JUMPDEST PUSH1 0xC0 DUP9 ADD MSTORE PUSH2 0x314 DUP2 PUSH2 0x450C JUMP JUMPDEST PUSH1 0xE0 DUP8 ADD MSTORE PUSH1 0xFF PUSH2 0x100 DUP8 ADD SWAP2 PUSH1 0x18 SHR AND PUSH2 0x4516 JUMP JUMPDEST PUSH2 0x120 DUP5 ADD MSTORE PUSH2 0x140 DUP4 ADD MSTORE SUB SWAP1 RETURN JUMPDEST POP PUSH1 0xB SLOAD DUP2 GT ISZERO PUSH2 0x268 JUMP JUMPDEST PUSH0 DUP1 REVERT JUMPDEST CALLVALUE PUSH2 0x346 JUMPI PUSH2 0x358 CALLDATASIZE PUSH2 0x45BF JUMP JUMPDEST DUP2 ISZERO ISZERO DUP1 PUSH2 0x468 JUMPI JUMPDEST PUSH2 0x36A SWAP1 PUSH2 0x45EE JUMP JUMPDEST DUP2 PUSH0 MSTORE PUSH0 PUSH1 0x20 MSTORE PUSH2 0x38B PUSH1 0x1 DUP1 PUSH1 0xA0 SHL SUB PUSH1 0x1 PUSH1 0x40 PUSH0 KECCAK256 ADD SLOAD AND CALLER EQ PUSH2 0x462C JUMP JUMPDEST DUP2 PUSH0 MSTORE PUSH0 PUSH1 0x20 MSTORE PUSH1 0xFF PUSH1 0xB PUSH1 0x40 PUSH0 KECCAK256 ADD SLOAD AND ISZERO DUP1 ISZERO PUSH2 0x447 JUMPI JUMPDEST PUSH2 0x3AE SWAP1 PUSH2 0x4683 JUMP JUMPDEST DUP1 ISZERO PUSH2 0x402 JUMPI PUSH0 DUP3 DUP2 MSTORE PUSH1 0x20 DUP2 DUP2 MSTORE PUSH1 0x40 SWAP2 DUP3 SWAP1 KECCAK256 PUSH1 0x4 DUP2 ADD DUP5 SWAP1 SSTORE PUSH1 0x5 ADD DUP1 SLOAD PUSH1 0xFF NOT AND PUSH1 0x1 OR SWAP1 SSTORE SWAP1 MLOAD SWAP2 DUP3 MSTORE PUSH32 0xDEA5C3193C68E6199B356E0CEAC7970D0951BE96D03378B29DBAF40B6E2F4334 SWAP2 LOG2 STOP JUMPDEST PUSH1 0x40 MLOAD PUSH3 0x461BCD PUSH1 0xE5 SHL DUP2 MSTORE PUSH1 0x20 PUSH1 0x4 DUP3 ADD MSTORE PUSH1 0x1F PUSH1 0x24 DUP3 ADD MSTORE PUSH32 0x5072696365206D7573742062652067726561746572207468616E207A65726F00 PUSH1 0x44 DUP3 ADD MSTORE PUSH1 0x64 SWAP1 REVERT JUMPDEST POP PUSH0 DUP3 DUP2 MSTORE PUSH1 0x20 DUP2 SWAP1 MSTORE PUSH1 0x40 SWAP1 KECCAK256 PUSH1 0xD ADD SLOAD PUSH1 0x1 PUSH1 0x1 PUSH1 0xA0 SHL SUB AND ISZERO PUSH2 0x3A5 JUMP JUMPDEST POP PUSH1 0xB SLOAD DUP3 GT ISZERO PUSH2 0x361 JUMP JUMPDEST PUSH1 0x20 CALLDATASIZE PUSH1 0x3 NOT ADD SLT PUSH2 0x346 JUMPI PUSH1 0x4 CALLDATALOAD DUP1 ISZERO ISZERO DUP1 PUSH2 0x628 JUMPI JUMPDEST PUSH2 0x495 SWAP1 PUSH2 0x45EE JUMP JUMPDEST DUP1 PUSH0 MSTORE PUSH0 PUSH1 0x20 MSTORE PUSH2 0x4B6 PUSH1 0x1 DUP1 PUSH1 0xA0 SHL SUB PUSH1 0x1 PUSH1 0x40 PUSH0 KECCAK256 ADD SLOAD AND CALLER EQ PUSH2 0x462C JUMP JUMPDEST DUP1 PUSH0 MSTORE PUSH0 PUSH1 0x20 MSTORE PUSH1 0x40 PUSH0 KECCAK256 PUSH1 0x12 DUP2 ADD SWAP1 PUSH2 0x4D1 DUP3 SLOAD TIMESTAMP PUSH2 0x46CF JUMP JUMPDEST PUSH1 0x3 DUP3 ADD SLOAD PUSH1 0xFF PUSH1 0x5 DUP5 ADD SLOAD PUSH1 0x10 SHR AND PUSH2 0x4EA DUP2 PUSH2 0x450C JUMP JUMPDEST PUSH1 0x1 DUP2 ADD DUP1 SWAP2 GT PUSH2 0x614 JUMPI PUSH2 0x4FE SWAP2 PUSH2 0x471C JUMP JUMPDEST PUSH2 0x3E8 DUP2 MUL SWAP1 DUP1 DUP3 DIV PUSH2 0x3E8 EQ SWAP1 ISZERO OR ISZERO PUSH2 0x614 JUMPI PUSH4 0xBBF81E00 SWAP2 PUSH2 0x529 PUSH2 0x52E SWAP3 PUSH1 0x9 SLOAD SWAP1 PUSH2 0x471C JUMP JUMPDEST PUSH2 0x471C JUMP JUMPDEST DIV SWAP2 DUP3 CALLVALUE LT PUSH2 0x5CF JUMPI PUSH0 SWAP2 PUSH1 0x13 SWAP2 TIMESTAMP SWAP1 SSTORE ADD SSTORE PUSH0 DUP1 DUP1 DUP1 DUP5 PUSH1 0x1 DUP1 PUSH1 0xA0 SHL SUB PUSH1 0xA SLOAD AND DUP3 DUP3 ISZERO PUSH2 0x5C6 JUMPI JUMPDEST CALL ISZERO PUSH2 0x5B2 JUMPI DUP1 CALLVALUE GT PUSH2 0x594 JUMPI JUMPDEST PUSH1 0x20 PUSH32 0x65C3C2CA9C0A91FA382799173E8EABA4F2D15DC17F9D7B3194A673F5311CCDAA SWAP2 PUSH1 0x40 MLOAD SWAP1 DUP2 MSTORE LOG2 STOP JUMPDEST PUSH0 DUP1 DUP1 DUP1 PUSH2 0x5A2 DUP6 CALLVALUE PUSH2 0x46CF JUMP JUMPDEST DUP2 DUP2 ISZERO PUSH2 0x5BD JUMPI JUMPDEST CALLER SWAP1 CALL PUSH2 0x567 JUMPI JUMPDEST PUSH1 0x40 MLOAD RETURNDATASIZE PUSH0 DUP3 RETURNDATACOPY RETURNDATASIZE SWAP1 REVERT JUMPDEST POP PUSH2 0x8FC PUSH2 0x5AA JUMP JUMPDEST POP PUSH2 0x8FC PUSH2 0x559 JUMP JUMPDEST PUSH1 0x40 MLOAD PUSH3 0x461BCD PUSH1 0xE5 SHL DUP2 MSTORE PUSH1 0x20 PUSH1 0x4 DUP3 ADD MSTORE PUSH1 0x18 PUSH1 0x24 DUP3 ADD MSTORE PUSH32 0x496E73756666696369656E7420746178207061796D656E740000000000000000 PUSH1 0x44 DUP3 ADD MSTORE PUSH1 0x64 SWAP1 REVERT JUMPDEST PUSH4 0x4E487B71 PUSH1 0xE0 SHL PUSH0 MSTORE PUSH1 0x11 PUSH1 0x4 MSTORE PUSH1 0x24 PUSH0 REVERT JUMPDEST POP PUSH1 0xB SLOAD DUP2 GT ISZERO PUSH2 0x48C JUMP JUMPDEST CALLVALUE PUSH2 0x346 JUMPI PUSH0 CALLDATASIZE PUSH1 0x3 NOT ADD SLT PUSH2 0x346 JUMPI PUSH1 0xA SLOAD PUSH1 0x40 MLOAD PUSH1 0x1 PUSH1 0x1 PUSH1 0xA0 SHL SUB SWAP1 SWAP2 AND DUP2 MSTORE PUSH1 0x20 SWAP1 RETURN JUMPDEST CALLVALUE PUSH2 0x346 JUMPI PUSH1 0x20 CALLDATASIZE PUSH1 0x3 NOT ADD SLT PUSH2 0x346 JUMPI PUSH1 0x4 CALLDATALOAD DUP1 ISZERO ISZERO DUP1 PUSH2 0x73A JUMPI JUMPDEST PUSH2 0x682 SWAP1 PUSH2 0x4C9E JUMP JUMPDEST PUSH0 MSTORE PUSH1 0x1 PUSH1 0x20 MSTORE PUSH1 0x40 PUSH0 KECCAK256 PUSH1 0x40 MLOAD SWAP1 PUSH2 0x69A DUP3 PUSH2 0x42EF JUMP JUMPDEST DUP1 SLOAD DUP3 MSTORE PUSH2 0x6AA PUSH1 0x1 DUP3 ADD PUSH2 0x4448 JUMP JUMPDEST SWAP1 PUSH1 0x20 DUP4 ADD SWAP2 DUP3 MSTORE PUSH2 0x6BE PUSH1 0x2 DUP3 ADD PUSH2 0x48A5 JUMP JUMPDEST SWAP3 DUP4 PUSH1 0x40 DUP3 ADD MSTORE PUSH1 0x1 DUP1 PUSH1 0xA0 SHL SUB PUSH1 0x3 DUP4 ADD SLOAD AND SWAP2 DUP3 PUSH1 0x60 DUP4 ADD MSTORE PUSH2 0x726 PUSH1 0xFF PUSH1 0x5 PUSH1 0x4 DUP5 ADD SLOAD SWAP4 DUP5 PUSH1 0x80 DUP8 ADD MSTORE ADD SLOAD AND ISZERO ISZERO SWAP3 DUP4 PUSH1 0xA0 DUP3 ADD MSTORE MLOAD SWAP5 MLOAD SWAP6 PUSH2 0x718 PUSH1 0x40 MLOAD SWAP8 DUP9 SWAP8 DUP9 MSTORE PUSH1 0xC0 PUSH1 0x20 DUP10 ADD MSTORE PUSH1 0xC0 DUP9 ADD SWAP1 PUSH2 0x44E8 JUMP JUMPDEST SWAP1 DUP7 DUP3 SUB PUSH1 0x40 DUP9 ADD MSTORE PUSH2 0x42BC JUMP JUMPDEST SWAP3 PUSH1 0x60 DUP6 ADD MSTORE PUSH1 0x80 DUP5 ADD MSTORE PUSH1 0xA0 DUP4 ADD MSTORE SUB SWAP1 RETURN JUMPDEST POP PUSH1 0xC SLOAD DUP2 GT ISZERO PUSH2 0x679 JUMP JUMPDEST CALLVALUE PUSH2 0x346 JUMPI PUSH1 0x20 CALLDATASIZE PUSH1 0x3 NOT ADD SLT PUSH2 0x346 JUMPI PUSH1 0x4 CALLDATALOAD DUP1 ISZERO ISZERO DUP1 PUSH2 0x869 JUMPI JUMPDEST PUSH2 0x76C SWAP1 PUSH2 0x4989 JUMP JUMPDEST PUSH0 MSTORE PUSH1 0x6 PUSH1 0x20 MSTORE PUSH1 0x40 PUSH0 KECCAK256 PUSH1 0x40 MLOAD SWAP1 PUSH2 0x784 DUP3 PUSH2 0x430A JUMP JUMPDEST DUP1 SLOAD DUP3 MSTORE PUSH1 0x1 DUP1 PUSH1 0xA0 SHL SUB PUSH1 0x1 DUP3 ADD SLOAD AND SWAP1 PUSH1 0x20 DUP4 ADD SWAP2 DUP3 MSTORE PUSH1 0x2 DUP2 ADD SLOAD SWAP3 PUSH1 0x40 DUP2 ADD SWAP4 DUP5 MSTORE PUSH1 0x3 DUP3 ADD SLOAD SWAP1 PUSH1 0x60 DUP2 ADD SWAP2 DUP3 MSTORE PUSH1 0x1 DUP1 PUSH1 0xA0 SHL SUB PUSH1 0x4 DUP5 ADD SLOAD AND SWAP1 PUSH1 0x80 DUP2 ADD SWAP2 DUP3 MSTORE PUSH1 0x5 DUP5 ADD SLOAD SWAP4 PUSH1 0xA0 DUP3 ADD SWAP5 DUP6 MSTORE PUSH1 0x7 PUSH1 0x6 DUP3 ADD SLOAD SWAP2 PUSH1 0xC0 DUP5 ADD SWAP3 DUP4 MSTORE ADD SLOAD SWAP5 PUSH1 0xFF DUP7 AND SWAP3 PUSH1 0xE0 DUP2 ADD SWAP4 PUSH1 0x3 DUP2 LT ISZERO PUSH2 0x855 JUMPI DUP5 MSTORE PUSH1 0x8 SWAP7 SWAP1 SWAP7 SHR PUSH1 0xFF AND ISZERO ISZERO PUSH2 0x100 DUP8 ADD SWAP1 DUP2 MSTORE SWAP6 MLOAD SWAP7 MLOAD SWAP8 MLOAD SWAP5 MLOAD SWAP4 MLOAD SWAP1 MLOAD SWAP2 MLOAD SWAP3 MLOAD PUSH1 0x1 PUSH1 0x1 PUSH1 0xA0 SHL SUB SWAP9 DUP10 AND SWAP9 SWAP1 SWAP5 SWAP2 AND SWAP1 PUSH1 0x3 DUP6 LT ISZERO PUSH2 0x855 JUMPI PUSH2 0x851 SWAP7 MLOAD ISZERO ISZERO SWAP6 PUSH1 0x40 MLOAD SWAP10 DUP11 SWAP10 DUP11 PUSH2 0x453D JUMP JUMPDEST SUB SWAP1 RETURN JUMPDEST PUSH4 0x4E487B71 PUSH1 0xE0 SHL PUSH0 MSTORE PUSH1 0x21 PUSH1 0x4 MSTORE PUSH1 0x24 PUSH0 REVERT JUMPDEST POP PUSH1 0x7 SLOAD DUP2 GT ISZERO PUSH2 0x763 JUMP JUMPDEST CALLVALUE PUSH2 0x346 JUMPI PUSH2 0x883 CALLDATASIZE PUSH2 0x45BF JUMP JUMPDEST SWAP1 DUP1 ISZERO ISZERO DUP1 PUSH2 0x9EF JUMPI JUMPDEST PUSH2 0x896 SWAP1 PUSH2 0x45EE JUMP JUMPDEST DUP1 PUSH0 MSTORE PUSH0 PUSH1 0x20 MSTORE PUSH2 0x8B7 PUSH1 0x1 DUP1 PUSH1 0xA0 SHL SUB PUSH1 0x1 PUSH1 0x40 PUSH0 KECCAK256 ADD SLOAD AND CALLER EQ PUSH2 0x462C JUMP JUMPDEST DUP2 ISZERO ISZERO DUP1 PUSH2 0x9E3 JUMPI JUMPDEST PUSH2 0x8C9 SWAP1 PUSH2 0x4C9E JUMP JUMPDEST DUP2 PUSH0 MSTORE PUSH1 0x1 PUSH1 0x20 MSTORE PUSH1 0xFF PUSH1 0x5 PUSH1 0x40 PUSH0 KECCAK256 ADD SLOAD AND ISZERO PUSH2 0x99E JUMPI DUP1 PUSH0 MSTORE PUSH1 0x2 PUSH1 0x20 MSTORE PUSH1 0x40 PUSH0 KECCAK256 SLOAD PUSH2 0x959 JUMPI DUP2 PUSH0 MSTORE PUSH1 0x1 PUSH1 0x20 MSTORE PUSH2 0x90A DUP2 PUSH1 0x2 PUSH1 0x40 PUSH0 KECCAK256 ADD PUSH2 0x486A JUMP JUMPDEST DUP2 PUSH0 MSTORE PUSH1 0x1 PUSH1 0x20 MSTORE PUSH1 0x4 PUSH1 0x40 PUSH0 KECCAK256 ADD PUSH2 0x923 DUP2 SLOAD PUSH2 0x491B JUMP JUMPDEST SWAP1 SSTORE DUP1 PUSH0 MSTORE PUSH1 0x2 PUSH1 0x20 MSTORE DUP2 PUSH1 0x40 PUSH0 KECCAK256 SSTORE PUSH32 0x1D001CB7826DBF79DD4E0ACEC5E26016317537F484D7DFB88E017DC2425614B7 PUSH0 DUP1 LOG3 STOP JUMPDEST PUSH1 0x40 MLOAD PUSH3 0x461BCD PUSH1 0xE5 SHL DUP2 MSTORE PUSH1 0x20 PUSH1 0x4 DUP3 ADD MSTORE PUSH1 0x1E PUSH1 0x24 DUP3 ADD MSTORE PUSH32 0x4C616E6420616C726561647920696E2061206E65696768626F72686F6F640000 PUSH1 0x44 DUP3 ADD MSTORE PUSH1 0x64 SWAP1 REVERT JUMPDEST PUSH1 0x40 MLOAD PUSH3 0x461BCD PUSH1 0xE5 SHL DUP2 MSTORE PUSH1 0x20 PUSH1 0x4 DUP3 ADD MSTORE PUSH1 0x1A PUSH1 0x24 DUP3 ADD MSTORE PUSH32 0x4E65696768626F72686F6F64206973206E6F7420616374697665000000000000 PUSH1 0x44 DUP3 ADD MSTORE PUSH1 0x64 SWAP1 REVERT JUMPDEST POP PUSH1 0xC SLOAD DUP3 GT ISZERO PUSH2 0x8C0 JUMP JUMPDEST POP PUSH1 0xB SLOAD DUP2 GT ISZERO PUSH2 0x88D JUMP JUMPDEST CALLVALUE PUSH2 0x346 JUMPI PUSH0 CALLDATASIZE PUSH1 0x3 NOT ADD SLT PUSH2 0x346 JUMPI PUSH1 0x20 PUSH1 0x9 SLOAD PUSH1 0x40 MLOAD SWAP1 DUP2 MSTORE RETURN JUMPDEST CALLVALUE PUSH2 0x346 JUMPI PUSH2 0xA26 CALLDATASIZE PUSH2 0x45BF JUMP JUMPDEST SWAP1 PUSH0 MSTORE PUSH1 0x4 PUSH1 0x20 MSTORE PUSH1 0x40 PUSH0 KECCAK256 DUP1 SLOAD DUP3 LT ISZERO PUSH2 0x346 JUMPI PUSH1 0x80 SWAP2 PUSH2 0xA47 SWAP2 PUSH2 0x45D5 JUMP JUMPDEST POP PUSH1 0x1 DUP1 PUSH1 0xA0 SHL SUB DUP2 SLOAD AND SWAP1 PUSH1 0x1 DUP2 ADD SLOAD SWAP1 PUSH1 0xFF PUSH1 0x3 PUSH1 0x2 DUP4 ADD SLOAD SWAP3 ADD SLOAD AND SWAP2 PUSH1 0x40 MLOAD SWAP4 DUP5 MSTORE PUSH1 0x20 DUP5 ADD MSTORE PUSH1 0x40 DUP4 ADD MSTORE ISZERO ISZERO PUSH1 0x60 DUP3 ADD MSTORE RETURN JUMPDEST CALLVALUE PUSH2 0x346 JUMPI PUSH1 0x20 CALLDATASIZE PUSH1 0x3 NOT ADD SLT PUSH2 0x346 JUMPI PUSH1 0x4 CALLDATALOAD DUP1 ISZERO ISZERO DUP1 PUSH2 0xC76 JUMPI JUMPDEST PUSH2 0xAA6 SWAP1 PUSH2 0x45EE JUMP JUMPDEST PUSH0 SWAP1 PUSH0 JUMPDEST DUP2 PUSH0 MSTORE PUSH1 0x4 PUSH1 0x20 MSTORE PUSH1 0x40 PUSH0 KECCAK256 SLOAD DUP2 LT ISZERO PUSH2 0xAFC JUMPI DUP2 PUSH0 MSTORE PUSH1 0x4 PUSH1 0x20 MSTORE PUSH1 0xFF PUSH1 0x3 PUSH2 0xAD7 DUP4 PUSH1 0x40 PUSH0 KECCAK256 PUSH2 0x45D5 JUMP JUMPDEST POP ADD SLOAD AND PUSH2 0xAE8 JUMPI JUMPDEST PUSH1 0x1 ADD PUSH2 0xAAA JUMP JUMPDEST SWAP2 PUSH2 0xAF4 PUSH1 0x1 SWAP2 PUSH2 0x491B JUMP JUMPDEST SWAP3 SWAP1 POP PUSH2 0xAE0 JUMP JUMPDEST POP PUSH2 0xB06 DUP3 PUSH2 0x439C JUMP JUMPDEST PUSH2 0xB13 PUSH1 0x40 MLOAD SWAP2 DUP3 PUSH2 0x4326 JUMP JUMPDEST DUP3 DUP2 MSTORE PUSH2 0xB1F DUP4 PUSH2 0x439C JUMP JUMPDEST PUSH1 0x20 DUP3 ADD SWAP3 SWAP1 PUSH1 0x1F NOT ADD CALLDATASIZE DUP5 CALLDATACOPY PUSH2 0xB3E PUSH2 0xB38 DUP6 PUSH2 0x4C6C JUMP JUMPDEST SWAP5 PUSH2 0x4C6C JUMP JUMPDEST PUSH0 SWAP2 PUSH0 JUMPDEST DUP2 PUSH0 MSTORE PUSH1 0x4 PUSH1 0x20 MSTORE PUSH1 0x40 PUSH0 KECCAK256 SLOAD DUP2 LT ISZERO PUSH2 0xC07 JUMPI DUP2 PUSH0 MSTORE PUSH1 0x4 PUSH1 0x20 MSTORE PUSH1 0xFF PUSH1 0x3 PUSH2 0xB6F DUP4 PUSH1 0x40 PUSH0 KECCAK256 PUSH2 0x45D5 JUMP JUMPDEST POP ADD SLOAD AND PUSH2 0xB80 JUMPI JUMPDEST PUSH1 0x1 ADD PUSH2 0xB42 JUMP JUMPDEST SWAP3 PUSH2 0xBFF PUSH1 0x1 SWAP2 DUP4 PUSH0 MSTORE PUSH1 0x4 PUSH1 0x20 MSTORE PUSH2 0xB9C DUP7 PUSH1 0x40 PUSH0 KECCAK256 PUSH2 0x45D5 JUMP JUMPDEST POP DUP4 DUP1 PUSH1 0xA0 SHL SUB SWAP1 SLOAD AND PUSH2 0xBB0 DUP3 DUP10 PUSH2 0x4907 JUMP JUMPDEST MSTORE DUP4 PUSH0 MSTORE PUSH1 0x4 PUSH1 0x20 MSTORE DUP3 PUSH2 0xBC7 DUP8 PUSH1 0x40 PUSH0 KECCAK256 PUSH2 0x45D5 JUMP JUMPDEST POP ADD SLOAD PUSH2 0xBD4 DUP3 DUP12 PUSH2 0x4907 JUMP JUMPDEST MSTORE DUP4 PUSH0 MSTORE PUSH1 0x4 PUSH1 0x20 MSTORE PUSH1 0x2 PUSH2 0xBEC DUP8 PUSH1 0x40 PUSH0 KECCAK256 PUSH2 0x45D5 JUMP JUMPDEST POP ADD SLOAD PUSH2 0xBF9 DUP3 DUP8 PUSH2 0x4907 JUMP JUMPDEST MSTORE PUSH2 0x491B JUMP JUMPDEST SWAP4 SWAP1 POP PUSH2 0xB78 JUMP JUMPDEST DUP7 DUP6 DUP5 DUP9 PUSH1 0x40 MLOAD SWAP4 DUP5 SWAP4 PUSH1 0x60 DUP6 ADD SWAP1 PUSH1 0x60 DUP7 MSTORE MLOAD DUP1 SWAP2 MSTORE PUSH1 0x80 DUP6 ADD SWAP3 SWAP1 PUSH0 JUMPDEST DUP2 DUP2 LT PUSH2 0xC54 JUMPI POP POP POP DUP2 PUSH2 0xC46 SWAP2 DUP6 PUSH2 0x851 SWAP6 SWAP5 SUB PUSH1 0x20 DUP8 ADD MSTORE PUSH2 0x42BC JUMP JUMPDEST SWAP1 DUP4 DUP3 SUB PUSH1 0x40 DUP6 ADD MSTORE PUSH2 0x42BC JUMP JUMPDEST DUP3 MLOAD PUSH1 0x1 PUSH1 0x1 PUSH1 0xA0 SHL SUB AND DUP6 MSTORE DUP8 SWAP7 POP PUSH1 0x20 SWAP5 DUP6 ADD SWAP5 SWAP1 SWAP3 ADD SWAP2 PUSH1 0x1 ADD PUSH2 0xC26 JUMP JUMPDEST POP PUSH1 0xB SLOAD DUP2 GT ISZERO PUSH2 0xA9D JUMP JUMPDEST CALLVALUE PUSH2 0x346 JUMPI PUSH1 0x40 CALLDATASIZE PUSH1 0x3 NOT ADD SLT PUSH2 0x346 JUMPI PUSH2 0xC9B PUSH2 0x42A6 JUMP JUMPDEST PUSH1 0x1 PUSH1 0x1 PUSH1 0xA0 SHL SUB AND PUSH0 SWAP1 DUP2 MSTORE PUSH1 0x3 PUSH1 0x20 MSTORE PUSH1 0x40 SWAP1 KECCAK256 DUP1 SLOAD PUSH1 0x24 CALLDATALOAD SWAP2 SWAP1 DUP3 LT ISZERO PUSH2 0x346 JUMPI PUSH1 0x20 SWAP2 PUSH2 0xCCB SWAP2 PUSH2 0x4596 JUMP JUMPDEST SWAP1 SLOAD SWAP1 PUSH1 0x3 SHL SHR PUSH1 0x40 MLOAD SWAP1 DUP2 MSTORE RETURN JUMPDEST CALLVALUE PUSH2 0x346 JUMPI PUSH0 CALLDATASIZE PUSH1 0x3 NOT ADD SLT PUSH2 0x346 JUMPI PUSH1 0x7 SLOAD PUSH0 PUSH1 0x1 JUMPDEST DUP3 DUP2 GT ISZERO PUSH2 0xD8F JUMPI POP PUSH2 0xD03 SWAP1 PUSH2 0x4C6C JUMP JUMPDEST PUSH0 SWAP2 PUSH1 0x1 JUMPDEST DUP2 DUP2 GT ISZERO PUSH2 0xD26 JUMPI PUSH1 0x40 MLOAD PUSH1 0x20 DUP1 DUP3 MSTORE DUP2 SWAP1 PUSH2 0x851 SWAP1 DUP3 ADD DUP7 PUSH2 0x42BC JUMP JUMPDEST DUP1 PUSH0 MSTORE PUSH1 0x6 PUSH1 0x20 MSTORE PUSH1 0xFF PUSH1 0x7 PUSH1 0x40 PUSH0 KECCAK256 ADD SLOAD AND PUSH1 0x3 DUP2 LT ISZERO PUSH2 0x855 JUMPI ISZERO DUP1 PUSH2 0xD77 JUMPI JUMPDEST PUSH2 0xD5C JUMPI JUMPDEST PUSH2 0xD57 SWAP1 PUSH2 0x491B JUMP JUMPDEST PUSH2 0xD08 JUMP JUMPDEST SWAP3 PUSH2 0xD6F DUP2 DUP6 PUSH2 0xBF9 PUSH2 0xD57 SWAP5 DUP8 PUSH2 0x4907 JUMP JUMPDEST SWAP4 SWAP1 POP PUSH2 0xD4E JUMP JUMPDEST POP DUP1 PUSH0 MSTORE PUSH1 0x6 PUSH1 0x20 MSTORE PUSH1 0x6 PUSH1 0x40 PUSH0 KECCAK256 ADD SLOAD TIMESTAMP LT PUSH2 0xD49 JUMP JUMPDEST DUP1 PUSH0 MSTORE PUSH1 0x6 PUSH1 0x20 MSTORE PUSH1 0xFF PUSH1 0x7 PUSH1 0x40 PUSH0 KECCAK256 ADD SLOAD AND PUSH1 0x3 DUP2 LT ISZERO PUSH2 0x855 JUMPI ISZERO DUP1 PUSH2 0xDDA JUMPI JUMPDEST PUSH2 0xDC5 JUMPI JUMPDEST PUSH2 0xDC0 SWAP1 PUSH2 0x491B JUMP JUMPDEST PUSH2 0xCF1 JUMP JUMPDEST SWAP1 PUSH2 0xDD2 PUSH2 0xDC0 SWAP2 PUSH2 0x491B JUMP JUMPDEST SWAP2 SWAP1 POP PUSH2 0xDB7 JUMP JUMPDEST POP DUP1 PUSH0 MSTORE PUSH1 0x6 PUSH1 0x20 MSTORE PUSH1 0x6 PUSH1 0x40 PUSH0 KECCAK256 ADD SLOAD TIMESTAMP LT PUSH2 0xDB2 JUMP JUMPDEST CALLVALUE PUSH2 0x346 JUMPI PUSH0 CALLDATASIZE PUSH1 0x3 NOT ADD SLT PUSH2 0x346 JUMPI PUSH1 0x20 PUSH1 0xC SLOAD PUSH1 0x40 MLOAD SWAP1 DUP2 MSTORE RETURN JUMPDEST CALLVALUE PUSH2 0x346 JUMPI PUSH0 CALLDATASIZE PUSH1 0x3 NOT ADD SLT PUSH2 0x346 JUMPI PUSH1 0xD SLOAD PUSH1 0x40 MLOAD PUSH1 0x1 PUSH1 0x1 PUSH1 0xA0 SHL SUB SWAP1 SWAP2 AND DUP2 MSTORE PUSH1 0x20 SWAP1 RETURN JUMPDEST CALLVALUE PUSH2 0x346 JUMPI PUSH2 0xE45 CALLDATASIZE PUSH2 0x4523 JUMP JUMPDEST SWAP1 SWAP2 DUP1 ISZERO ISZERO DUP1 PUSH2 0x1105 JUMPI JUMPDEST PUSH2 0xE59 SWAP1 PUSH2 0x45EE JUMP JUMPDEST DUP1 PUSH0 MSTORE PUSH0 PUSH1 0x20 MSTORE PUSH2 0xE7A PUSH1 0x1 DUP1 PUSH1 0xA0 SHL SUB PUSH1 0x1 PUSH1 0x40 PUSH0 KECCAK256 ADD SLOAD AND CALLER EQ PUSH2 0x462C JUMP JUMPDEST DUP1 PUSH0 MSTORE PUSH0 PUSH1 0x20 MSTORE PUSH1 0xFF PUSH1 0xB PUSH1 0x40 PUSH0 KECCAK256 ADD SLOAD AND ISZERO DUP1 ISZERO PUSH2 0x10E4 JUMPI JUMPDEST PUSH2 0xE9D SWAP1 PUSH2 0x4683 JUMP JUMPDEST DUP3 ISZERO PUSH2 0x1091 JUMPI PUSH2 0xE10 DUP3 LT ISZERO DUP1 PUSH2 0x1084 JUMPI JUMPDEST PUSH2 0xEB8 SWAP1 PUSH2 0x4A0E JUMP JUMPDEST DUP1 PUSH0 MSTORE PUSH0 PUSH1 0x20 MSTORE PUSH1 0xFF PUSH1 0x5 PUSH1 0x40 PUSH0 KECCAK256 ADD SLOAD AND PUSH2 0x103F JUMPI PUSH2 0xED9 PUSH1 0x7 SLOAD PUSH2 0x491B JUMP JUMPDEST SWAP2 DUP3 PUSH1 0x7 SSTORE PUSH2 0xEE8 DUP2 TIMESTAMP PUSH2 0x48ED JUMP JUMPDEST PUSH1 0x7 PUSH1 0x40 MLOAD PUSH2 0xEF6 DUP2 PUSH2 0x430A JUMP JUMPDEST DUP5 DUP2 MSTORE CALLER PUSH1 0x20 DUP1 DUP4 ADD SWAP2 DUP3 MSTORE PUSH1 0x40 DUP1 DUP5 ADD DUP11 DUP2 MSTORE PUSH0 PUSH1 0x60 DUP7 ADD DUP2 DUP2 MSTORE PUSH1 0x80 DUP8 ADD DUP3 DUP2 MSTORE TIMESTAMP PUSH1 0xA0 DUP10 ADD SWAP1 DUP2 MSTORE PUSH1 0xC0 DUP10 ADD SWAP11 DUP12 MSTORE PUSH1 0xE0 DUP10 ADD DUP5 DUP2 MSTORE PUSH2 0x100 DUP11 ADD DUP6 DUP2 MSTORE SWAP15 DUP6 MSTORE PUSH1 0x6 SWAP8 DUP9 SWAP1 MSTORE SWAP6 SWAP1 SWAP4 KECCAK256 SWAP8 MLOAD DUP9 SSTORE SWAP6 MLOAD PUSH1 0x1 DUP9 ADD DUP1 SLOAD PUSH1 0x1 PUSH1 0x1 PUSH1 0xA0 SHL SUB NOT SWAP1 DUP2 AND PUSH1 0x1 PUSH1 0x1 PUSH1 0xA0 SHL SUB SWAP4 DUP5 AND OR SWAP1 SWAP2 SSTORE SWAP4 MLOAD PUSH1 0x2 DUP10 ADD SSTORE SWAP1 MLOAD PUSH1 0x3 DUP1 DUP10 ADD SWAP2 SWAP1 SWAP2 SSTORE SWAP6 MLOAD PUSH1 0x4 DUP9 ADD DUP1 SLOAD SWAP1 SWAP5 AND SWAP2 AND OR SWAP1 SWAP2 SSTORE MLOAD PUSH1 0x5 DUP6 ADD SSTORE SWAP5 MLOAD SWAP1 DUP4 ADD SSTORE SWAP3 MLOAD SWAP6 SWAP2 ADD SWAP2 DUP6 LT ISZERO PUSH2 0x855 JUMPI PUSH1 0x20 SWAP6 PUSH2 0xFFC PUSH32 0xA9C8DFCDA5664A5A124C713E386DA27DE87432D5B668E79458501EB296389BA7 SWAP4 PUSH1 0x40 SWAP4 PUSH2 0x102D SWAP9 PUSH1 0xFF DUP1 NOT DUP5 SLOAD AND SWAP2 AND OR DUP3 SSTORE MLOAD ISZERO ISZERO PUSH2 0xFF00 DUP3 SLOAD SWAP2 ISZERO ISZERO PUSH1 0x8 SHL AND SWAP1 PUSH2 0xFF00 NOT AND OR SWAP1 SSTORE JUMP JUMPDEST DUP5 PUSH0 MSTORE PUSH0 DUP8 MSTORE PUSH1 0x5 DUP3 PUSH0 KECCAK256 ADD PUSH1 0x1 PUSH1 0xFF NOT DUP3 SLOAD AND OR SWAP1 SSTORE DUP5 PUSH0 MSTORE PUSH0 DUP8 MSTORE DUP1 PUSH1 0x4 DUP4 PUSH0 KECCAK256 ADD SSTORE PUSH1 0x7 SLOAD SWAP6 DUP7 SWAP5 TIMESTAMP PUSH2 0x48ED JUMP JUMPDEST DUP3 MLOAD SWAP2 DUP3 MSTORE DUP8 DUP3 ADD MSTORE LOG3 PUSH1 0x40 MLOAD SWAP1 DUP2 MSTORE RETURN JUMPDEST PUSH1 0x40 MLOAD PUSH3 0x461BCD PUSH1 0xE5 SHL DUP2 MSTORE PUSH1 0x20 PUSH1 0x4 DUP3 ADD MSTORE PUSH1 0x18 PUSH1 0x24 DUP3 ADD MSTORE PUSH32 0x4C616E6420697320616C726561647920666F722073616C650000000000000000 PUSH1 0x44 DUP3 ADD MSTORE PUSH1 0x64 SWAP1 REVERT JUMPDEST POP PUSH3 0x278D00 DUP3 GT ISZERO PUSH2 0xEAF JUMP JUMPDEST PUSH1 0x40 MLOAD PUSH3 0x461BCD PUSH1 0xE5 SHL DUP2 MSTORE PUSH1 0x20 PUSH1 0x4 DUP3 ADD MSTORE PUSH1 0x25 PUSH1 0x24 DUP3 ADD MSTORE PUSH32 0x5374617274207072696365206D7573742062652067726561746572207468616E PUSH1 0x44 DUP3 ADD MSTORE PUSH5 0x207A65726F PUSH1 0xD8 SHL PUSH1 0x64 DUP3 ADD MSTORE PUSH1 0x84 SWAP1 REVERT JUMPDEST POP PUSH0 DUP2 DUP2 MSTORE PUSH1 0x20 DUP2 SWAP1 MSTORE PUSH1 0x40 SWAP1 KECCAK256 PUSH1 0xD ADD SLOAD PUSH1 0x1 PUSH1 0x1 PUSH1 0xA0 SHL SUB AND ISZERO PUSH2 0xE94 JUMP JUMPDEST POP PUSH1 0xB SLOAD DUP2 GT ISZERO PUSH2 0xE50 JUMP JUMPDEST CALLVALUE PUSH2 0x346 JUMPI PUSH1 0x60 CALLDATASIZE PUSH1 0x3 NOT ADD SLT PUSH2 0x346 JUMPI PUSH1 0x4 CALLDATALOAD PUSH1 0x24 CALLDATALOAD PUSH1 0x1 PUSH1 0x1 PUSH1 0x40 SHL SUB DUP2 GT PUSH2 0x346 JUMPI PUSH2 0x1144 SWAP1 CALLDATASIZE SWAP1 PUSH1 0x4 ADD PUSH2 0x43B3 JUMP JUMPDEST PUSH1 0x44 CALLDATALOAD SWAP1 PUSH1 0x1 PUSH1 0x1 PUSH1 0x40 SHL SUB DUP3 GT PUSH2 0x346 JUMPI CALLDATASIZE PUSH1 0x23 DUP4 ADD SLT ISZERO PUSH2 0x346 JUMPI DUP2 PUSH1 0x4 ADD CALLDATALOAD PUSH2 0x116F DUP2 PUSH2 0x439C JUMP JUMPDEST SWAP3 PUSH2 0x117D PUSH1 0x40 MLOAD SWAP5 DUP6 PUSH2 0x4326 JUMP JUMPDEST DUP2 DUP5 MSTORE PUSH1 0x24 PUSH1 0x20 DUP6 ADD SWAP3 PUSH1 0x5 SHL DUP3 ADD ADD SWAP1 CALLDATASIZE DUP3 GT PUSH2 0x346 JUMPI PUSH1 0x24 DUP2 ADD SWAP3 JUMPDEST DUP3 DUP5 LT PUSH2 0x163A JUMPI POP POP POP POP DUP3 ISZERO ISZERO DUP1 PUSH2 0x162E JUMPI JUMPDEST PUSH2 0x11B8 SWAP1 PUSH2 0x45EE JUMP JUMPDEST DUP3 PUSH0 MSTORE PUSH0 PUSH1 0x20 MSTORE PUSH2 0x11D9 PUSH1 0x1 DUP1 PUSH1 0xA0 SHL SUB PUSH1 0x1 PUSH1 0x40 PUSH0 KECCAK256 ADD SLOAD AND CALLER EQ PUSH2 0x462C JUMP JUMPDEST DUP1 MLOAD PUSH1 0x2 DUP2 LT ISZERO SWAP1 DUP2 PUSH2 0x1622 JUMPI JUMPDEST POP ISZERO PUSH2 0x15DD JUMPI DUP1 MLOAD DUP3 MLOAD SUB PUSH2 0x1598 JUMPI DUP3 PUSH0 MSTORE PUSH0 PUSH1 0x20 MSTORE PUSH1 0xFF PUSH1 0x5 PUSH1 0x40 PUSH0 KECCAK256 ADD SLOAD AND PUSH2 0x1553 JUMPI PUSH0 DUP4 DUP2 MSTORE PUSH1 0x20 DUP2 SWAP1 MSTORE PUSH1 0x40 SWAP1 KECCAK256 PUSH1 0xD ADD SLOAD PUSH1 0x1 PUSH1 0x1 PUSH1 0xA0 SHL SUB AND PUSH2 0x150E JUMPI PUSH0 SWAP3 DUP4 JUMPDEST DUP3 MLOAD DUP6 LT ISZERO PUSH2 0x1256 JUMPI PUSH2 0x124E PUSH1 0x1 SWAP2 PUSH2 0x1247 DUP8 DUP7 PUSH2 0x4907 JUMP JUMPDEST MLOAD SWAP1 PUSH2 0x48ED JUMP JUMPDEST SWAP5 ADD SWAP4 PUSH2 0x122E JUMP JUMPDEST SWAP1 SWAP4 POP DUP4 PUSH0 MSTORE PUSH0 PUSH1 0x20 MSTORE PUSH1 0x3 PUSH1 0x40 PUSH0 KECCAK256 ADD SLOAD SUB PUSH2 0x14C9 JUMPI DUP3 SWAP1 DUP2 PUSH0 MSTORE PUSH0 PUSH1 0x20 MSTORE PUSH1 0x40 PUSH0 KECCAK256 SWAP3 PUSH2 0x1285 DUP3 MLOAD PUSH2 0x4C6C JUMP JUMPDEST PUSH1 0x6 DUP6 ADD SWAP5 SWAP1 SWAP3 CALLER SWAP3 PUSH1 0x7 DUP4 ADD SWAP3 SWAP1 SWAP2 PUSH1 0x5 SWAP1 SWAP2 ADD SWAP1 PUSH0 JUMPDEST DUP2 MLOAD DUP2 LT ISZERO PUSH2 0x1457 JUMPI PUSH2 0x12B1 PUSH1 0xB SLOAD PUSH2 0x491B JUMP JUMPDEST DUP1 PUSH1 0xB SSTORE PUSH2 0x12BD PUSH2 0x4A92 JUMP JUMPDEST PUSH2 0x12C6 CALLER PUSH2 0x4CFB JUMP JUMPDEST PUSH2 0x12CF DUP3 PUSH2 0x48FA JUMP JUMPDEST MSTORE PUSH2 0x12D9 DUP2 PUSH2 0x48FA JUMP JUMPDEST POP DUP11 SLOAD PUSH1 0x50 DUP2 MUL SWAP1 DUP1 DUP3 DIV PUSH1 0x50 EQ SWAP1 ISZERO OR ISZERO PUSH2 0x614 JUMPI PUSH1 0x64 SWAP1 DUP4 PUSH0 MSTORE PUSH0 PUSH1 0x20 MSTORE PUSH1 0x40 PUSH0 KECCAK256 SWAP4 DUP5 SSTORE PUSH1 0x1 DUP5 ADD DUP11 PUSH1 0x1 PUSH1 0x1 PUSH1 0x60 SHL SUB PUSH1 0xA0 SHL DUP3 SLOAD AND OR SWAP1 SSTORE PUSH2 0x132D PUSH2 0x1323 DUP7 DUP11 PUSH2 0x4907 JUMP JUMPDEST MLOAD PUSH1 0x2 DUP7 ADD PUSH2 0x4745 JUMP JUMPDEST PUSH2 0x1337 DUP6 DUP8 PUSH2 0x4907 JUMP JUMPDEST MLOAD PUSH1 0x3 DUP6 ADD SSTORE PUSH2 0x136E PUSH1 0xFF DUP9 SLOAD PUSH1 0x8 SHR AND PUSH2 0x1356 PUSH1 0x5 DUP8 ADD SWAP2 DUP3 PUSH2 0x4ACC JUMP JUMPDEST DUP1 SLOAD PUSH3 0xFF0000 NOT AND DUP2 SSTORE DUP9 SLOAD PUSH1 0x18 SHR PUSH1 0xFF AND SWAP1 PUSH2 0x4B0C JUMP JUMPDEST DIV PUSH1 0x6 DUP4 ADD SSTORE PUSH2 0x13D4 PUSH1 0xFF DUP9 SLOAD AND PUSH2 0x1396 PUSH1 0x7 DUP6 ADD SWAP2 DUP3 SWAP1 PUSH1 0xFF DUP1 NOT DUP4 SLOAD AND SWAP2 ISZERO ISZERO AND OR SWAP1 SSTORE JUMP JUMPDEST DUP9 SLOAD DUP2 SLOAD PUSH2 0xFF00 NOT AND PUSH1 0x8 SWAP2 DUP3 SHR PUSH1 0xFF AND ISZERO ISZERO SWAP1 SWAP2 SHL PUSH2 0xFF00 AND OR DUP2 SSTORE PUSH1 0xFF DUP10 SLOAD PUSH1 0x10 SHR AND PUSH3 0xFF0000 DUP3 SLOAD SWAP2 ISZERO ISZERO PUSH1 0x10 SHL AND SWAP1 PUSH3 0xFF0000 NOT AND OR SWAP1 SSTORE JUMP JUMPDEST TIMESTAMP PUSH1 0x9 DUP4 ADD SSTORE PUSH1 0xA DUP3 ADD PUSH1 0x20 DUP3 MLOAD SWAP3 PUSH2 0x13ED DUP5 DUP5 PUSH2 0x4B7D JUMP JUMPDEST ADD SWAP1 PUSH0 MSTORE PUSH1 0x20 PUSH0 KECCAK256 SWAP1 PUSH0 SWAP1 JUMPDEST DUP4 DUP3 LT PUSH2 0x143A JUMPI POP POP POP POP SWAP1 PUSH1 0x1 SWAP2 PUSH1 0x12 TIMESTAMP SWAP2 ADD SSTORE CALLER PUSH0 MSTORE PUSH1 0x3 PUSH1 0x20 MSTORE PUSH2 0x1426 PUSH1 0x40 PUSH0 KECCAK256 PUSH1 0xB SLOAD SWAP1 PUSH2 0x486A JUMP JUMPDEST PUSH1 0xB SLOAD PUSH2 0x1433 DUP3 DUP11 PUSH2 0x4907 JUMP JUMPDEST MSTORE ADD PUSH2 0x129D JUMP JUMPDEST PUSH1 0x1 PUSH1 0x20 DUP3 PUSH2 0x144B DUP4 SWAP5 MLOAD DUP8 PUSH2 0x4745 JUMP JUMPDEST ADD SWAP4 ADD SWAP2 ADD SWAP1 SWAP2 PUSH2 0x13F9 JUMP JUMPDEST PUSH2 0x851 DUP8 DUP10 DUP1 PUSH0 MSTORE PUSH0 PUSH1 0x20 MSTORE PUSH2 0x146F PUSH1 0x40 PUSH0 KECCAK256 PUSH2 0x4BC4 JUMP JUMPDEST PUSH2 0x1479 DUP2 CALLER PUSH2 0x4E14 JUMP JUMPDEST PUSH1 0x40 MLOAD SWAP1 PUSH1 0x20 DUP3 MSTORE PUSH32 0x176684A7D4089AA4586EEE2827366F12E1399A439726071D23D6C96C1BE281E2 CALLER SWAP3 DUP1 PUSH2 0x14B2 PUSH1 0x20 DUP3 ADD DUP8 PUSH2 0x42BC JUMP JUMPDEST SUB SWAP1 LOG3 PUSH1 0x40 MLOAD SWAP2 DUP3 SWAP2 PUSH1 0x20 DUP4 MSTORE PUSH1 0x20 DUP4 ADD SWAP1 PUSH2 0x42BC JUMP JUMPDEST PUSH1 0x40 MLOAD PUSH3 0x461BCD PUSH1 0xE5 SHL DUP2 MSTORE PUSH1 0x20 PUSH1 0x4 DUP3 ADD MSTORE PUSH1 0x1F PUSH1 0x24 DUP3 ADD MSTORE PUSH32 0x546F74616C2073697A6573206D75737420657175616C206F726967696E616C00 PUSH1 0x44 DUP3 ADD MSTORE PUSH1 0x64 SWAP1 REVERT JUMPDEST PUSH1 0x40 MLOAD PUSH3 0x461BCD PUSH1 0xE5 SHL DUP2 MSTORE PUSH1 0x20 PUSH1 0x4 DUP3 ADD MSTORE PUSH1 0x18 PUSH1 0x24 DUP3 ADD MSTORE PUSH32 0x43616E6E6F742073706C69742072656E746564206C616E640000000000000000 PUSH1 0x44 DUP3 ADD MSTORE PUSH1 0x64 SWAP1 REVERT JUMPDEST PUSH1 0x40 MLOAD PUSH3 0x461BCD PUSH1 0xE5 SHL DUP2 MSTORE PUSH1 0x20 PUSH1 0x4 DUP3 ADD MSTORE PUSH1 0x1A PUSH1 0x24 DUP3 ADD MSTORE PUSH32 0x43616E6E6F742073706C6974206C616E6420666F722073616C65000000000000 PUSH1 0x44 DUP3 ADD MSTORE PUSH1 0x64 SWAP1 REVERT JUMPDEST PUSH1 0x40 MLOAD PUSH3 0x461BCD PUSH1 0xE5 SHL DUP2 MSTORE PUSH1 0x20 PUSH1 0x4 DUP3 ADD MSTORE PUSH1 0x1E PUSH1 0x24 DUP3 ADD MSTORE PUSH32 0x53697A657320616E64206C6F636174696F6E73206D757374206D617463680000 PUSH1 0x44 DUP3 ADD MSTORE PUSH1 0x64 SWAP1 REVERT JUMPDEST PUSH1 0x40 MLOAD PUSH3 0x461BCD PUSH1 0xE5 SHL DUP2 MSTORE PUSH1 0x20 PUSH1 0x4 DUP3 ADD MSTORE PUSH1 0x1C PUSH1 0x24 DUP3 ADD MSTORE PUSH32 0x4D7573742073706C697420696E746F20322D31302070617263656C7300000000 PUSH1 0x44 DUP3 ADD MSTORE PUSH1 0x64 SWAP1 REVERT JUMPDEST PUSH1 0xA SWAP2 POP GT ISZERO DUP5 PUSH2 0x11E7 JUMP JUMPDEST POP PUSH1 0xB SLOAD DUP4 GT ISZERO PUSH2 0x11AF JUMP JUMPDEST DUP4 CALLDATALOAD PUSH1 0x1 PUSH1 0x1 PUSH1 0x40 SHL SUB DUP2 GT PUSH2 0x346 JUMPI PUSH1 0x20 SWAP2 PUSH2 0x165E DUP4 SWAP3 PUSH1 0x24 CALLDATASIZE SWAP2 DUP8 ADD ADD PUSH2 0x4347 JUMP JUMPDEST DUP2 MSTORE ADD SWAP4 ADD SWAP3 PUSH2 0x119B JUMP JUMPDEST CALLVALUE PUSH2 0x346 JUMPI PUSH1 0x20 CALLDATASIZE PUSH1 0x3 NOT ADD SLT PUSH2 0x346 JUMPI PUSH1 0x4 CALLDATALOAD DUP1 ISZERO ISZERO DUP1 PUSH2 0x190C JUMPI JUMPDEST PUSH2 0x168F SWAP1 PUSH2 0x4989 JUMP JUMPDEST DUP1 PUSH0 MSTORE PUSH1 0x6 PUSH1 0x20 MSTORE PUSH1 0x40 PUSH0 KECCAK256 SWAP1 PUSH1 0x7 DUP3 ADD DUP1 SLOAD PUSH1 0xFF DUP2 AND PUSH1 0x3 DUP2 LT ISZERO PUSH2 0x855 JUMPI PUSH2 0x16B9 SWAP1 ISZERO PUSH2 0x49CA JUMP JUMPDEST PUSH1 0x6 DUP5 ADD SLOAD TIMESTAMP LT PUSH2 0x18CF JUMPI PUSH1 0xFF DUP2 PUSH1 0x8 SHR AND PUSH2 0x188A JUMPI PUSH2 0xFFFF NOT AND PUSH2 0x101 OR SWAP1 SSTORE DUP2 SLOAD PUSH0 DUP2 DUP2 MSTORE PUSH1 0x20 DUP2 SWAP1 MSTORE PUSH1 0x40 SWAP1 KECCAK256 PUSH1 0x5 ADD DUP1 SLOAD PUSH1 0xFF NOT AND SWAP1 SSTORE PUSH1 0x4 DUP4 ADD DUP1 SLOAD SWAP2 SWAP4 SWAP1 SWAP2 PUSH1 0x1 PUSH1 0x1 PUSH1 0xA0 SHL SUB AND ISZERO PUSH2 0x184B JUMPI PUSH0 DUP1 DUP1 DUP1 PUSH1 0x3 DUP6 ADD SWAP8 DUP9 SLOAD SWAP6 PUSH2 0x17C3 PUSH2 0x1734 PUSH1 0x64 PUSH2 0x172C PUSH1 0x8 SLOAD DUP12 PUSH2 0x471C JUMP JUMPDEST DIV DUP1 SWAP10 PUSH2 0x46CF JUMP JUMPDEST DUP4 DUP6 MSTORE PUSH1 0x20 DUP6 DUP2 MSTORE PUSH1 0x40 DUP1 DUP8 KECCAK256 PUSH1 0x1 SWAP1 DUP2 ADD SLOAD DUP14 SLOAD DUP9 DUP11 MSTORE DUP10 DUP6 MSTORE DUP4 DUP11 KECCAK256 SWAP1 SWAP3 ADD DUP1 SLOAD PUSH1 0x1 PUSH1 0x1 PUSH1 0xA0 SHL SUB NOT AND PUSH1 0x1 PUSH1 0x1 PUSH1 0xA0 SHL SUB SWAP4 DUP5 AND OR SWAP1 SSTORE DUP8 DUP10 MSTORE SWAP3 DUP9 SWAP1 MSTORE SWAP1 DUP8 KECCAK256 DUP13 SLOAD SWAP4 SWAP7 SWAP4 SWAP3 DUP3 AND SWAP3 PUSH2 0x179D SWAP3 PUSH1 0xA SWAP3 SWAP1 SWAP3 ADD SWAP2 PUSH2 0x1797 SWAP2 AND PUSH2 0x4CFB JUMP JUMPDEST SWAP1 PUSH2 0x483D JUMP JUMPDEST DUP11 SLOAD PUSH1 0x1 PUSH1 0x1 PUSH1 0xA0 SHL SUB AND DUP7 MSTORE PUSH1 0x3 PUSH1 0x20 MSTORE PUSH1 0x40 DUP7 KECCAK256 PUSH2 0x17BE SWAP1 DUP4 SWAP1 PUSH2 0x486A JUMP JUMPDEST PUSH2 0x4E14 JUMP JUMPDEST PUSH1 0x1 ADD SLOAD PUSH1 0x1 PUSH1 0x1 PUSH1 0xA0 SHL SUB AND DUP3 DUP3 ISZERO PUSH2 0x1842 JUMPI JUMPDEST CALL ISZERO PUSH2 0x5B2 JUMPI PUSH1 0xA SLOAD PUSH0 SWAP2 DUP3 SWAP2 DUP3 SWAP2 DUP3 SWAP2 PUSH1 0x1 PUSH1 0x1 PUSH1 0xA0 SHL SUB AND DUP3 DUP3 ISZERO PUSH2 0x1839 JUMPI JUMPDEST CALL ISZERO PUSH2 0x5B2 JUMPI PUSH1 0x20 PUSH32 0xD2AA34A4FDBBC6DFF6A3E56F46E0F3AE2A31D7785FF3487AA5C95C642ACEA501 SWAP2 PUSH1 0x1 DUP1 PUSH1 0xA0 SHL SUB SWAP1 SLOAD AND SWAP4 SLOAD PUSH1 0x40 MLOAD SWAP1 DUP2 MSTORE LOG3 STOP JUMPDEST POP PUSH2 0x8FC PUSH2 0x17FA JUMP JUMPDEST POP PUSH2 0x8FC PUSH2 0x17D8 JUMP JUMPDEST POP POP PUSH0 SWAP2 DUP3 MSTORE DUP2 PUSH1 0x20 MSTORE DUP2 PUSH1 0x4 PUSH1 0x40 DUP3 KECCAK256 ADD SSTORE PUSH32 0xD2AA34A4FDBBC6DFF6A3E56F46E0F3AE2A31D7785FF3487AA5C95C642ACEA501 PUSH1 0x20 PUSH1 0x40 MLOAD DUP5 DUP2 MSTORE LOG3 STOP JUMPDEST PUSH1 0x40 MLOAD PUSH3 0x461BCD PUSH1 0xE5 SHL DUP2 MSTORE PUSH1 0x20 PUSH1 0x4 DUP3 ADD MSTORE PUSH1 0x19 PUSH1 0x24 DUP3 ADD MSTORE PUSH32 0x41756374696F6E20616C72656164792066696E616C697A656400000000000000 PUSH1 0x44 DUP3 ADD MSTORE PUSH1 0x64 SWAP1 REVERT JUMPDEST PUSH1 0x40 MLOAD PUSH3 0x461BCD PUSH1 0xE5 SHL DUP2 MSTORE PUSH1 0x20 PUSH1 0x4 DUP3 ADD MSTORE PUSH1 0x15 PUSH1 0x24 DUP3 ADD MSTORE PUSH21 0x105D58DD1A5BDB881B9BDD081E595D08195B991959 PUSH1 0x5A SHL PUSH1 0x44 DUP3 ADD MSTORE PUSH1 0x64 SWAP1 REVERT JUMPDEST POP PUSH1 0x7 SLOAD DUP2 GT ISZERO PUSH2 0x1686 JUMP JUMPDEST PUSH1 0x20 CALLDATASIZE PUSH1 0x3 NOT ADD SLT PUSH2 0x346 JUMPI PUSH1 0x4 CALLDATALOAD DUP1 ISZERO ISZERO DUP1 PUSH2 0x1B5D JUMPI JUMPDEST PUSH2 0x1939 SWAP1 PUSH2 0x45EE JUMP JUMPDEST DUP1 PUSH0 MSTORE PUSH0 PUSH1 0x20 MSTORE PUSH1 0x40 PUSH0 KECCAK256 SWAP1 PUSH1 0xB DUP3 ADD SWAP2 PUSH1 0xFF DUP4 SLOAD AND ISZERO PUSH2 0x1B21 JUMPI PUSH1 0xD DUP2 ADD DUP1 SLOAD PUSH2 0x196D SWAP1 PUSH1 0x1 PUSH1 0x1 PUSH1 0xA0 SHL SUB AND ISZERO PUSH2 0x4A4D JUMP JUMPDEST PUSH1 0xC DUP3 ADD SLOAD SWAP4 DUP5 CALLVALUE LT PUSH2 0x1ADC JUMPI PUSH1 0x1 DUP4 ADD SWAP2 PUSH1 0x1 DUP1 PUSH1 0xA0 SHL SUB DUP4 SLOAD AND CALLER EQ PUSH2 0x1AA0 JUMPI PUSH0 DUP1 DUP1 SWAP4 SWAP3 DUP9 SWAP6 DUP3 SWAP5 PUSH1 0xF DUP10 ADD DUP1 SLOAD SWAP10 PUSH2 0x19B8 PUSH1 0x64 PUSH2 0x19B0 PUSH1 0x8 SLOAD DUP14 PUSH2 0x471C JUMP JUMPDEST DIV DUP1 SWAP12 PUSH2 0x46CF JUMP JUMPDEST DUP6 SLOAD PUSH1 0x1 PUSH1 0x1 PUSH1 0xA0 SHL SUB NOT AND CALLER OR SWAP1 SWAP6 SSTORE TIMESTAMP PUSH1 0xE SWAP2 SWAP1 SWAP2 ADD DUP2 SWAP1 SSTORE PUSH2 0x19DE SWAP1 DUP12 SWAP1 PUSH2 0x48ED JUMP JUMPDEST SWAP1 SSTORE DUP1 SLOAD PUSH1 0xFF NOT AND SWAP1 SSTORE SLOAD PUSH1 0x1 PUSH1 0x1 PUSH1 0xA0 SHL SUB AND DUP3 DUP3 ISZERO PUSH2 0x1A97 JUMPI JUMPDEST CALL ISZERO PUSH2 0x5B2 JUMPI PUSH1 0xA SLOAD PUSH0 SWAP2 DUP3 SWAP2 DUP3 SWAP2 DUP3 SWAP2 PUSH1 0x1 PUSH1 0x1 PUSH1 0xA0 SHL SUB AND DUP3 DUP3 ISZERO PUSH2 0x1A8E JUMPI JUMPDEST CALL ISZERO PUSH2 0x5B2 JUMPI DUP3 CALLVALUE GT PUSH2 0x1A5D JUMPI JUMPDEST PUSH1 0x40 MLOAD SWAP3 DUP4 MSTORE PUSH1 0x20 DUP4 ADD MSTORE PUSH32 0x1B605793181864EECE69E25665AD41B233544B2168748FDAE00DBF44C9678DB9 PUSH1 0x40 CALLER SWAP4 LOG3 STOP JUMPDEST PUSH0 DUP1 DUP1 DUP1 PUSH2 0x1A6B DUP8 CALLVALUE PUSH2 0x46CF JUMP JUMPDEST DUP2 DUP2 ISZERO PUSH2 0x1A85 JUMPI JUMPDEST CALLER SWAP1 CALL PUSH2 0x1A2A JUMPI PUSH1 0x40 MLOAD RETURNDATASIZE PUSH0 DUP3 RETURNDATACOPY RETURNDATASIZE SWAP1 REVERT JUMPDEST POP PUSH2 0x8FC PUSH2 0x1A73 JUMP JUMPDEST POP PUSH2 0x8FC PUSH2 0x1A1C JUMP JUMPDEST POP PUSH2 0x8FC PUSH2 0x19FA JUMP JUMPDEST PUSH1 0x40 MLOAD PUSH3 0x461BCD PUSH1 0xE5 SHL DUP2 MSTORE PUSH1 0x20 PUSH1 0x4 DUP3 ADD MSTORE PUSH1 0x14 PUSH1 0x24 DUP3 ADD MSTORE PUSH20 0x10D85B9B9BDD081C995B9D081BDDDB881B185B99 PUSH1 0x62 SHL PUSH1 0x44 DUP3 ADD MSTORE PUSH1 0x64 SWAP1 REVERT JUMPDEST PUSH1 0x40 MLOAD PUSH3 0x461BCD PUSH1 0xE5 SHL DUP2 MSTORE PUSH1 0x20 PUSH1 0x4 DUP3 ADD MSTORE PUSH1 0x19 PUSH1 0x24 DUP3 ADD MSTORE PUSH32 0x496E73756666696369656E742072656E74207061796D656E7400000000000000 PUSH1 0x44 DUP3 ADD MSTORE PUSH1 0x64 SWAP1 REVERT JUMPDEST PUSH1 0x40 MLOAD PUSH3 0x461BCD PUSH1 0xE5 SHL DUP2 MSTORE PUSH1 0x20 PUSH1 0x4 DUP3 ADD MSTORE PUSH1 0x14 PUSH1 0x24 DUP3 ADD MSTORE PUSH20 0x13185B99081A5CC81B9BDD08199BDC881C995B9D PUSH1 0x62 SHL PUSH1 0x44 DUP3 ADD MSTORE PUSH1 0x64 SWAP1 REVERT JUMPDEST POP PUSH1 0xB SLOAD DUP2 GT ISZERO PUSH2 0x1930 JUMP JUMPDEST CALLVALUE PUSH2 0x346 JUMPI PUSH1 0x20 CALLDATASIZE PUSH1 0x3 NOT ADD SLT PUSH2 0x346 JUMPI PUSH2 0x1B82 PUSH2 0x42A6 JUMP JUMPDEST PUSH2 0x1B97 PUSH1 0x1 DUP1 PUSH1 0xA0 SHL SUB PUSH1 0xD SLOAD AND CALLER EQ PUSH2 0x4929 JUMP JUMPDEST PUSH1 0x1 PUSH1 0x1 PUSH1 0xA0 SHL SUB AND DUP1 ISZERO PUSH2 0x1BBD JUMPI PUSH1 0x1 PUSH1 0x1 PUSH1 0x60 SHL SUB PUSH1 0xA0 SHL PUSH1 0xA SLOAD AND OR PUSH1 0xA SSTORE PUSH0 DUP1 RETURN JUMPDEST PUSH1 0x40 MLOAD PUSH3 0x461BCD PUSH1 0xE5 SHL DUP2 MSTORE PUSH1 0x20 PUSH1 0x4 DUP3 ADD MSTORE PUSH1 0x16 PUSH1 0x24 DUP3 ADD MSTORE PUSH22 0x496E76616C69642077616C6C65742061646472657373 PUSH1 0x50 SHL PUSH1 0x44 DUP3 ADD MSTORE PUSH1 0x64 SWAP1 REVERT JUMPDEST CALLVALUE PUSH2 0x346 JUMPI PUSH1 0x40 CALLDATASIZE PUSH1 0x3 NOT ADD SLT PUSH2 0x346 JUMPI PUSH2 0x1C14 PUSH2 0x4290 JUMP JUMPDEST PUSH1 0x4 CALLDATALOAD PUSH0 MSTORE PUSH1 0x5 PUSH1 0x20 MSTORE PUSH1 0x40 PUSH0 KECCAK256 SWAP1 PUSH1 0x1 DUP1 PUSH1 0xA0 SHL SUB AND PUSH0 MSTORE PUSH1 0x20 MSTORE PUSH1 0x20 PUSH1 0x40 PUSH0 KECCAK256 SLOAD PUSH1 0x40 MLOAD SWAP1 DUP2 MSTORE RETURN JUMPDEST CALLVALUE PUSH2 0x346 JUMPI PUSH0 CALLDATASIZE PUSH1 0x3 NOT ADD SLT PUSH2 0x346 JUMPI PUSH1 0x20 PUSH1 0x40 MLOAD PUSH4 0x1E13380 DUP2 MSTORE RETURN JUMPDEST CALLVALUE PUSH2 0x346 JUMPI PUSH1 0x20 CALLDATASIZE PUSH1 0x3 NOT ADD SLT PUSH2 0x346 JUMPI PUSH1 0x4 CALLDATALOAD PUSH2 0x1C86 PUSH1 0x1 DUP1 PUSH1 0xA0 SHL SUB PUSH1 0xD SLOAD AND CALLER EQ PUSH2 0x4929 JUMP JUMPDEST PUSH1 0xA DUP2 GT PUSH2 0x1C93 JUMPI PUSH1 0x8 SSTORE STOP JUMPDEST PUSH1 0x40 MLOAD PUSH3 0x461BCD PUSH1 0xE5 SHL DUP2 MSTORE PUSH1 0x20 PUSH1 0x4 DUP3 ADD MSTORE PUSH1 0x15 PUSH1 0x24 DUP3 ADD MSTORE PUSH21 0x4665652063616E6E6F742065786365656420313025 PUSH1 0x58 SHL PUSH1 0x44 DUP3 ADD MSTORE PUSH1 0x64 SWAP1 REVERT JUMPDEST PUSH1 0x20 CALLDATASIZE PUSH1 0x3 NOT ADD SLT PUSH2 0x346 JUMPI PUSH1 0x4 CALLDATALOAD DUP1 ISZERO ISZERO DUP1 PUSH2 0x1F7E JUMPI JUMPDEST PUSH2 0x1CF1 SWAP1 PUSH2 0x45EE JUMP JUMPDEST CALLVALUE ISZERO PUSH2 0x1F39 JUMPI DUP1 PUSH0 MSTORE PUSH0 PUSH1 0x20 MSTORE PUSH1 0x1 DUP1 PUSH1 0xA0 SHL SUB PUSH1 0x1 PUSH1 0x40 PUSH0 KECCAK256 ADD SLOAD AND CALLER EQ PUSH2 0x1EFB JUMPI PUSH0 DUP2 DUP2 MSTORE PUSH1 0x5 PUSH1 0x20 SWAP1 DUP2 MSTORE PUSH1 0x40 DUP1 DUP4 KECCAK256 CALLER DUP5 MSTORE SWAP1 SWAP2 MSTORE SWAP1 KECCAK256 SLOAD DUP1 ISZERO ISZERO DUP1 PUSH2 0x1ECC JUMPI JUMPDEST PUSH2 0x1E61 JUMPI JUMPDEST POP DUP1 PUSH0 MSTORE PUSH1 0x4 PUSH1 0x20 MSTORE PUSH1 0x40 PUSH0 KECCAK256 PUSH1 0x40 MLOAD SWAP1 PUSH1 0x80 DUP3 ADD DUP3 DUP2 LT PUSH1 0x1 PUSH1 0x1 PUSH1 0x40 SHL SUB DUP3 GT OR PUSH2 0x1E4D JUMPI PUSH1 0x40 MSTORE CALLER DUP3 MSTORE PUSH1 0x20 DUP3 ADD SWAP2 CALLVALUE DUP4 MSTORE PUSH1 0x40 DUP2 ADD SWAP2 TIMESTAMP DUP4 MSTORE PUSH1 0x60 DUP3 ADD SWAP1 PUSH1 0x1 DUP3 MSTORE DUP1 SLOAD PUSH1 0x1 PUSH1 0x40 SHL DUP2 LT ISZERO PUSH2 0x1E4D JUMPI PUSH2 0x1D9E SWAP2 PUSH1 0x1 DUP3 ADD DUP2 SSTORE PUSH2 0x45D5 JUMP JUMPDEST SWAP4 SWAP1 SWAP4 PUSH2 0x1E3A JUMPI SWAP2 MLOAD DUP4 SLOAD PUSH1 0x1 PUSH1 0x1 PUSH1 0xA0 SHL SUB SWAP1 SWAP2 AND PUSH1 0x1 PUSH1 0x1 PUSH1 0xA0 SHL SUB NOT SWAP1 SWAP2 AND OR DUP4 SSTORE SWAP3 MLOAD PUSH1 0x1 DUP4 ADD SSTORE MLOAD PUSH1 0x2 DUP3 ADD SSTORE SWAP1 MLOAD PUSH1 0x3 SWAP1 SWAP2 ADD DUP1 SLOAD PUSH1 0xFF NOT AND SWAP2 ISZERO ISZERO PUSH1 0xFF AND SWAP2 SWAP1 SWAP2 OR SWAP1 SSTORE PUSH0 DUP2 DUP2 MSTORE PUSH1 0x4 PUSH1 0x20 SWAP1 DUP2 MSTORE PUSH1 0x40 DUP1 DUP4 KECCAK256 SLOAD PUSH1 0x5 DUP4 MSTORE DUP2 DUP5 KECCAK256 CALLER DUP1 DUP7 MSTORE SWAP1 DUP5 MSTORE SWAP4 DUP3 SWAP1 KECCAK256 SSTORE MLOAD CALLVALUE DUP2 MSTORE SWAP2 SWAP3 SWAP2 PUSH32 0xE54EFF26401BF69B81B26F60BD85EF47F5D85275C1D268D84F68D6897431C47 SWAP2 SWAP1 LOG3 STOP JUMPDEST PUSH4 0x4E487B71 PUSH1 0xE0 SHL PUSH0 MSTORE PUSH0 PUSH1 0x4 MSTORE PUSH1 0x24 PUSH0 REVERT JUMPDEST PUSH4 0x4E487B71 PUSH1 0xE0 SHL PUSH0 MSTORE PUSH1 0x41 PUSH1 0x4 MSTORE PUSH1 0x24 PUSH0 REVERT JUMPDEST DUP2 PUSH0 MSTORE PUSH1 0x4 PUSH1 0x20 MSTORE PUSH1 0x40 PUSH0 KECCAK256 PUSH0 NOT DUP3 ADD SWAP2 DUP3 GT PUSH2 0x614 JUMPI PUSH0 DUP1 DUP4 PUSH1 0x3 PUSH2 0x1EA3 PUSH1 0x1 PUSH2 0x1E8E DUP6 SWAP9 DUP7 SWAP9 PUSH2 0x45D5 JUMP JUMPDEST POP ADD SLOAD SWAP3 DUP9 DUP6 MSTORE PUSH1 0x4 PUSH1 0x20 MSTORE PUSH1 0x40 DUP6 KECCAK256 PUSH2 0x45D5 JUMP JUMPDEST POP ADD DUP1 SLOAD PUSH1 0xFF NOT AND SWAP1 SSTORE DUP2 DUP2 ISZERO PUSH2 0x1EC3 JUMPI JUMPDEST CALLER SWAP1 CALL ISZERO PUSH2 0x5B2 JUMPI DUP2 PUSH2 0x1D3B JUMP JUMPDEST POP PUSH2 0x8FC PUSH2 0x1EB5 JUMP JUMPDEST POP DUP2 PUSH0 MSTORE PUSH1 0x4 PUSH1 0x20 MSTORE PUSH1 0x40 PUSH0 KECCAK256 PUSH0 NOT DUP3 ADD DUP3 DUP2 GT PUSH2 0x614 JUMPI PUSH2 0x1EF2 PUSH1 0x3 SWAP2 PUSH1 0xFF SWAP4 PUSH2 0x45D5 JUMP JUMPDEST POP ADD SLOAD AND PUSH2 0x1D36 JUMP JUMPDEST PUSH1 0x40 MLOAD PUSH3 0x461BCD PUSH1 0xE5 SHL DUP2 MSTORE PUSH1 0x20 PUSH1 0x4 DUP3 ADD MSTORE PUSH1 0x16 PUSH1 0x24 DUP3 ADD MSTORE PUSH22 0x10D85B9B9BDD08189A59081BDB881BDDDB881B185B99 PUSH1 0x52 SHL PUSH1 0x44 DUP3 ADD MSTORE PUSH1 0x64 SWAP1 REVERT JUMPDEST PUSH1 0x40 MLOAD PUSH3 0x461BCD PUSH1 0xE5 SHL DUP2 MSTORE PUSH1 0x20 PUSH1 0x4 DUP3 ADD MSTORE PUSH1 0x1D PUSH1 0x24 DUP3 ADD MSTORE PUSH32 0x426964206D7573742062652067726561746572207468616E207A65726F000000 PUSH1 0x44 DUP3 ADD MSTORE PUSH1 0x64 SWAP1 REVERT JUMPDEST POP PUSH1 0xB SLOAD DUP2 GT ISZERO PUSH2 0x1CE8 JUMP JUMPDEST CALLVALUE PUSH2 0x346 JUMPI PUSH1 0x20 CALLDATASIZE PUSH1 0x3 NOT ADD SLT PUSH2 0x346 JUMPI PUSH1 0x4 CALLDATALOAD DUP1 ISZERO ISZERO DUP1 PUSH2 0x20C6 JUMPI JUMPDEST PUSH2 0x1FB0 SWAP1 PUSH2 0x45EE JUMP JUMPDEST DUP1 PUSH0 MSTORE PUSH0 PUSH1 0x20 MSTORE PUSH2 0x1FD1 PUSH1 0x1 DUP1 PUSH1 0xA0 SHL SUB PUSH1 0x1 PUSH1 0x40 PUSH0 KECCAK256 ADD SLOAD AND CALLER EQ PUSH2 0x462C JUMP JUMPDEST PUSH0 DUP2 DUP2 MSTORE PUSH1 0x20 DUP2 SWAP1 MSTORE PUSH1 0x40 SWAP1 KECCAK256 PUSH1 0xD DUP2 ADD DUP1 SLOAD PUSH1 0x1 PUSH1 0x1 PUSH1 0xA0 SHL SUB AND SWAP3 SWAP2 DUP4 ISZERO PUSH2 0x208C JUMPI PUSH1 0xF DUP2 ADD SWAP1 DUP2 SLOAD TIMESTAMP LT PUSH2 0x2047 JUMPI PUSH0 PUSH1 0xC SWAP3 DUP2 SWAP5 PUSH1 0x1 PUSH1 0x1 PUSH1 0x60 SHL SUB PUSH1 0xA0 SHL DUP2 SLOAD AND SWAP1 SSTORE DUP2 PUSH1 0xE DUP5 ADD SSTORE SSTORE ADD SSTORE PUSH32 0x56B5C19DB471102362FA03335AA6D41BC46678FD6C0AD439669DD70A55380581 PUSH0 DUP1 LOG3 STOP JUMPDEST PUSH1 0x40 MLOAD PUSH3 0x461BCD PUSH1 0xE5 SHL DUP2 MSTORE PUSH1 0x20 PUSH1 0x4 DUP3 ADD MSTORE PUSH1 0x17 PUSH1 0x24 DUP3 ADD MSTORE PUSH32 0x52656E74616C20706572696F64206E6F7420656E646564000000000000000000 PUSH1 0x44 DUP3 ADD MSTORE PUSH1 0x64 SWAP1 REVERT JUMPDEST PUSH1 0x40 MLOAD PUSH3 0x461BCD PUSH1 0xE5 SHL DUP2 MSTORE PUSH1 0x20 PUSH1 0x4 DUP3 ADD MSTORE PUSH1 0x12 PUSH1 0x24 DUP3 ADD MSTORE PUSH18 0x13185B99081A5CC81B9BDD081C995B9D1959 PUSH1 0x72 SHL PUSH1 0x44 DUP3 ADD MSTORE PUSH1 0x64 SWAP1 REVERT JUMPDEST POP PUSH1 0xB SLOAD DUP2 GT ISZERO PUSH2 0x1FA7 JUMP JUMPDEST CALLVALUE PUSH2 0x346 JUMPI PUSH1 0x20 CALLDATASIZE PUSH1 0x3 NOT ADD SLT PUSH2 0x346 JUMPI PUSH1 0x4 CALLDATALOAD DUP1 ISZERO ISZERO DUP1 PUSH2 0x21E3 JUMPI JUMPDEST PUSH2 0x20F8 SWAP1 PUSH2 0x45EE JUMP JUMPDEST PUSH0 DUP2 DUP2 MSTORE PUSH1 0x5 PUSH1 0x20 SWAP1 DUP2 MSTORE PUSH1 0x40 DUP1 DUP4 KECCAK256 CALLER DUP5 MSTORE SWAP1 SWAP2 MSTORE SWAP1 KECCAK256 SLOAD DUP1 ISZERO PUSH2 0x219E JUMPI DUP2 PUSH0 MSTORE PUSH1 0x4 PUSH1 0x20 MSTORE PUSH1 0x40 PUSH0 KECCAK256 SWAP1 PUSH0 NOT DUP2 ADD SWAP1 DUP2 GT PUSH2 0x614 JUMPI PUSH0 DUP1 PUSH2 0x213E DUP2 SWAP5 SWAP4 DUP3 SWAP5 PUSH2 0x45D5 JUMP JUMPDEST POP PUSH1 0x3 DUP2 ADD PUSH1 0x1 DUP2 SLOAD SWAP3 PUSH2 0x2154 PUSH1 0xFF DUP6 AND PUSH2 0x46DC JUMP JUMPDEST ADD SLOAD SWAP2 PUSH1 0xFF NOT AND SWAP1 SSTORE DUP2 DUP2 ISZERO PUSH2 0x2195 JUMPI JUMPDEST CALLER SWAP1 CALL ISZERO PUSH2 0x5B2 JUMPI CALLER SWAP1 PUSH32 0x529D3BDFF5DE00724E674A22C5CC88AECA2E6496BF02E3369A4E43A7171BE052 PUSH0 DUP1 LOG3 STOP JUMPDEST POP PUSH2 0x8FC PUSH2 0x2165 JUMP JUMPDEST PUSH1 0x40 MLOAD PUSH3 0x461BCD PUSH1 0xE5 SHL DUP2 MSTORE PUSH1 0x20 PUSH1 0x4 DUP3 ADD MSTORE PUSH1 0x18 PUSH1 0x24 DUP3 ADD MSTORE PUSH32 0x4E6F206269642066726F6D20796F757220616464726573730000000000000000 PUSH1 0x44 DUP3 ADD MSTORE PUSH1 0x64 SWAP1 REVERT JUMPDEST POP PUSH1 0xB SLOAD DUP2 GT ISZERO PUSH2 0x20EF JUMP JUMPDEST CALLVALUE PUSH2 0x346 JUMPI PUSH1 0x20 CALLDATASIZE PUSH1 0x3 NOT ADD SLT PUSH2 0x346 JUMPI PUSH1 0x4 CALLDATALOAD PUSH2 0x2218 PUSH1 0x1 DUP1 PUSH1 0xA0 SHL SUB PUSH1 0xD SLOAD AND CALLER EQ PUSH2 0x4929 JUMP JUMPDEST DUP1 ISZERO ISZERO DUP1 PUSH2 0x22C0 JUMPI JUMPDEST PUSH2 0x222A SWAP1 PUSH2 0x4989 JUMP JUMPDEST PUSH0 MSTORE PUSH1 0x6 PUSH1 0x20 MSTORE PUSH1 0x40 PUSH0 KECCAK256 PUSH1 0x7 DUP2 ADD PUSH1 0xFF DUP2 SLOAD AND PUSH1 0x3 DUP2 LT ISZERO PUSH2 0x855 JUMPI PUSH2 0x2251 SWAP1 ISZERO PUSH2 0x49CA JUMP JUMPDEST DUP1 SLOAD PUSH2 0xFFFF NOT AND PUSH2 0x102 OR SWAP1 SSTORE DUP1 SLOAD PUSH0 SWAP1 DUP2 MSTORE PUSH1 0x20 DUP2 SWAP1 MSTORE PUSH1 0x40 DUP1 DUP3 KECCAK256 PUSH1 0x5 ADD DUP1 SLOAD PUSH1 0xFF NOT AND SWAP1 SSTORE DUP3 SLOAD DUP3 MSTORE DUP2 KECCAK256 PUSH1 0x4 SWAP1 DUP2 ADD SWAP2 SWAP1 SWAP2 SSTORE DUP2 ADD SLOAD PUSH1 0x1 PUSH1 0x1 PUSH1 0xA0 SHL SUB AND SWAP1 DUP2 PUSH2 0x229C JUMPI STOP JUMPDEST PUSH0 DUP1 DUP1 SWAP4 PUSH1 0x3 DUP3 SWAP5 ADD SLOAD SWAP1 DUP3 DUP3 ISZERO PUSH2 0x22B7 JUMPI JUMPDEST CALL ISZERO PUSH2 0x5B2 JUMPI STOP JUMPDEST POP PUSH2 0x8FC PUSH2 0x22AF JUMP JUMPDEST POP PUSH1 0x7 SLOAD DUP2 GT ISZERO PUSH2 0x2221 JUMP JUMPDEST CALLVALUE PUSH2 0x346 JUMPI PUSH0 CALLDATASIZE PUSH1 0x3 NOT ADD SLT PUSH2 0x346 JUMPI PUSH1 0x20 PUSH1 0xB SLOAD PUSH1 0x40 MLOAD SWAP1 DUP2 MSTORE RETURN JUMPDEST CALLVALUE PUSH2 0x346 JUMPI PUSH0 CALLDATASIZE PUSH1 0x3 NOT ADD SLT PUSH2 0x346 JUMPI PUSH1 0x20 PUSH1 0x8 SLOAD PUSH1 0x40 MLOAD SWAP1 DUP2 MSTORE RETURN JUMPDEST CALLVALUE PUSH2 0x346 JUMPI PUSH1 0x40 CALLDATASIZE PUSH1 0x3 NOT ADD SLT PUSH2 0x346 JUMPI PUSH1 0x4 CALLDATALOAD PUSH1 0x24 CALLDATALOAD DUP1 ISZERO ISZERO DUP2 SUB PUSH2 0x346 JUMPI DUP2 PUSH2 0x237B SWAP3 ISZERO ISZERO DUP1 PUSH2 0x237D JUMPI JUMPDEST PUSH2 0x233C SWAP1 PUSH2 0x45EE JUMP JUMPDEST DUP1 PUSH0 MSTORE PUSH0 PUSH1 0x20 MSTORE PUSH2 0x235D PUSH1 0x1 DUP1 PUSH1 0xA0 SHL SUB PUSH1 0x1 PUSH1 0x40 PUSH0 KECCAK256 ADD SLOAD AND CALLER EQ PUSH2 0x462C JUMP JUMPDEST PUSH0 MSTORE PUSH0 PUSH1 0x20 MSTORE PUSH1 0x10 PUSH1 0x40 PUSH0 KECCAK256 ADD SWAP1 PUSH1 0xFF DUP1 NOT DUP4 SLOAD AND SWAP2 ISZERO ISZERO AND OR SWAP1 SSTORE JUMP JUMPDEST STOP JUMPDEST POP PUSH1 0xB SLOAD DUP2 GT ISZERO PUSH2 0x2333 JUMP JUMPDEST PUSH1 0x20 CALLDATASIZE PUSH1 0x3 NOT ADD SLT PUSH2 0x346 JUMPI PUSH1 0x4 CALLDATALOAD DUP1 ISZERO ISZERO DUP1 PUSH2 0x2666 JUMPI JUMPDEST PUSH2 0x23AA SWAP1 PUSH2 0x45EE JUMP JUMPDEST DUP1 PUSH0 MSTORE PUSH0 PUSH1 0x20 MSTORE PUSH1 0x40 PUSH0 KECCAK256 PUSH1 0x5 DUP2 ADD SWAP2 PUSH1 0xFF DUP4 SLOAD AND ISZERO PUSH2 0x262A JUMPI PUSH1 0x4 DUP3 ADD DUP1 SLOAD SWAP4 DUP5 CALLVALUE LT PUSH2 0x25EE JUMPI PUSH1 0x1 DUP5 ADD DUP1 SLOAD PUSH1 0x1 PUSH1 0x1 PUSH1 0xA0 SHL SUB AND SWAP5 SWAP1 SWAP2 SWAP1 CALLER DUP7 EQ PUSH2 0x25A9 JUMPI DUP7 SWAP4 PUSH1 0x10 DUP3 ADD SWAP3 PUSH1 0xFF DUP5 SLOAD AND PUSH2 0x252B JUMPI JUMPDEST SWAP4 PUSH0 SWAP5 SWAP4 PUSH2 0x245A DUP7 SWAP6 SWAP5 DUP7 DUP1 SWAP7 SWAP6 DUP2 SWAP7 PUSH2 0x2427 PUSH1 0x64 PUSH2 0x241F DUP15 PUSH1 0x8 SLOAD SWAP1 PUSH2 0x471C JUMP JUMPDEST DIV DUP1 SWAP14 PUSH2 0x46CF JUMP JUMPDEST DUP8 SLOAD PUSH1 0x1 PUSH1 0x1 PUSH1 0xA0 SHL SUB NOT AND CALLER SWAP1 DUP2 OR SWAP1 SWAP9 SSTORE DUP2 SLOAD PUSH1 0xFF NOT AND SWAP1 SWAP2 SSTORE SWAP2 SWAP1 SSTORE SWAP4 PUSH1 0xA SWAP1 PUSH2 0x2453 SWAP1 PUSH2 0x4CFB JUMP JUMPDEST SWAP2 ADD PUSH2 0x483D JUMP JUMPDEST PUSH1 0xFF NOT DUP2 SLOAD AND SWAP1 SSTORE CALLER DUP3 MSTORE PUSH1 0x3 PUSH1 0x20 MSTORE PUSH2 0x2477 DUP8 PUSH1 0x40 DUP5 KECCAK256 PUSH2 0x486A JUMP JUMPDEST PUSH2 0x2481 DUP8 DUP10 PUSH2 0x4E14 JUMP JUMPDEST DUP8 DUP3 DUP3 ISZERO PUSH2 0x2522 JUMPI JUMPDEST CALL ISZERO PUSH2 0x5B2 JUMPI PUSH1 0xA SLOAD PUSH0 SWAP2 DUP3 SWAP2 DUP3 SWAP2 DUP3 SWAP2 PUSH1 0x1 PUSH1 0x1 PUSH1 0xA0 SHL SUB AND DUP3 DUP3 ISZERO PUSH2 0x2519 JUMPI JUMPDEST CALL ISZERO PUSH2 0x5B2 JUMPI DUP3 CALLVALUE GT PUSH2 0x24E8 JUMPI JUMPDEST PUSH1 0x40 MLOAD SWAP3 DUP4 MSTORE PUSH32 0x807451718126BB3EA1827B4F2DCD9BABF574BCA415F9F210235F670D7C6E2030 PUSH1 0x20 CALLER SWAP5 LOG4 STOP JUMPDEST PUSH0 DUP1 DUP1 DUP1 PUSH2 0x24F6 DUP8 CALLVALUE PUSH2 0x46CF JUMP JUMPDEST DUP2 DUP2 ISZERO PUSH2 0x2510 JUMPI JUMPDEST CALLER SWAP1 CALL PUSH2 0x24BA JUMPI PUSH1 0x40 MLOAD RETURNDATASIZE PUSH0 DUP3 RETURNDATACOPY RETURNDATASIZE SWAP1 REVERT JUMPDEST POP PUSH2 0x8FC PUSH2 0x24FE JUMP JUMPDEST POP PUSH2 0x8FC PUSH2 0x24AC JUMP JUMPDEST POP PUSH2 0x8FC PUSH2 0x248A JUMP JUMPDEST CALLER PUSH0 SWAP1 DUP2 MSTORE PUSH1 0x11 DUP5 ADD PUSH1 0x20 MSTORE PUSH1 0x40 SWAP1 KECCAK256 SLOAD SWAP5 SWAP6 POP SWAP3 SWAP4 SWAP1 SWAP3 SWAP1 PUSH1 0xFF AND ISZERO PUSH2 0x2556 JUMPI SWAP2 DUP8 SWAP5 SWAP4 SWAP3 PUSH2 0x23FD JUMP JUMPDEST PUSH1 0x40 MLOAD PUSH3 0x461BCD PUSH1 0xE5 SHL DUP2 MSTORE PUSH1 0x20 PUSH1 0x4 DUP3 ADD MSTORE PUSH1 0x25 PUSH1 0x24 DUP3 ADD MSTORE PUSH32 0x596F7520617265206E6F742077686974656C697374656420666F722074686973 PUSH1 0x44 DUP3 ADD MSTORE PUSH5 0x81B185B99 PUSH1 0xDA SHL PUSH1 0x64 DUP3 ADD MSTORE PUSH1 0x84 SWAP1 REVERT JUMPDEST PUSH1 0x40 MLOAD PUSH3 0x461BCD PUSH1 0xE5 SHL DUP2 MSTORE PUSH1 0x20 PUSH1 0x4 DUP3 ADD MSTORE PUSH1 0x19 PUSH1 0x24 DUP3 ADD MSTORE PUSH32 0x596F7520616C7265616479206F776E2074686973206C616E6400000000000000 PUSH1 0x44 DUP3 ADD MSTORE PUSH1 0x64 SWAP1 REVERT JUMPDEST PUSH1 0x40 MLOAD PUSH3 0x461BCD PUSH1 0xE5 SHL DUP2 MSTORE PUSH1 0x20 PUSH1 0x4 DUP3 ADD MSTORE PUSH1 0x14 PUSH1 0x24 DUP3 ADD MSTORE PUSH20 0x125B9CDD59999A58DA595B9D081C185E5B595B9D PUSH1 0x62 SHL PUSH1 0x44 DUP3 ADD MSTORE PUSH1 0x64 SWAP1 REVERT JUMPDEST PUSH1 0x40 MLOAD PUSH3 0x461BCD PUSH1 0xE5 SHL DUP2 MSTORE PUSH1 0x20 PUSH1 0x4 DUP3 ADD MSTORE PUSH1 0x14 PUSH1 0x24 DUP3 ADD MSTORE PUSH20 0x4C616E64206973206E6F7420666F722073616C65 PUSH1 0x60 SHL PUSH1 0x44 DUP3 ADD MSTORE PUSH1 0x64 SWAP1 REVERT JUMPDEST POP PUSH1 0xB SLOAD DUP2 GT ISZERO PUSH2 0x23A1 JUMP JUMPDEST CALLVALUE PUSH2 0x346 JUMPI PUSH1 0x40 CALLDATASIZE PUSH1 0x3 NOT ADD SLT PUSH2 0x346 JUMPI PUSH1 0x4 CALLDATALOAD PUSH2 0x268E PUSH2 0x4290 JUMP JUMPDEST SWAP1 DUP1 ISZERO ISZERO DUP1 PUSH2 0x26D0 JUMPI JUMPDEST PUSH2 0x26A1 SWAP1 PUSH2 0x45EE JUMP JUMPDEST PUSH0 MSTORE PUSH0 PUSH1 0x20 MSTORE PUSH1 0x11 PUSH1 0x40 PUSH0 KECCAK256 ADD SWAP1 PUSH1 0x1 DUP1 PUSH1 0xA0 SHL SUB AND PUSH0 MSTORE PUSH1 0x20 MSTORE PUSH1 0x20 PUSH1 0xFF PUSH1 0x40 PUSH0 KECCAK256 SLOAD AND PUSH1 0x40 MLOAD SWAP1 ISZERO ISZERO DUP2 MSTORE RETURN JUMPDEST POP PUSH1 0xB SLOAD DUP2 GT ISZERO PUSH2 0x2698 JUMP JUMPDEST CALLVALUE PUSH2 0x346 JUMPI PUSH1 0x40 CALLDATASIZE PUSH1 0x3 NOT ADD SLT PUSH2 0x346 JUMPI PUSH1 0x4 CALLDATALOAD PUSH1 0x1 PUSH1 0x1 PUSH1 0x40 SHL SUB DUP2 GT PUSH2 0x346 JUMPI PUSH2 0x270C SWAP1 CALLDATASIZE SWAP1 PUSH1 0x4 ADD PUSH2 0x4347 JUMP JUMPDEST PUSH1 0x24 CALLDATALOAD PUSH2 0x271A PUSH1 0xB SLOAD PUSH2 0x491B JUMP JUMPDEST PUSH1 0xB DUP2 SWAP1 SSTORE PUSH2 0x2727 PUSH2 0x4A92 JUMP JUMPDEST PUSH2 0x2730 CALLER PUSH2 0x4CFB JUMP JUMPDEST PUSH2 0x2739 DUP3 PUSH2 0x48FA JUMP JUMPDEST MSTORE PUSH2 0x2743 DUP2 PUSH2 0x48FA JUMP JUMPDEST POP PUSH0 DUP3 DUP2 MSTORE PUSH1 0x20 DUP2 SWAP1 MSTORE PUSH1 0x40 SWAP1 KECCAK256 SWAP2 DUP3 SSTORE PUSH1 0x1 DUP3 ADD DUP1 SLOAD PUSH1 0x1 PUSH1 0x1 PUSH1 0xA0 SHL SUB NOT AND CALLER OR SWAP1 SSTORE PUSH2 0x2775 DUP5 PUSH1 0x2 DUP5 ADD PUSH2 0x4745 JUMP JUMPDEST PUSH1 0x3 DUP3 ADD DUP4 SWAP1 SSTORE PUSH0 PUSH1 0x4 DUP4 ADD DUP2 SWAP1 SSTORE PUSH1 0x5 DUP4 ADD DUP1 SLOAD PUSH3 0xFFFFFF NOT AND DUP2 SSTORE PUSH2 0x279C SWAP2 SWAP1 PUSH2 0x4B0C JUMP JUMPDEST PUSH1 0xA PUSH1 0x6 DUP4 ADD DUP2 SWAP1 SSTORE PUSH1 0x7 DUP4 ADD DUP1 SLOAD PUSH3 0xFFFFFF NOT AND SWAP1 SSTORE PUSH0 PUSH1 0x8 DUP5 ADD SSTORE TIMESTAMP PUSH1 0x9 DUP5 ADD SSTORE DUP2 MLOAD SWAP2 SWAP1 DUP4 ADD SWAP1 PUSH1 0x20 SWAP1 PUSH2 0x27D3 DUP5 DUP5 PUSH2 0x4B7D JUMP JUMPDEST ADD SWAP1 PUSH0 MSTORE PUSH1 0x20 PUSH0 KECCAK256 PUSH0 SWAP2 JUMPDEST DUP4 DUP4 LT PUSH2 0x289D JUMPI DUP7 DUP7 PUSH1 0x10 DUP8 PUSH1 0xB DUP2 ADD PUSH1 0xFF NOT DUP2 SLOAD AND SWAP1 SSTORE PUSH0 PUSH1 0xC DUP3 ADD SSTORE PUSH1 0xD DUP2 ADD PUSH1 0x1 PUSH1 0x1 PUSH1 0x60 SHL SUB PUSH1 0xA0 SHL DUP2 SLOAD AND SWAP1 SSTORE TIMESTAMP PUSH1 0x12 DUP3 ADD SSTORE PUSH0 PUSH1 0x13 DUP3 ADD SSTORE ADD PUSH1 0xFF NOT DUP2 SLOAD AND SWAP1 SSTORE CALLER PUSH0 MSTORE PUSH1 0x3 PUSH1 0x20 MSTORE PUSH2 0x283D PUSH1 0x40 PUSH0 KECCAK256 PUSH1 0xB SLOAD SWAP1 PUSH2 0x486A JUMP JUMPDEST PUSH1 0xB SLOAD SWAP1 PUSH2 0x2856 PUSH1 0x40 MLOAD SWAP4 PUSH1 0x80 DUP6 MSTORE PUSH1 0x80 DUP6 ADD SWAP1 PUSH2 0x44E8 JUMP JUMPDEST PUSH1 0x20 DUP5 ADD SWAP2 SWAP1 SWAP2 MSTORE PUSH0 PUSH1 0x40 DUP5 ADD MSTORE DUP2 PUSH32 0xF147BDD7A176CB89CC4796F2DA2C02A6C13F3A7FBE89CD8F01C0F912F962B200 DUP5 PUSH0 PUSH1 0x60 PUSH1 0x20 SWAP8 ADD MSTORE DUP1 CALLER SWAP5 SUB SWAP1 LOG3 PUSH1 0x40 MLOAD SWAP1 DUP2 MSTORE RETURN JUMPDEST PUSH1 0x1 PUSH1 0x20 DUP3 PUSH2 0x28AE DUP4 SWAP5 MLOAD DUP7 PUSH2 0x4745 JUMP JUMPDEST ADD SWAP3 ADD SWAP3 ADD SWAP2 SWAP1 PUSH2 0x27DE JUMP JUMPDEST CALLVALUE PUSH2 0x346 JUMPI PUSH1 0x20 CALLDATASIZE PUSH1 0x3 NOT ADD SLT PUSH2 0x346 JUMPI PUSH1 0x4 CALLDATALOAD DUP1 ISZERO ISZERO DUP1 PUSH2 0x2922 JUMPI JUMPDEST PUSH2 0x28E0 SWAP1 PUSH2 0x45EE JUMP JUMPDEST PUSH0 MSTORE PUSH0 PUSH1 0x20 MSTORE PUSH1 0x80 PUSH1 0x40 PUSH0 KECCAK256 PUSH1 0x6 PUSH1 0x7 DUP3 ADD SLOAD SWAP2 ADD SLOAD PUSH1 0xFF PUSH1 0x40 MLOAD SWAP3 DUP2 DUP2 AND ISZERO ISZERO DUP5 MSTORE DUP2 DUP2 PUSH1 0x8 SHR AND ISZERO ISZERO PUSH1 0x20 DUP6 ADD MSTORE PUSH1 0x10 SHR AND ISZERO ISZERO PUSH1 0x40 DUP4 ADD MSTORE PUSH1 0x60 DUP3 ADD MSTORE RETURN JUMPDEST POP PUSH1 0xB SLOAD DUP2 GT ISZERO PUSH2 0x28D7 JUMP JUMPDEST CALLVALUE PUSH2 0x346 JUMPI PUSH1 0x20 CALLDATASIZE PUSH1 0x3 NOT ADD SLT PUSH2 0x346 JUMPI PUSH1 0x4 CALLDATALOAD PUSH0 MSTORE PUSH1 0x6 PUSH1 0x20 MSTORE PUSH1 0x40 PUSH0 KECCAK256 DUP1 SLOAD SWAP1 PUSH2 0x851 PUSH1 0x1 DUP1 PUSH1 0xA0 SHL SUB PUSH1 0x1 DUP4 ADD SLOAD AND SWAP2 PUSH1 0x2 DUP2 ADD SLOAD SWAP4 PUSH1 0x3 DUP3 ADD SLOAD SWAP2 PUSH1 0x1 DUP1 PUSH1 0xA0 SHL SUB PUSH1 0x4 DUP3 ADD SLOAD AND PUSH1 0x5 DUP3 ADD SLOAD SWAP1 PUSH1 0x7 PUSH1 0x6 DUP5 ADD SLOAD SWAP4 ADD SLOAD SWAP5 PUSH1 0x40 MLOAD SWAP9 DUP10 SWAP9 PUSH1 0xFF DUP1 DUP10 PUSH1 0x8 SHR AND SWAP9 AND SWAP7 DUP11 PUSH2 0x453D JUMP JUMPDEST CALLVALUE PUSH2 0x346 JUMPI PUSH1 0x20 CALLDATASIZE PUSH1 0x3 NOT ADD SLT PUSH2 0x346 JUMPI PUSH1 0x4 CALLDATALOAD DUP1 ISZERO ISZERO DUP1 PUSH2 0x2A96 JUMPI JUMPDEST PUSH2 0x29C8 SWAP1 PUSH2 0x45EE JUMP JUMPDEST PUSH0 SWAP1 DUP2 MSTORE PUSH1 0x20 DUP2 SWAP1 MSTORE PUSH1 0x40 SWAP1 KECCAK256 PUSH1 0x9 DUP2 ADD SLOAD PUSH1 0xA SWAP1 SWAP2 ADD DUP1 SLOAD SWAP1 PUSH2 0x29EB DUP3 PUSH2 0x439C JUMP JUMPDEST SWAP2 PUSH2 0x29F9 PUSH1 0x40 MLOAD SWAP4 DUP5 PUSH2 0x4326 JUMP JUMPDEST DUP1 DUP4 MSTORE PUSH1 0x20 DUP4 ADD DUP1 SWAP3 PUSH0 MSTORE PUSH1 0x20 PUSH0 KECCAK256 PUSH0 SWAP2 JUMPDEST DUP4 DUP4 LT PUSH2 0x2A79 JUMPI POP POP POP POP PUSH1 0x40 MLOAD SWAP2 PUSH1 0x40 DUP4 ADD SWAP1 PUSH1 0x40 DUP5 MSTORE MLOAD DUP1 SWAP2 MSTORE PUSH1 0x60 DUP4 ADD SWAP1 PUSH1 0x60 DUP2 PUSH1 0x5 SHL DUP6 ADD ADD SWAP3 SWAP2 PUSH0 SWAP1 JUMPDEST DUP3 DUP3 LT PUSH2 0x2A4E JUMPI DUP6 DUP1 DUP7 DUP10 PUSH1 0x20 DUP4 ADD MSTORE SUB SWAP1 RETURN JUMPDEST SWAP1 SWAP2 SWAP3 SWAP4 PUSH1 0x20 DUP1 PUSH2 0x2A6B PUSH1 0x1 SWAP4 PUSH1 0x5F NOT DUP11 DUP3 SUB ADD DUP7 MSTORE DUP9 MLOAD PUSH2 0x44E8 JUMP JUMPDEST SWAP7 ADD SWAP3 ADD SWAP3 ADD SWAP1 SWAP3 SWAP2 PUSH2 0x2A3A JUMP JUMPDEST PUSH1 0x1 PUSH1 0x20 DUP2 SWAP3 PUSH2 0x2A88 DUP6 PUSH2 0x4448 JUMP JUMPDEST DUP2 MSTORE ADD SWAP3 ADD SWAP3 ADD SWAP2 SWAP1 PUSH2 0x2A0B JUMP JUMPDEST POP PUSH1 0xB SLOAD DUP2 GT ISZERO PUSH2 0x29BF JUMP JUMPDEST CALLVALUE PUSH2 0x346 JUMPI PUSH2 0x100 CALLDATASIZE PUSH1 0x3 NOT ADD SLT PUSH2 0x346 JUMPI PUSH1 0x4 CALLDATALOAD PUSH1 0x1 PUSH1 0x1 PUSH1 0x40 SHL SUB DUP2 GT PUSH2 0x346 JUMPI PUSH2 0x2AD3 SWAP1 CALLDATASIZE SWAP1 PUSH1 0x4 ADD PUSH2 0x4347 JUMP JUMPDEST PUSH1 0x44 CALLDATALOAD PUSH1 0x24 CALLDATALOAD PUSH1 0x5 DUP3 LT ISZERO PUSH2 0x346 JUMPI PUSH1 0x64 CALLDATALOAD SWAP2 PUSH1 0x5 DUP4 LT ISZERO PUSH2 0x346 JUMPI PUSH1 0x84 CALLDATALOAD PUSH1 0x6 DUP2 LT ISZERO PUSH2 0x346 JUMPI PUSH1 0xA4 CALLDATALOAD SWAP1 DUP2 ISZERO ISZERO DUP3 SUB PUSH2 0x346 JUMPI PUSH1 0xC4 CALLDATALOAD SWAP2 DUP3 ISZERO ISZERO DUP4 SUB PUSH2 0x346 JUMPI PUSH1 0xE4 CALLDATALOAD DUP1 ISZERO ISZERO DUP2 SUB PUSH2 0x346 JUMPI PUSH2 0x2B2C PUSH1 0xB SLOAD PUSH2 0x491B JUMP JUMPDEST SWAP4 DUP5 PUSH1 0xB SSTORE PUSH2 0x2B3A DUP9 PUSH2 0x450C JUMP JUMPDEST PUSH1 0x14 DUP9 MUL DUP9 DUP2 DIV PUSH1 0x14 EQ DUP10 ISZERO OR ISZERO PUSH2 0x614 JUMPI PUSH1 0xA DUP2 ADD DUP1 SWAP2 GT PUSH2 0x614 JUMPI PUSH2 0x2B5F PUSH2 0x4A92 JUMP JUMPDEST SWAP5 PUSH2 0x2B69 CALLER PUSH2 0x4CFB JUMP JUMPDEST PUSH2 0x2B72 DUP8 PUSH2 0x48FA JUMP JUMPDEST MSTORE PUSH2 0x2B7C DUP7 PUSH2 0x48FA JUMP JUMPDEST POP PUSH0 DUP8 DUP2 MSTORE PUSH1 0x20 DUP2 SWAP1 MSTORE PUSH1 0x40 SWAP1 KECCAK256 SWAP7 DUP8 SSTORE PUSH1 0x1 DUP8 ADD DUP1 SLOAD PUSH1 0x1 PUSH1 0x1 PUSH1 0xA0 SHL SUB NOT AND CALLER OR SWAP1 SSTORE PUSH2 0x2BAE DUP12 PUSH1 0x2 DUP10 ADD PUSH2 0x4745 JUMP JUMPDEST PUSH1 0x3 DUP8 ADD DUP10 SWAP1 SSTORE PUSH0 PUSH1 0x4 DUP9 ADD SSTORE PUSH1 0x5 DUP8 ADD DUP1 SLOAD PUSH1 0xFF NOT AND DUP2 SSTORE SWAP1 PUSH2 0x2BD2 DUP10 DUP4 PUSH2 0x4ACC JUMP JUMPDEST PUSH2 0x2BDC DUP12 DUP4 PUSH2 0x4AEB JUMP JUMPDEST PUSH2 0x2BE5 SWAP2 PUSH2 0x4B0C JUMP JUMPDEST PUSH1 0x6 DUP7 ADD SSTORE PUSH1 0x7 DUP6 ADD SWAP3 PUSH2 0x2C05 SWAP1 DUP5 SWAP1 PUSH1 0xFF DUP1 NOT DUP4 SLOAD AND SWAP2 ISZERO ISZERO AND OR SWAP1 SSTORE JUMP JUMPDEST DUP3 SLOAD PUSH2 0xFF00 NOT AND SWAP1 ISZERO ISZERO PUSH1 0x8 SHL PUSH2 0xFF00 AND OR DUP3 SSTORE DUP2 SLOAD PUSH3 0xFF0000 NOT AND SWAP1 ISZERO ISZERO PUSH1 0x10 SHL PUSH3 0xFF0000 AND OR SWAP1 SSTORE PUSH1 0x8 DUP3 ADD PUSH0 SWAP1 SSTORE TIMESTAMP PUSH1 0x9 DUP4 ADD SSTORE PUSH1 0xA DUP3 ADD DUP2 MLOAD SWAP2 PUSH2 0x2C4D DUP4 DUP4 PUSH2 0x4B7D JUMP JUMPDEST PUSH1 0x20 ADD SWAP1 PUSH0 MSTORE PUSH1 0x20 PUSH0 KECCAK256 PUSH0 SWAP2 JUMPDEST DUP4 DUP4 LT PUSH2 0x2D28 JUMPI POP POP POP POP PUSH1 0x20 SWAP5 PUSH1 0x10 DUP3 PUSH1 0xB PUSH32 0xF147BDD7A176CB89CC4796F2DA2C02A6C13F3A7FBE89CD8F01C0F912F962B200 SWAP5 ADD PUSH1 0xFF NOT DUP2 SLOAD AND SWAP1 SSTORE PUSH0 PUSH1 0xC DUP3 ADD SSTORE PUSH1 0xD DUP2 ADD PUSH1 0x1 PUSH1 0x1 PUSH1 0x60 SHL SUB PUSH1 0xA0 SHL DUP2 SLOAD AND SWAP1 SSTORE TIMESTAMP PUSH1 0x12 DUP3 ADD SSTORE PUSH0 PUSH1 0x13 DUP3 ADD SSTORE ADD PUSH1 0xFF NOT DUP2 SLOAD AND SWAP1 SSTORE CALLER PUSH0 MSTORE PUSH1 0x3 DUP7 MSTORE PUSH2 0x2CDE PUSH1 0x40 PUSH0 KECCAK256 PUSH1 0xB SLOAD SWAP1 PUSH2 0x486A JUMP JUMPDEST PUSH1 0xB SLOAD SWAP5 DUP6 SWAP4 PUSH2 0x2CF9 PUSH1 0x40 MLOAD SWAP4 PUSH1 0x80 DUP6 MSTORE PUSH1 0x80 DUP6 ADD SWAP1 PUSH2 0x44E8 JUMP JUMPDEST SWAP6 DUP9 DUP5 ADD MSTORE PUSH2 0x2D07 DUP2 PUSH2 0x450C JUMP JUMPDEST PUSH1 0x40 DUP4 ADD MSTORE PUSH2 0x2D15 DUP2 PUSH2 0x450C JUMP JUMPDEST PUSH1 0x60 DUP3 ADD MSTORE DUP1 CALLER SWAP5 SUB SWAP1 LOG3 PUSH1 0x40 MLOAD SWAP1 DUP2 MSTORE RETURN JUMPDEST PUSH1 0x1 PUSH1 0x20 DUP3 PUSH2 0x2D39 DUP4 SWAP5 MLOAD DUP7 PUSH2 0x4745 JUMP JUMPDEST ADD SWAP3 ADD SWAP3 ADD SWAP2 SWAP1 PUSH2 0x2C5A JUMP JUMPDEST CALLVALUE PUSH2 0x346 JUMPI PUSH1 0x60 CALLDATASIZE PUSH1 0x3 NOT ADD SLT PUSH2 0x346 JUMPI PUSH1 0x4 CALLDATALOAD PUSH2 0x2D61 PUSH2 0x4290 JUMP JUMPDEST SWAP1 PUSH1 0x44 CALLDATALOAD SWAP2 DUP3 ISZERO ISZERO SWAP3 DUP4 DUP2 SUB PUSH2 0x346 JUMPI PUSH32 0x6AC489D45EB8BF1A970353ADDE961BAF16A2AB4AF3D2A8F0CB488B0CD30AF856 SWAP2 PUSH2 0x2DFA PUSH1 0x20 SWAP3 DUP6 ISZERO ISZERO DUP1 PUSH2 0x2E0D JUMPI JUMPDEST PUSH2 0x2DAB SWAP1 PUSH2 0x45EE JUMP JUMPDEST DUP6 PUSH0 MSTORE PUSH0 DUP5 MSTORE PUSH2 0x2DCB PUSH1 0x1 DUP1 PUSH1 0xA0 SHL SUB PUSH1 0x1 PUSH1 0x40 PUSH0 KECCAK256 ADD SLOAD AND CALLER EQ PUSH2 0x462C JUMP JUMPDEST DUP6 PUSH0 MSTORE PUSH0 DUP5 MSTORE PUSH1 0x11 PUSH1 0x40 PUSH0 KECCAK256 ADD PUSH1 0x1 DUP1 PUSH1 0xA0 SHL SUB DUP5 AND PUSH0 MSTORE DUP5 MSTORE PUSH1 0x40 PUSH0 KECCAK256 SWAP1 PUSH1 0xFF DUP1 NOT DUP4 SLOAD AND SWAP2 ISZERO ISZERO AND OR SWAP1 SSTORE JUMP JUMPDEST PUSH1 0x40 MLOAD SWAP5 DUP6 MSTORE PUSH1 0x1 PUSH1 0x1 PUSH1 0xA0 SHL SUB AND SWAP4 LOG3 STOP JUMPDEST POP PUSH1 0xB SLOAD DUP7 GT ISZERO PUSH2 0x2DA2 JUMP JUMPDEST CALLVALUE PUSH2 0x346 JUMPI PUSH1 0x40 CALLDATASIZE PUSH1 0x3 NOT ADD SLT PUSH2 0x346 JUMPI PUSH1 0x4 CALLDATALOAD PUSH1 0x1 PUSH1 0x1 PUSH1 0x40 SHL SUB DUP2 GT PUSH2 0x346 JUMPI PUSH2 0x2E49 SWAP1 CALLDATASIZE SWAP1 PUSH1 0x4 ADD PUSH2 0x43B3 JUMP JUMPDEST PUSH1 0x24 CALLDATALOAD PUSH1 0x1 PUSH1 0x1 PUSH1 0x40 SHL SUB DUP2 GT PUSH2 0x346 JUMPI PUSH2 0x2E68 SWAP1 CALLDATASIZE SWAP1 PUSH1 0x4 ADD PUSH2 0x4347 JUMP JUMPDEST DUP2 MLOAD PUSH1 0x2 DUP2 LT ISZERO SWAP1 DUP2 PUSH2 0x3373 JUMPI JUMPDEST POP ISZERO PUSH2 0x3336 JUMPI PUSH0 SWAP2 DUP3 SWAP2 DUP3 SWAP2 DUP3 SWAP2 DUP3 DUP1 DUP1 JUMPDEST DUP5 MLOAD DUP7 LT ISZERO PUSH2 0x30DB JUMPI PUSH2 0x2E9B DUP7 DUP7 PUSH2 0x4907 JUMP JUMPDEST MLOAD PUSH0 MSTORE PUSH0 PUSH1 0x20 MSTORE CALLER PUSH1 0x1 DUP1 PUSH1 0xA0 SHL SUB PUSH1 0x1 PUSH1 0x40 PUSH0 KECCAK256 ADD SLOAD AND SUB PUSH2 0x30A1 JUMPI PUSH2 0x2EC2 DUP7 DUP7 PUSH2 0x4907 JUMP JUMPDEST MLOAD PUSH0 MSTORE PUSH0 PUSH1 0x20 MSTORE PUSH1 0xFF PUSH1 0x5 PUSH1 0x40 PUSH0 KECCAK256 ADD SLOAD AND PUSH2 0x305C JUMPI PUSH2 0x2EE2 DUP7 DUP7 PUSH2 0x4907 JUMP JUMPDEST MLOAD PUSH0 SWAP1 DUP2 MSTORE PUSH1 0x20 DUP2 SWAP1 MSTORE PUSH1 0x40 SWAP1 KECCAK256 PUSH1 0xD ADD SLOAD PUSH1 0x1 PUSH1 0x1 PUSH1 0xA0 SHL SUB AND PUSH2 0x3017 JUMPI PUSH2 0x2F27 PUSH2 0x2F47 SWAP2 PUSH2 0x2F12 DUP9 DUP9 PUSH2 0x4907 JUMP JUMPDEST MLOAD PUSH0 MSTORE PUSH0 PUSH1 0x20 MSTORE PUSH1 0x3 PUSH1 0x40 PUSH0 KECCAK256 ADD SLOAD SWAP1 PUSH2 0x48ED JUMP JUMPDEST SWAP7 PUSH2 0x2F32 DUP8 DUP8 PUSH2 0x4907 JUMP JUMPDEST MLOAD PUSH0 MSTORE PUSH0 PUSH1 0x20 MSTORE PUSH1 0x6 PUSH1 0x40 PUSH0 KECCAK256 ADD SLOAD SWAP1 PUSH2 0x48ED JUMP JUMPDEST SWAP5 PUSH2 0x2F52 DUP2 DUP7 PUSH2 0x4907 JUMP JUMPDEST MLOAD PUSH0 MSTORE PUSH0 PUSH1 0x20 MSTORE DUP9 PUSH1 0x8 PUSH1 0x40 PUSH0 KECCAK256 ADD SLOAD GT PUSH2 0x2FF6 JUMPI JUMPDEST PUSH2 0x2F72 DUP2 DUP7 PUSH2 0x4907 JUMP JUMPDEST MLOAD PUSH0 MSTORE PUSH0 PUSH1 0x20 MSTORE PUSH1 0xFF PUSH1 0x7 PUSH1 0x40 PUSH0 KECCAK256 ADD SLOAD AND PUSH2 0x2FED JUMPI JUMPDEST PUSH2 0x2F93 DUP2 DUP7 PUSH2 0x4907 JUMP JUMPDEST MLOAD PUSH0 MSTORE PUSH0 PUSH1 0x20 MSTORE PUSH1 0xFF PUSH1 0x7 PUSH1 0x40 PUSH0 KECCAK256 ADD SLOAD PUSH1 0x8 SHR AND PUSH2 0x2FE4 JUMPI JUMPDEST PUSH2 0x2FB7 DUP2 DUP7 PUSH2 0x4907 JUMP JUMPDEST MLOAD PUSH0 MSTORE PUSH0 PUSH1 0x20 MSTORE PUSH1 0xFF PUSH1 0x7 PUSH1 0x40 PUSH0 KECCAK256 ADD SLOAD PUSH1 0x10 SHR AND PUSH2 0x2FDB JUMPI JUMPDEST PUSH1 0x1 ADD SWAP5 SWAP6 PUSH2 0x2E88 JUMP JUMPDEST PUSH1 0x1 SWAP2 POP PUSH2 0x2FD1 JUMP JUMPDEST PUSH1 0x1 SWAP8 POP PUSH2 0x2FAD JUMP JUMPDEST PUSH1 0x1 SWAP3 POP PUSH2 0x2F89 JUMP JUMPDEST SWAP8 POP PUSH2 0x3002 DUP9 DUP6 PUSH2 0x4907 JUMP JUMPDEST MLOAD PUSH0 MSTORE PUSH0 PUSH1 0x20 MSTORE PUSH1 0x8 PUSH1 0x40 PUSH0 KECCAK256 ADD SLOAD SWAP8 PUSH2 0x2F68 JUMP JUMPDEST PUSH1 0x40 MLOAD PUSH3 0x461BCD PUSH1 0xE5 SHL DUP2 MSTORE PUSH1 0x20 PUSH1 0x4 DUP3 ADD MSTORE PUSH1 0x19 PUSH1 0x24 DUP3 ADD MSTORE PUSH32 0x43616E6E6F74206D657267652072656E746564206C616E647300000000000000 PUSH1 0x44 DUP3 ADD MSTORE PUSH1 0x64 SWAP1 REVERT JUMPDEST PUSH1 0x40 MLOAD PUSH3 0x461BCD PUSH1 0xE5 SHL DUP2 MSTORE PUSH1 0x20 PUSH1 0x4 DUP3 ADD MSTORE PUSH1 0x1B PUSH1 0x24 DUP3 ADD MSTORE PUSH32 0x43616E6E6F74206D65726765206C616E647320666F722073616C650000000000 PUSH1 0x44 DUP3 ADD MSTORE PUSH1 0x64 SWAP1 REVERT JUMPDEST PUSH1 0x40 MLOAD PUSH3 0x461BCD PUSH1 0xE5 SHL DUP2 MSTORE PUSH1 0x20 PUSH1 0x4 DUP3 ADD MSTORE PUSH1 0x12 PUSH1 0x24 DUP3 ADD MSTORE PUSH18 0x4D757374206F776E20616C6C206C616E6473 PUSH1 0x70 SHL PUSH1 0x44 DUP3 ADD MSTORE PUSH1 0x64 SWAP1 REVERT JUMPDEST SWAP3 SWAP2 DUP9 SWAP2 DUP9 DUP9 DUP8 MLOAD SWAP1 DUP2 ISZERO PUSH2 0x3322 JUMPI DIV PUSH1 0x1 DUP9 MLOAD PUSH1 0x5 DUP2 LT ISZERO PUSH2 0x3319 JUMPI JUMPDEST PUSH1 0x8 GT ISZERO PUSH2 0x3311 JUMPI JUMPDEST PUSH1 0xB SLOAD PUSH2 0x310E SWAP1 PUSH2 0x491B JUMP JUMPDEST SWAP8 DUP9 PUSH1 0xB SSTORE PUSH2 0x311B PUSH2 0x4A92 JUMP JUMPDEST SWAP8 PUSH2 0x3125 CALLER PUSH2 0x4CFB JUMP JUMPDEST PUSH2 0x312E DUP11 PUSH2 0x48FA JUMP JUMPDEST MSTORE PUSH2 0x3138 DUP10 PUSH2 0x48FA JUMP JUMPDEST POP PUSH0 DUP11 DUP2 MSTORE PUSH1 0x20 DUP2 SWAP1 MSTORE PUSH1 0x40 SWAP1 KECCAK256 SWAP10 DUP11 SSTORE PUSH1 0x1 DUP11 ADD DUP1 SLOAD PUSH1 0x1 PUSH1 0x1 PUSH1 0xA0 SHL SUB NOT AND CALLER OR SWAP1 SSTORE PUSH2 0x316A SWAP1 PUSH1 0x2 DUP12 ADD PUSH2 0x4745 JUMP JUMPDEST PUSH1 0x3 DUP10 ADD SSTORE PUSH2 0x3178 DUP10 PUSH2 0x48FA JUMP JUMPDEST MLOAD PUSH0 MSTORE PUSH0 PUSH1 0x20 MSTORE PUSH1 0x40 PUSH0 KECCAK256 PUSH1 0x5 ADD SLOAD PUSH1 0x8 SHR PUSH1 0xFF AND SWAP1 PUSH1 0x5 DUP10 ADD SWAP2 PUSH2 0x319D SWAP1 DUP4 PUSH2 0x4ACC JUMP JUMPDEST PUSH2 0x31A7 SWAP1 DUP3 PUSH2 0x4AEB JUMP JUMPDEST PUSH2 0x31B0 DUP10 PUSH2 0x48FA JUMP JUMPDEST MLOAD PUSH0 MSTORE PUSH0 PUSH1 0x20 MSTORE PUSH1 0x40 PUSH0 KECCAK256 PUSH1 0x5 ADD SLOAD PUSH1 0x18 SHR PUSH1 0xFF AND PUSH2 0x31CE SWAP2 PUSH2 0x4B0C JUMP JUMPDEST PUSH1 0x6 DUP8 ADD SSTORE PUSH1 0x7 DUP7 ADD SWAP3 PUSH2 0x31EE SWAP1 DUP5 SWAP1 PUSH1 0xFF DUP1 NOT DUP4 SLOAD AND SWAP2 ISZERO ISZERO AND OR SWAP1 SSTORE JUMP JUMPDEST DUP3 SLOAD PUSH2 0xFF00 NOT AND SWAP1 ISZERO ISZERO PUSH1 0x8 SHL PUSH2 0xFF00 AND OR DUP3 SSTORE DUP2 SLOAD PUSH3 0xFF0000 NOT AND SWAP1 ISZERO ISZERO PUSH1 0x10 SHL PUSH3 0xFF0000 AND OR SWAP1 SSTORE PUSH1 0x8 DUP4 ADD SSTORE TIMESTAMP PUSH1 0x9 DUP4 ADD SSTORE PUSH1 0xA DUP3 ADD DUP2 MLOAD SWAP2 PUSH2 0x3234 DUP4 DUP4 PUSH2 0x4B7D JUMP JUMPDEST PUSH1 0x20 ADD SWAP1 PUSH0 MSTORE PUSH1 0x20 PUSH0 KECCAK256 PUSH0 SWAP2 JUMPDEST DUP4 DUP4 LT PUSH2 0x32F4 JUMPI TIMESTAMP PUSH1 0x12 DUP7 ADD SSTORE DUP6 PUSH0 JUMPDEST DUP2 MLOAD DUP2 LT ISZERO PUSH2 0x3294 JUMPI DUP1 PUSH2 0x3267 PUSH1 0x1 SWAP3 DUP5 PUSH2 0x4907 JUMP JUMPDEST MLOAD PUSH0 MSTORE PUSH0 PUSH1 0x20 MSTORE PUSH2 0x327A PUSH1 0x40 PUSH0 KECCAK256 PUSH2 0x4BC4 JUMP JUMPDEST PUSH2 0x328E PUSH2 0x3287 DUP3 DUP6 PUSH2 0x4907 JUMP JUMPDEST MLOAD CALLER PUSH2 0x4E14 JUMP JUMPDEST ADD PUSH2 0x3251 JUMP JUMPDEST PUSH1 0x20 DUP3 CALLER PUSH0 MSTORE PUSH1 0x3 DUP3 MSTORE PUSH2 0x32AE PUSH1 0x40 PUSH0 KECCAK256 PUSH1 0xB SLOAD SWAP1 PUSH2 0x486A JUMP JUMPDEST PUSH1 0xB SLOAD SWAP1 DUP2 PUSH32 0xF1186830884D3646A4BD92D122316CC7DFAFA84F89C32D04C35020A82D01AA74 PUSH1 0x40 MLOAD DUP6 DUP2 MSTORE DUP1 PUSH2 0x32E9 CALLER SWAP6 DUP9 DUP4 ADD SWAP1 PUSH2 0x42BC JUMP JUMPDEST SUB SWAP1 LOG3 PUSH1 0x40 MLOAD SWAP1 DUP2 MSTORE RETURN JUMPDEST PUSH1 0x1 PUSH1 0x20 DUP3 PUSH2 0x3305 DUP4 SWAP5 MLOAD DUP7 PUSH2 0x4745 JUMP JUMPDEST ADD SWAP3 ADD SWAP3 ADD SWAP2 SWAP1 PUSH2 0x3241 JUMP JUMPDEST POP PUSH1 0x3 PUSH2 0x3102 JUMP JUMPDEST PUSH1 0x2 SWAP2 POP PUSH2 0x30F9 JUMP JUMPDEST PUSH4 0x4E487B71 PUSH1 0xE0 SHL PUSH0 MSTORE PUSH1 0x12 PUSH1 0x4 MSTORE PUSH1 0x24 PUSH0 REVERT JUMPDEST PUSH1 0x40 MLOAD PUSH3 0x461BCD PUSH1 0xE5 SHL DUP2 MSTORE PUSH1 0x20 PUSH1 0x4 DUP3 ADD MSTORE PUSH1 0x15 PUSH1 0x24 DUP3 ADD MSTORE PUSH21 0x4D757374206D6572676520322D3130206C616E6473 PUSH1 0x58 SHL PUSH1 0x44 DUP3 ADD MSTORE PUSH1 0x64 SWAP1 REVERT JUMPDEST PUSH1 0xA SWAP2 POP GT ISZERO DUP4 PUSH2 0x2E76 JUMP JUMPDEST CALLVALUE PUSH2 0x346 JUMPI PUSH1 0x20 CALLDATASIZE PUSH1 0x3 NOT ADD SLT PUSH2 0x346 JUMPI PUSH1 0x4 CALLDATALOAD PUSH0 MSTORE PUSH1 0x2 PUSH1 0x20 MSTORE PUSH1 0x20 PUSH1 0x40 PUSH0 KECCAK256 SLOAD PUSH1 0x40 MLOAD SWAP1 DUP2 MSTORE RETURN JUMPDEST CALLVALUE PUSH2 0x346 JUMPI PUSH1 0x20 CALLDATASIZE PUSH1 0x3 NOT ADD SLT PUSH2 0x346 JUMPI PUSH1 0x4 CALLDATALOAD DUP1 ISZERO ISZERO DUP1 PUSH2 0x341F JUMPI JUMPDEST PUSH2 0x33CF SWAP1 PUSH2 0x45EE JUMP JUMPDEST PUSH0 MSTORE PUSH0 PUSH1 0x20 MSTORE PUSH1 0xA0 PUSH1 0x40 PUSH0 KECCAK256 PUSH1 0xFF PUSH1 0xB DUP3 ADD SLOAD AND SWAP1 PUSH1 0xC DUP2 ADD SLOAD SWAP1 PUSH1 0x1 DUP1 DUP6 SHL SUB PUSH1 0xD DUP3 ADD SLOAD AND PUSH1 0xF PUSH1 0xE DUP4 ADD SLOAD SWAP3 ADD SLOAD SWAP3 PUSH1 0x40 MLOAD SWAP5 ISZERO ISZERO DUP6 MSTORE PUSH1 0x20 DUP6 ADD MSTORE PUSH1 0x40 DUP5 ADD MSTORE PUSH1 0x60 DUP4 ADD MSTORE PUSH1 0x80 DUP3 ADD MSTORE RETURN JUMPDEST POP PUSH1 0xB SLOAD DUP2 GT ISZERO PUSH2 0x33C6 JUMP JUMPDEST CALLVALUE PUSH2 0x346 JUMPI PUSH2 0x3439 CALLDATASIZE PUSH2 0x4523 JUMP JUMPDEST SWAP2 SWAP1 DUP2 ISZERO ISZERO DUP1 PUSH2 0x3538 JUMPI JUMPDEST PUSH2 0x344D SWAP1 PUSH2 0x45EE JUMP JUMPDEST DUP2 PUSH0 MSTORE PUSH0 PUSH1 0x20 MSTORE PUSH2 0x346E PUSH1 0x1 DUP1 PUSH1 0xA0 SHL SUB PUSH1 0x1 PUSH1 0x40 PUSH0 KECCAK256 ADD SLOAD AND CALLER EQ PUSH2 0x462C JUMP JUMPDEST DUP1 ISZERO PUSH2 0x34E7 JUMPI PUSH3 0x15180 DUP4 LT ISZERO DUP1 PUSH2 0x34D9 JUMPI JUMPDEST PUSH2 0x348A SWAP1 PUSH2 0x4A0E JUMP JUMPDEST PUSH0 DUP3 DUP2 MSTORE PUSH1 0x20 DUP2 SWAP1 MSTORE PUSH1 0x40 SWAP1 KECCAK256 PUSH1 0xD ADD SLOAD PUSH2 0x34AE SWAP1 PUSH1 0x1 PUSH1 0x1 PUSH1 0xA0 SHL SUB AND ISZERO PUSH2 0x4A4D JUMP JUMPDEST PUSH0 SWAP2 DUP3 MSTORE PUSH1 0x20 DUP3 SWAP1 MSTORE PUSH1 0x40 SWAP1 SWAP2 KECCAK256 PUSH1 0xB DUP2 ADD DUP1 SLOAD PUSH1 0xFF NOT AND PUSH1 0x1 OR SWAP1 SSTORE PUSH1 0xC DUP2 ADD SWAP2 SWAP1 SWAP2 SSTORE PUSH1 0xF ADD SSTORE STOP JUMPDEST POP PUSH4 0x1E13380 DUP4 GT ISZERO PUSH2 0x3481 JUMP JUMPDEST PUSH1 0x40 MLOAD PUSH3 0x461BCD PUSH1 0xE5 SHL DUP2 MSTORE PUSH1 0x20 PUSH1 0x4 DUP3 ADD MSTORE PUSH1 0x24 DUP1 DUP3 ADD MSTORE PUSH32 0x52656E74207072696365206D7573742062652067726561746572207468616E20 PUSH1 0x44 DUP3 ADD MSTORE PUSH4 0x7A65726F PUSH1 0xE0 SHL PUSH1 0x64 DUP3 ADD MSTORE PUSH1 0x84 SWAP1 REVERT JUMPDEST POP PUSH1 0xB SLOAD DUP3 GT ISZERO PUSH2 0x3444 JUMP JUMPDEST PUSH1 0x20 CALLDATASIZE PUSH1 0x3 NOT ADD SLT PUSH2 0x346 JUMPI PUSH1 0x4 CALLDATALOAD DUP1 ISZERO ISZERO DUP1 PUSH2 0x3742 JUMPI JUMPDEST PUSH2 0x3565 SWAP1 PUSH2 0x4989 JUMP JUMPDEST DUP1 PUSH0 MSTORE PUSH1 0x6 PUSH1 0x20 MSTORE PUSH1 0x40 PUSH0 KECCAK256 PUSH1 0xFF PUSH1 0x7 DUP3 ADD SLOAD AND PUSH1 0x3 DUP2 LT ISZERO PUSH2 0x855 JUMPI PUSH2 0x358C SWAP1 ISZERO PUSH2 0x49CA JUMP JUMPDEST PUSH1 0x6 DUP2 ADD SLOAD TIMESTAMP LT ISZERO PUSH2 0x3709 JUMPI PUSH1 0x2 DUP2 ADD SLOAD CALLVALUE LT PUSH2 0x36CC JUMPI PUSH1 0x3 DUP2 ADD DUP1 SLOAD SWAP2 DUP3 CALLVALUE GT ISZERO PUSH2 0x3691 JUMPI PUSH1 0x1 DUP2 ADD SLOAD PUSH1 0x1 PUSH1 0x1 PUSH1 0xA0 SHL SUB AND CALLER EQ PUSH2 0x364C JUMPI PUSH1 0x4 ADD DUP1 SLOAD SWAP1 SWAP3 SWAP1 PUSH1 0x1 PUSH1 0x1 PUSH1 0xA0 SHL SUB AND DUP1 PUSH2 0x3628 JUMPI JUMPDEST POP POP CALLVALUE SWAP1 DUP2 SWAP1 SSTORE DUP2 SLOAD PUSH1 0x1 PUSH1 0x1 PUSH1 0xA0 SHL SUB NOT AND CALLER SWAP1 DUP2 OR SWAP1 SWAP3 SSTORE PUSH1 0x40 MLOAD SWAP1 DUP2 MSTORE SWAP1 SWAP2 SWAP1 PUSH32 0x190A5C21CC0EB4D267FD75D52D8C9F16F57E9E2FBA3863695C51CC73236ABF66 SWAP1 PUSH1 0x20 SWAP1 LOG3 STOP JUMPDEST PUSH0 DUP1 DUP1 SWAP4 DUP2 SWAP4 DUP3 DUP3 ISZERO PUSH2 0x3643 JUMPI JUMPDEST CALL ISZERO PUSH2 0x5B2 JUMPI DUP4 DUP1 PUSH2 0x35DD JUMP JUMPDEST POP PUSH2 0x8FC PUSH2 0x3636 JUMP JUMPDEST PUSH1 0x40 MLOAD PUSH3 0x461BCD PUSH1 0xE5 SHL DUP2 MSTORE PUSH1 0x20 PUSH1 0x4 DUP3 ADD MSTORE PUSH1 0x19 PUSH1 0x24 DUP3 ADD MSTORE PUSH32 0x43616E6E6F7420626964206F6E206F776E2061756374696F6E00000000000000 PUSH1 0x44 DUP3 ADD MSTORE PUSH1 0x64 SWAP1 REVERT JUMPDEST PUSH1 0x40 MLOAD PUSH3 0x461BCD PUSH1 0xE5 SHL DUP2 MSTORE PUSH1 0x20 PUSH1 0x4 DUP3 ADD MSTORE PUSH1 0x13 PUSH1 0x24 DUP3 ADD MSTORE PUSH19 0x84D2C840DCDEE840D0D2CED040CADCDEEACED PUSH1 0x6B SHL PUSH1 0x44 DUP3 ADD MSTORE PUSH1 0x64 SWAP1 REVERT JUMPDEST PUSH1 0x40 MLOAD PUSH3 0x461BCD PUSH1 0xE5 SHL DUP2 MSTORE PUSH1 0x20 PUSH1 0x4 DUP3 ADD MSTORE PUSH1 0x15 PUSH1 0x24 DUP3 ADD MSTORE PUSH21 0x4269642062656C6F77207374617274207072696365 PUSH1 0x58 SHL PUSH1 0x44 DUP3 ADD MSTORE PUSH1 0x64 SWAP1 REVERT JUMPDEST PUSH1 0x40 MLOAD PUSH3 0x461BCD PUSH1 0xE5 SHL DUP2 MSTORE PUSH1 0x20 PUSH1 0x4 DUP3 ADD MSTORE PUSH1 0x11 PUSH1 0x24 DUP3 ADD MSTORE PUSH17 0x105D58DD1A5BDB881A185CC8195B991959 PUSH1 0x7A SHL PUSH1 0x44 DUP3 ADD MSTORE PUSH1 0x64 SWAP1 REVERT JUMPDEST POP PUSH1 0x7 SLOAD DUP2 GT ISZERO PUSH2 0x355C JUMP JUMPDEST CALLVALUE PUSH2 0x346 JUMPI PUSH1 0x20 CALLDATASIZE PUSH1 0x3 NOT ADD SLT PUSH2 0x346 JUMPI PUSH1 0x4 CALLDATALOAD PUSH0 SWAP1 DUP2 MSTORE PUSH1 0x20 DUP2 SWAP1 MSTORE PUSH1 0x40 SWAP1 KECCAK256 DUP1 SLOAD PUSH1 0x1 DUP3 ADD SLOAD PUSH1 0x1 PUSH1 0x1 PUSH1 0xA0 SHL SUB AND PUSH1 0xE0 MSTORE SWAP1 PUSH2 0x378F PUSH1 0x2 DUP3 ADD PUSH2 0x4448 JUMP JUMPDEST PUSH2 0x100 MSTORE PUSH1 0x3 DUP2 ADD SLOAD PUSH1 0xA0 MSTORE PUSH1 0x4 DUP2 ADD SLOAD SWAP2 PUSH1 0x5 DUP3 ADD SLOAD PUSH1 0x6 DUP4 ADD SLOAD PUSH1 0x7 DUP5 ADD SLOAD PUSH1 0x8 DUP6 ADD SLOAD PUSH1 0x9 DUP7 ADD SLOAD PUSH1 0xB DUP8 ADD SLOAD PUSH1 0xFF AND SWAP1 PUSH1 0xC DUP9 ADD SLOAD SWAP3 PUSH1 0x1 PUSH1 0xA0 SHL PUSH1 0x1 SWAP1 SUB PUSH1 0xD DUP11 ADD SLOAD AND SWAP5 PUSH1 0xE DUP11 ADD SLOAD SWAP7 PUSH1 0xF DUP12 ADD SLOAD SWAP9 PUSH1 0x10 DUP13 ADD SLOAD PUSH1 0xFF AND SWAP11 PUSH1 0x12 DUP14 ADD SLOAD SWAP13 PUSH1 0x13 ADD SLOAD PUSH1 0x80 MSTORE PUSH1 0x40 MLOAD PUSH1 0xC0 MSTORE PUSH1 0xC0 MLOAD MSTORE PUSH1 0xE0 MLOAD PUSH1 0xC0 MLOAD PUSH1 0x20 ADD MSTORE PUSH1 0xC0 MLOAD PUSH1 0x40 ADD PUSH2 0x2E0 SWAP1 MSTORE PUSH1 0xC0 MLOAD PUSH2 0x2E0 ADD PUSH2 0x100 MLOAD SWAP1 PUSH2 0x382F SWAP2 PUSH2 0x44E8 JUMP JUMPDEST SWAP13 PUSH1 0xA0 MLOAD PUSH1 0xC0 MLOAD PUSH1 0x60 ADD MSTORE PUSH1 0xC0 MLOAD PUSH1 0x80 ADD MSTORE PUSH1 0xFF DUP2 AND ISZERO ISZERO PUSH1 0xC0 MLOAD PUSH1 0xA0 ADD MSTORE DUP1 PUSH1 0x8 SHR PUSH1 0xFF AND PUSH2 0x385E SWAP1 PUSH2 0x450C JUMP JUMPDEST DUP1 PUSH1 0x8 SHR PUSH1 0xFF AND PUSH1 0xC0 MLOAD PUSH1 0xC0 ADD MSTORE DUP1 PUSH1 0x10 SHR PUSH1 0xFF AND PUSH2 0x387C SWAP1 PUSH2 0x450C JUMP JUMPDEST DUP1 PUSH1 0x10 SHR PUSH1 0xFF AND PUSH1 0xC0 MLOAD PUSH1 0xE0 ADD MSTORE PUSH1 0xC0 MLOAD PUSH2 0x100 ADD SWAP1 PUSH1 0x18 SHR PUSH1 0xFF AND SWAP1 PUSH2 0x38A2 SWAP2 PUSH2 0x4516 JUMP JUMPDEST PUSH1 0xC0 MLOAD PUSH2 0x120 ADD MSTORE PUSH1 0xFF DUP2 AND ISZERO ISZERO PUSH1 0xC0 MLOAD PUSH2 0x140 ADD MSTORE DUP1 PUSH1 0x8 SHR PUSH1 0xFF AND ISZERO ISZERO PUSH1 0xC0 MLOAD PUSH2 0x160 ADD MSTORE PUSH1 0x10 SHR PUSH1 0xFF AND ISZERO ISZERO PUSH1 0xC0 MLOAD PUSH2 0x180 ADD MSTORE PUSH1 0xC0 MLOAD PUSH2 0x1A0 ADD MSTORE PUSH1 0xC0 MLOAD PUSH2 0x1C0 ADD MSTORE ISZERO ISZERO PUSH1 0xC0 MLOAD PUSH2 0x1E0 ADD MSTORE PUSH1 0xC0 MLOAD PUSH2 0x200 ADD MSTORE PUSH1 0xC0 MLOAD PUSH2 0x220 ADD MSTORE PUSH1 0xC0 MLOAD PUSH2 0x240 ADD MSTORE PUSH1 0xC0 MLOAD PUSH2 0x260 ADD MSTORE ISZERO ISZERO PUSH1 0xC0 MLOAD PUSH2 0x280 ADD MSTORE PUSH1 0xC0 MLOAD PUSH2 0x2A0 ADD MSTORE PUSH1 0x80 MLOAD PUSH1 0xC0 MLOAD PUSH2 0x2C0 ADD MSTORE PUSH1 0xC0 MLOAD SWAP1 SUB PUSH1 0xC0 MLOAD RETURN JUMPDEST CALLVALUE PUSH2 0x346 JUMPI PUSH1 0x20 CALLDATASIZE PUSH1 0x3 NOT ADD SLT PUSH2 0x346 JUMPI PUSH1 0x4 CALLDATALOAD DUP1 ISZERO ISZERO DUP1 PUSH2 0x3A7C JUMPI JUMPDEST PUSH2 0x3960 SWAP1 PUSH2 0x45EE JUMP JUMPDEST DUP1 PUSH0 MSTORE PUSH0 PUSH1 0x20 MSTORE PUSH2 0x3981 PUSH1 0x1 DUP1 PUSH1 0xA0 SHL SUB PUSH1 0x1 PUSH1 0x40 PUSH0 KECCAK256 ADD SLOAD AND CALLER EQ PUSH2 0x462C JUMP JUMPDEST DUP1 PUSH0 MSTORE PUSH0 PUSH1 0x20 MSTORE PUSH1 0xA PUSH1 0x8 PUSH1 0x40 PUSH0 KECCAK256 ADD SLOAD LT ISZERO PUSH2 0x3A37 JUMPI DUP1 PUSH0 MSTORE PUSH0 PUSH1 0x20 MSTORE PUSH1 0x8 PUSH1 0x40 PUSH0 KECCAK256 ADD PUSH2 0x39B0 DUP2 SLOAD PUSH2 0x491B JUMP JUMPDEST SWAP1 SSTORE DUP1 PUSH0 MSTORE PUSH0 PUSH1 0x20 MSTORE PUSH1 0x5F PUSH1 0x6 PUSH1 0x40 PUSH0 KECCAK256 ADD SLOAD LT PUSH2 0x3A15 JUMPI JUMPDEST DUP1 PUSH0 MSTORE PUSH0 PUSH1 0x20 MSTORE PUSH32 0xA1248244890293CCFE9D77AA1483E8B04EAA5AE6636A40BA47F320D716D7F92D PUSH1 0x40 PUSH1 0x6 DUP2 PUSH0 KECCAK256 ADD SLOAD DUP4 PUSH0 MSTORE PUSH0 PUSH1 0x20 MSTORE PUSH1 0x8 DUP3 PUSH0 KECCAK256 ADD SLOAD DUP3 MLOAD SWAP2 DUP3 MSTORE PUSH1 0x20 DUP3 ADD MSTORE LOG2 STOP JUMPDEST DUP1 PUSH0 MSTORE PUSH0 PUSH1 0x20 MSTORE PUSH1 0x6 PUSH1 0x40 PUSH0 KECCAK256 ADD DUP1 SLOAD SWAP1 PUSH1 0x5 DUP3 ADD DUP1 SWAP3 GT PUSH2 0x614 JUMPI SSTORE PUSH2 0x39C9 JUMP JUMPDEST PUSH1 0x40 MLOAD PUSH3 0x461BCD PUSH1 0xE5 SHL DUP2 MSTORE PUSH1 0x20 PUSH1 0x4 DUP3 ADD MSTORE PUSH1 0x17 PUSH1 0x24 DUP3 ADD MSTORE PUSH32 0x4C616E642069732066756C6C7920646576656C6F706564000000000000000000 PUSH1 0x44 DUP3 ADD MSTORE PUSH1 0x64 SWAP1 REVERT JUMPDEST POP PUSH1 0xB SLOAD DUP2 GT ISZERO PUSH2 0x3957 JUMP JUMPDEST CALLVALUE PUSH2 0x346 JUMPI PUSH1 0x20 CALLDATASIZE PUSH1 0x3 NOT ADD SLT PUSH2 0x346 JUMPI PUSH1 0x4 CALLDATALOAD PUSH2 0x3AB1 PUSH1 0x1 DUP1 PUSH1 0xA0 SHL SUB PUSH1 0xD SLOAD AND CALLER EQ PUSH2 0x4929 JUMP JUMPDEST PUSH1 0x5 DUP2 GT PUSH2 0x3ABE JUMPI PUSH1 0x9 SSTORE STOP JUMPDEST PUSH1 0x40 MLOAD PUSH3 0x461BCD PUSH1 0xE5 SHL DUP2 MSTORE PUSH1 0x20 PUSH1 0x4 DUP3 ADD MSTORE PUSH1 0x19 PUSH1 0x24 DUP3 ADD MSTORE PUSH32 0x54617820726174652063616E6E6F742065786365656420352500000000000000 PUSH1 0x44 DUP3 ADD MSTORE PUSH1 0x64 SWAP1 REVERT JUMPDEST CALLVALUE PUSH2 0x346 JUMPI PUSH1 0x20 CALLDATASIZE PUSH1 0x3 NOT ADD SLT PUSH2 0x346 JUMPI PUSH1 0x4 CALLDATALOAD PUSH0 MSTORE PUSH1 0x1 PUSH1 0x20 MSTORE PUSH1 0x40 PUSH0 KECCAK256 DUP1 SLOAD PUSH2 0x3B30 PUSH1 0x1 DUP4 ADD PUSH2 0x4448 JUMP JUMPDEST SWAP2 PUSH1 0x1 DUP1 PUSH1 0xA0 SHL SUB PUSH1 0x3 DUP3 ADD SLOAD AND SWAP1 PUSH1 0xFF PUSH1 0x5 PUSH1 0x4 DUP4 ADD SLOAD SWAP3 ADD SLOAD AND SWAP1 PUSH2 0x3B69 PUSH1 0x40 MLOAD SWAP6 DUP7 SWAP6 DUP7 MSTORE PUSH1 0xA0 PUSH1 0x20 DUP8 ADD MSTORE PUSH1 0xA0 DUP7 ADD SWAP1 PUSH2 0x44E8 JUMP JUMPDEST SWAP3 PUSH1 0x40 DUP6 ADD MSTORE PUSH1 0x60 DUP5 ADD MSTORE ISZERO ISZERO PUSH1 0x80 DUP4 ADD MSTORE SUB SWAP1 RETURN JUMPDEST CALLVALUE PUSH2 0x346 JUMPI PUSH1 0x40 CALLDATASIZE PUSH1 0x3 NOT ADD SLT PUSH2 0x346 JUMPI PUSH1 0x4 CALLDATALOAD PUSH1 0x1 PUSH1 0x1 PUSH1 0x40 SHL SUB DUP2 GT PUSH2 0x346 JUMPI PUSH2 0x3BAF SWAP1 CALLDATASIZE SWAP1 PUSH1 0x4 ADD PUSH2 0x4347 JUMP JUMPDEST PUSH1 0x24 CALLDATALOAD PUSH1 0x1 PUSH1 0x1 PUSH1 0x40 SHL SUB DUP2 GT PUSH2 0x346 JUMPI PUSH2 0x3BCE SWAP1 CALLDATASIZE SWAP1 PUSH1 0x4 ADD PUSH2 0x43B3 JUMP JUMPDEST DUP1 MLOAD ISZERO PUSH2 0x3DE9 JUMPI PUSH0 JUMPDEST DUP2 MLOAD DUP2 LT ISZERO PUSH2 0x3C5F JUMPI PUSH2 0x3BEA DUP2 DUP4 PUSH2 0x4907 JUMP JUMPDEST MLOAD PUSH0 MSTORE PUSH0 PUSH1 0x20 MSTORE CALLER PUSH1 0x1 DUP1 PUSH1 0xA0 SHL SUB PUSH1 0x1 PUSH1 0x40 PUSH0 KECCAK256 ADD SLOAD AND SUB PUSH2 0x3C0F JUMPI PUSH1 0x1 ADD PUSH2 0x3BD7 JUMP JUMPDEST PUSH1 0x40 MLOAD PUSH3 0x461BCD PUSH1 0xE5 SHL DUP2 MSTORE PUSH1 0x20 PUSH1 0x4 DUP3 ADD MSTORE PUSH1 0x22 PUSH1 0x24 DUP3 ADD MSTORE PUSH32 0x4D757374206F776E20616C6C206C616E647320696E206E65696768626F72686F PUSH1 0x44 DUP3 ADD MSTORE PUSH2 0x1BD9 PUSH1 0xF2 SHL PUSH1 0x64 DUP3 ADD MSTORE PUSH1 0x84 SWAP1 REVERT JUMPDEST POP PUSH2 0x3C6B PUSH1 0xC SLOAD PUSH2 0x491B JUMP JUMPDEST DUP1 PUSH1 0xC SSTORE DUP2 MLOAD SWAP1 PUSH1 0x40 MLOAD SWAP2 PUSH2 0x3C7F DUP4 PUSH2 0x42EF JUMP JUMPDEST DUP2 DUP4 MSTORE PUSH1 0x20 DUP4 ADD DUP6 DUP2 MSTORE PUSH1 0x40 DUP5 ADD DUP6 DUP2 MSTORE PUSH2 0x3CC4 PUSH1 0x60 DUP7 ADD SWAP3 CALLER DUP5 MSTORE PUSH1 0x80 DUP8 ADD SWAP5 DUP6 MSTORE PUSH1 0xA0 DUP8 ADD SWAP6 PUSH1 0x1 DUP8 MSTORE PUSH0 MSTORE PUSH1 0x1 PUSH1 0x20 MSTORE PUSH1 0x40 PUSH0 KECCAK256 SWAP7 MLOAD DUP8 SSTORE MLOAD PUSH1 0x1 DUP8 ADD PUSH2 0x4745 JUMP JUMPDEST MLOAD DUP1 MLOAD SWAP1 PUSH1 0x2 DUP7 ADD SWAP1 PUSH1 0x1 PUSH1 0x1 PUSH1 0x40 SHL SUB DUP4 GT PUSH2 0x1E4D JUMPI PUSH1 0x1 PUSH1 0x40 SHL DUP4 GT PUSH2 0x1E4D JUMPI PUSH1 0x20 SWAP1 DUP3 SLOAD DUP5 DUP5 SSTORE DUP1 DUP6 LT PUSH2 0x3DCE JUMPI JUMPDEST POP ADD SWAP1 PUSH0 MSTORE PUSH1 0x20 PUSH0 KECCAK256 PUSH0 JUMPDEST DUP4 DUP2 LT PUSH2 0x3DBA JUMPI DUP5 MLOAD PUSH1 0x3 DUP10 ADD DUP1 SLOAD PUSH1 0x1 PUSH1 0x1 PUSH1 0xA0 SHL SUB SWAP1 SWAP3 AND PUSH1 0x1 PUSH1 0x1 PUSH1 0xA0 SHL SUB NOT SWAP1 SWAP3 AND SWAP2 SWAP1 SWAP2 OR SWAP1 SSTORE DUP6 MLOAD PUSH1 0x4 DUP10 ADD SSTORE DUP7 MLOAD PUSH1 0x5 DUP10 ADD DUP1 SLOAD PUSH1 0xFF NOT AND SWAP2 ISZERO ISZERO PUSH1 0xFF AND SWAP2 SWAP1 SWAP2 OR SWAP1 SSTORE DUP10 DUP10 PUSH0 JUMPDEST DUP2 MLOAD DUP2 LT ISZERO PUSH2 0x3D7C JUMPI PUSH1 0x1 SWAP1 PUSH1 0xC SLOAD PUSH2 0x3D69 DUP3 DUP6 PUSH2 0x4907 JUMP JUMPDEST MLOAD PUSH0 MSTORE PUSH1 0x2 PUSH1 0x20 MSTORE PUSH1 0x40 PUSH0 KECCAK256 SSTORE ADD PUSH2 0x3D50 JUMP JUMPDEST PUSH1 0x20 DUP4 PUSH1 0xC SLOAD SWAP1 DUP2 PUSH32 0x52D72C8EB8CB30382081A95562527E11A2137D5A887935270CC7F0F0A3CCCF76 PUSH1 0x40 MLOAD DUP6 DUP2 MSTORE DUP1 PUSH2 0x32E9 CALLER SWAP6 DUP9 DUP4 ADD SWAP1 PUSH2 0x44E8 JUMP JUMPDEST PUSH1 0x1 SWAP1 PUSH1 0x20 DUP5 MLOAD SWAP5 ADD SWAP4 DUP2 DUP5 ADD SSTORE ADD PUSH2 0x3D01 JUMP JUMPDEST PUSH2 0x3DE3 SWAP1 DUP5 PUSH0 MSTORE DUP6 DUP5 PUSH0 KECCAK256 SWAP2 DUP3 ADD SWAP2 ADD PUSH2 0x472F JUMP JUMPDEST DUP11 PUSH2 0x3CF6 JUMP JUMPDEST PUSH1 0x40 MLOAD PUSH3 0x461BCD PUSH1 0xE5 SHL DUP2 MSTORE PUSH1 0x20 PUSH1 0x4 DUP3 ADD MSTORE PUSH1 0x28 PUSH1 0x24 DUP3 ADD MSTORE PUSH32 0x4E65696768626F72686F6F64206D7573742068617665206174206C6561737420 PUSH1 0x44 DUP3 ADD MSTORE PUSH8 0x1BDB99481B185B99 PUSH1 0xC2 SHL PUSH1 0x64 DUP3 ADD MSTORE PUSH1 0x84 SWAP1 REVERT JUMPDEST CALLVALUE PUSH2 0x346 JUMPI PUSH0 CALLDATASIZE PUSH1 0x3 NOT ADD SLT PUSH2 0x346 JUMPI PUSH1 0x20 PUSH1 0x7 SLOAD PUSH1 0x40 MLOAD SWAP1 DUP2 MSTORE RETURN JUMPDEST CALLVALUE PUSH2 0x346 JUMPI PUSH1 0x20 CALLDATASIZE PUSH1 0x3 NOT ADD SLT PUSH2 0x346 JUMPI PUSH1 0x4 CALLDATALOAD DUP1 ISZERO ISZERO DUP1 PUSH2 0x3EFF JUMPI JUMPDEST PUSH2 0x3E82 SWAP1 PUSH2 0x45EE JUMP JUMPDEST PUSH0 MSTORE PUSH0 PUSH1 0x20 MSTORE PUSH1 0x40 PUSH0 KECCAK256 PUSH2 0x3E9A PUSH1 0x12 DUP3 ADD SLOAD TIMESTAMP PUSH2 0x46CF JUMP JUMPDEST SWAP1 PUSH1 0xFF PUSH1 0x5 PUSH1 0x3 DUP4 ADD SLOAD SWAP3 ADD SLOAD PUSH1 0x10 SHR AND PUSH2 0x3EB4 DUP2 PUSH2 0x450C JUMP JUMPDEST PUSH1 0x1 DUP2 ADD DUP1 SWAP2 GT PUSH2 0x614 JUMPI PUSH2 0x3EC8 SWAP2 PUSH2 0x471C JUMP JUMPDEST SWAP1 PUSH2 0x3E8 DUP3 MUL SWAP2 DUP1 DUP4 DIV PUSH2 0x3E8 EQ SWAP1 ISZERO OR ISZERO PUSH2 0x614 JUMPI PUSH2 0x3EF6 PUSH4 0xBBF81E00 SWAP2 PUSH2 0x529 PUSH1 0x20 SWAP5 PUSH1 0x9 SLOAD SWAP1 PUSH2 0x471C JUMP JUMPDEST DIV PUSH1 0x40 MLOAD SWAP1 DUP2 MSTORE RETURN JUMPDEST POP PUSH1 0xB SLOAD DUP2 GT ISZERO PUSH2 0x3E79 JUMP JUMPDEST CALLVALUE PUSH2 0x346 JUMPI PUSH0 CALLDATASIZE PUSH1 0x3 NOT ADD SLT PUSH2 0x346 JUMPI CALLER PUSH0 MSTORE PUSH1 0x3 PUSH1 0x20 MSTORE PUSH2 0x851 PUSH2 0x3F32 PUSH1 0x40 PUSH0 KECCAK256 PUSH2 0x48A5 JUMP JUMPDEST PUSH1 0x40 MLOAD SWAP2 DUP3 SWAP2 PUSH1 0x20 DUP4 MSTORE PUSH1 0x20 DUP4 ADD SWAP1 PUSH2 0x42BC JUMP JUMPDEST CALLVALUE PUSH2 0x346 JUMPI PUSH1 0x40 CALLDATASIZE PUSH1 0x3 NOT ADD SLT PUSH2 0x346 JUMPI PUSH1 0x4 CALLDATALOAD PUSH2 0x3F62 PUSH2 0x4290 JUMP JUMPDEST SWAP1 DUP1 ISZERO ISZERO DUP1 PUSH2 0x4284 JUMPI JUMPDEST PUSH2 0x3F75 SWAP1 PUSH2 0x45EE JUMP JUMPDEST DUP1 PUSH0 MSTORE PUSH0 PUSH1 0x20 MSTORE PUSH2 0x3F96 PUSH1 0x1 DUP1 PUSH1 0xA0 SHL SUB PUSH1 0x1 PUSH1 0x40 PUSH0 KECCAK256 ADD SLOAD AND CALLER EQ PUSH2 0x462C JUMP JUMPDEST DUP1 PUSH0 MSTORE PUSH0 PUSH1 0x20 MSTORE PUSH1 0xFF PUSH1 0xB PUSH1 0x40 PUSH0 KECCAK256 ADD SLOAD AND ISZERO DUP1 ISZERO PUSH2 0x4263 JUMPI JUMPDEST PUSH2 0x3FB9 SWAP1 PUSH2 0x4683 JUMP JUMPDEST DUP1 PUSH0 MSTORE PUSH1 0x5 PUSH1 0x20 MSTORE PUSH1 0x40 PUSH0 KECCAK256 PUSH1 0x1 DUP1 PUSH1 0xA0 SHL SUB DUP4 AND PUSH0 MSTORE PUSH1 0x20 MSTORE PUSH1 0x40 PUSH0 KECCAK256 SLOAD DUP1 ISZERO PUSH2 0x421E JUMPI DUP2 PUSH0 MSTORE PUSH1 0x4 PUSH1 0x20 MSTORE PUSH1 0x40 PUSH0 KECCAK256 SWAP1 PUSH0 NOT DUP2 ADD SWAP1 DUP2 GT PUSH2 0x614 JUMPI PUSH2 0x3FFF SWAP2 PUSH2 0x45D5 JUMP JUMPDEST POP SWAP2 PUSH1 0x3 DUP4 ADD PUSH1 0x1 DUP2 SLOAD SWAP5 PUSH2 0x4016 PUSH1 0xFF DUP8 AND PUSH2 0x46DC JUMP JUMPDEST ADD SLOAD SWAP4 PUSH1 0xFF NOT AND SWAP1 SSTORE PUSH1 0x64 PUSH2 0x402D PUSH1 0x8 SLOAD DUP6 PUSH2 0x471C JUMP JUMPDEST DIV SWAP1 PUSH2 0x4039 DUP3 DUP6 PUSH2 0x46CF JUMP JUMPDEST PUSH0 DUP5 DUP2 MSTORE PUSH1 0x20 DUP2 SWAP1 MSTORE PUSH1 0x40 DUP2 KECCAK256 PUSH1 0x1 DUP2 ADD DUP1 SLOAD PUSH1 0x1 PUSH1 0x1 PUSH1 0xA0 SHL SUB DUP7 DUP2 AND PUSH1 0x1 PUSH1 0x1 PUSH1 0xA0 SHL SUB NOT DUP4 AND OR SWAP1 SWAP3 SSTORE PUSH1 0x5 DUP4 ADD DUP1 SLOAD PUSH1 0xFF NOT AND SWAP1 SSTORE PUSH1 0x4 DUP4 ADD DUP5 SWAP1 SSTORE SWAP4 SWAP6 SWAP4 AND SWAP4 DUP3 SWAP2 DUP3 SWAP2 DUP3 SWAP2 PUSH2 0x4094 SWAP1 PUSH1 0xA ADD PUSH2 0x1797 DUP4 PUSH2 0x4CFB JUMP JUMPDEST PUSH1 0x1 DUP1 PUSH1 0xA0 SHL SUB AND SWAP7 DUP8 DUP3 MSTORE PUSH1 0x3 PUSH1 0x20 MSTORE PUSH2 0x40B2 DUP10 PUSH1 0x40 DUP5 KECCAK256 PUSH2 0x486A JUMP JUMPDEST PUSH2 0x40BC DUP10 DUP9 PUSH2 0x4E14 JUMP JUMPDEST DUP7 DUP3 DUP3 ISZERO PUSH2 0x4215 JUMPI JUMPDEST CALL ISZERO PUSH2 0x5B2 JUMPI PUSH1 0xA SLOAD PUSH0 SWAP2 DUP3 SWAP2 DUP3 SWAP2 DUP3 SWAP2 PUSH1 0x1 PUSH1 0x1 PUSH1 0xA0 SHL SUB AND DUP3 DUP3 ISZERO PUSH2 0x420C JUMPI JUMPDEST CALL ISZERO PUSH2 0x5B2 JUMPI PUSH0 JUMPDEST DUP4 PUSH0 MSTORE PUSH1 0x4 PUSH1 0x20 MSTORE PUSH1 0x40 PUSH0 KECCAK256 SLOAD DUP2 LT ISZERO PUSH2 0x41DD JUMPI DUP4 PUSH0 MSTORE PUSH1 0x4 PUSH1 0x20 MSTORE PUSH1 0xFF PUSH1 0x3 PUSH2 0x411C DUP4 PUSH1 0x40 PUSH0 KECCAK256 PUSH2 0x45D5 JUMP JUMPDEST POP ADD SLOAD AND DUP1 PUSH2 0x41B4 JUMPI JUMPDEST PUSH2 0x4133 JUMPI JUMPDEST PUSH1 0x1 ADD PUSH2 0x40EF JUMP JUMPDEST DUP4 PUSH0 MSTORE PUSH1 0x4 PUSH1 0x20 MSTORE PUSH1 0x3 PUSH2 0x414A DUP3 PUSH1 0x40 PUSH0 KECCAK256 PUSH2 0x45D5 JUMP JUMPDEST POP ADD PUSH1 0xFF NOT DUP2 SLOAD AND SWAP1 SSTORE DUP4 PUSH0 MSTORE PUSH1 0x4 PUSH1 0x20 MSTORE PUSH0 DUP1 DUP1 DUP1 PUSH2 0x416D DUP6 PUSH1 0x40 DUP4 KECCAK256 PUSH2 0x45D5 JUMP JUMPDEST POP PUSH1 0x1 DUP1 PUSH1 0xA0 SHL SUB SWAP1 SLOAD AND DUP9 DUP3 MSTORE PUSH1 0x4 PUSH1 0x20 MSTORE PUSH1 0x1 PUSH2 0x418F DUP8 PUSH1 0x40 DUP6 KECCAK256 PUSH2 0x45D5 JUMP JUMPDEST POP ADD SLOAD SWAP1 DUP3 DUP3 ISZERO PUSH2 0x41AB JUMPI JUMPDEST CALL PUSH2 0x412B JUMPI PUSH1 0x40 MLOAD RETURNDATASIZE PUSH0 DUP3 RETURNDATACOPY RETURNDATASIZE SWAP1 REVERT JUMPDEST POP PUSH2 0x8FC PUSH2 0x419B JUMP JUMPDEST POP DUP4 PUSH0 MSTORE PUSH1 0x4 PUSH1 0x20 MSTORE DUP3 PUSH2 0x41CB DUP3 PUSH1 0x40 PUSH0 KECCAK256 PUSH2 0x45D5 JUMP JUMPDEST POP SLOAD PUSH1 0x1 PUSH1 0x1 PUSH1 0xA0 SHL SUB AND EQ ISZERO PUSH2 0x4126 JUMP JUMPDEST POP DUP3 PUSH32 0xE6D56779A392535D3A591E92B65BA36F2ECC424BBF5220D0176A7DA29385B504 PUSH1 0x20 DUP7 PUSH1 0x40 MLOAD SWAP1 DUP2 MSTORE LOG4 STOP JUMPDEST POP PUSH2 0x8FC PUSH2 0x40E7 JUMP JUMPDEST POP PUSH2 0x8FC PUSH2 0x40C5 JUMP JUMPDEST PUSH1 0x40 MLOAD PUSH3 0x461BCD PUSH1 0xE5 SHL DUP2 MSTORE PUSH1 0x20 PUSH1 0x4 DUP3 ADD MSTORE PUSH1 0x18 PUSH1 0x24 DUP3 ADD MSTORE PUSH32 0x4E6F206269642066726F6D207468697320616464726573730000000000000000 PUSH1 0x44 DUP3 ADD MSTORE PUSH1 0x64 SWAP1 REVERT JUMPDEST POP PUSH0 DUP2 DUP2 MSTORE PUSH1 0x20 DUP2 SWAP1 MSTORE PUSH1 0x40 SWAP1 KECCAK256 PUSH1 0xD ADD SLOAD PUSH1 0x1 PUSH1 0x1 PUSH1 0xA0 SHL SUB AND ISZERO PUSH2 0x3FB0 JUMP JUMPDEST POP PUSH1 0xB SLOAD DUP2 GT ISZERO PUSH2 0x3F6C JUMP JUMPDEST PUSH1 0x24 CALLDATALOAD SWAP1 PUSH1 0x1 PUSH1 0x1 PUSH1 0xA0 SHL SUB DUP3 AND DUP3 SUB PUSH2 0x346 JUMPI JUMP JUMPDEST PUSH1 0x4 CALLDATALOAD SWAP1 PUSH1 0x1 PUSH1 0x1 PUSH1 0xA0 SHL SUB DUP3 AND DUP3 SUB PUSH2 0x346 JUMPI JUMP JUMPDEST SWAP1 PUSH1 0x20 DUP1 DUP4 MLOAD SWAP3 DUP4 DUP2 MSTORE ADD SWAP3 ADD SWAP1 PUSH0 JUMPDEST DUP2 DUP2 LT PUSH2 0x42D9 JUMPI POP POP POP SWAP1 JUMP JUMPDEST DUP3 MLOAD DUP5 MSTORE PUSH1 0x20 SWAP4 DUP5 ADD SWAP4 SWAP1 SWAP3 ADD SWAP2 PUSH1 0x1 ADD PUSH2 0x42CC JUMP JUMPDEST PUSH1 0xC0 DUP2 ADD SWAP1 DUP2 LT PUSH1 0x1 PUSH1 0x1 PUSH1 0x40 SHL SUB DUP3 GT OR PUSH2 0x1E4D JUMPI PUSH1 0x40 MSTORE JUMP JUMPDEST PUSH2 0x120 DUP2 ADD SWAP1 DUP2 LT PUSH1 0x1 PUSH1 0x1 PUSH1 0x40 SHL SUB DUP3 GT OR PUSH2 0x1E4D JUMPI PUSH1 0x40 MSTORE JUMP JUMPDEST SWAP1 PUSH1 0x1F DUP1 NOT SWAP2 ADD AND DUP2 ADD SWAP1 DUP2 LT PUSH1 0x1 PUSH1 0x1 PUSH1 0x40 SHL SUB DUP3 GT OR PUSH2 0x1E4D JUMPI PUSH1 0x40 MSTORE JUMP JUMPDEST DUP2 PUSH1 0x1F DUP3 ADD SLT ISZERO PUSH2 0x346 JUMPI DUP1 CALLDATALOAD SWAP1 PUSH1 0x1 PUSH1 0x1 PUSH1 0x40 SHL SUB DUP3 GT PUSH2 0x1E4D JUMPI PUSH1 0x40 MLOAD SWAP3 PUSH2 0x437B PUSH1 0x1F DUP5 ADD PUSH1 0x1F NOT AND PUSH1 0x20 ADD DUP6 PUSH2 0x4326 JUMP JUMPDEST DUP3 DUP5 MSTORE PUSH1 0x20 DUP4 DUP4 ADD ADD GT PUSH2 0x346 JUMPI DUP2 PUSH0 SWAP3 PUSH1 0x20 DUP1 SWAP4 ADD DUP4 DUP7 ADD CALLDATACOPY DUP4 ADD ADD MSTORE SWAP1 JUMP JUMPDEST PUSH1 0x1 PUSH1 0x1 PUSH1 0x40 SHL SUB DUP2 GT PUSH2 0x1E4D JUMPI PUSH1 0x5 SHL PUSH1 0x20 ADD SWAP1 JUMP JUMPDEST SWAP1 DUP1 PUSH1 0x1F DUP4 ADD SLT ISZERO PUSH2 0x346 JUMPI DUP2 CALLDATALOAD PUSH2 0x43CA DUP2 PUSH2 0x439C JUMP JUMPDEST SWAP3 PUSH2 0x43D8 PUSH1 0x40 MLOAD SWAP5 DUP6 PUSH2 0x4326 JUMP JUMPDEST DUP2 DUP5 MSTORE PUSH1 0x20 DUP1 DUP6 ADD SWAP3 PUSH1 0x5 SHL DUP3 ADD ADD SWAP3 DUP4 GT PUSH2 0x346 JUMPI PUSH1 0x20 ADD SWAP1 JUMPDEST DUP3 DUP3 LT PUSH2 0x4400 JUMPI POP POP POP SWAP1 JUMP JUMPDEST DUP2 CALLDATALOAD DUP2 MSTORE PUSH1 0x20 SWAP2 DUP3 ADD SWAP2 ADD PUSH2 0x43F3 JUMP JUMPDEST SWAP1 PUSH1 0x1 DUP3 DUP2 SHR SWAP3 AND DUP1 ISZERO PUSH2 0x443E JUMPI JUMPDEST PUSH1 0x20 DUP4 LT EQ PUSH2 0x442A JUMPI JUMP JUMPDEST PUSH4 0x4E487B71 PUSH1 0xE0 SHL PUSH0 MSTORE PUSH1 0x22 PUSH1 0x4 MSTORE PUSH1 0x24 PUSH0 REVERT JUMPDEST SWAP2 PUSH1 0x7F AND SWAP2 PUSH2 0x441F JUMP JUMPDEST SWAP1 PUSH1 0x40 MLOAD SWAP2 DUP3 PUSH0 DUP3 SLOAD SWAP3 PUSH2 0x445B DUP5 PUSH2 0x4410 JUMP JUMPDEST DUP1 DUP5 MSTORE SWAP4 PUSH1 0x1 DUP2 AND SWAP1 DUP2 ISZERO PUSH2 0x44C6 JUMPI POP PUSH1 0x1 EQ PUSH2 0x4482 JUMPI JUMPDEST POP PUSH2 0x4480 SWAP3 POP SUB DUP4 PUSH2 0x4326 JUMP JUMPDEST JUMP JUMPDEST SWAP1 POP PUSH0 SWAP3 SWAP2 SWAP3 MSTORE PUSH1 0x20 PUSH0 KECCAK256 SWAP1 PUSH0 SWAP2 JUMPDEST DUP2 DUP4 LT PUSH2 0x44AA JUMPI POP POP SWAP1 PUSH1 0x20 PUSH2 0x4480 SWAP3 DUP3 ADD ADD PUSH0 PUSH2 0x4473 JUMP JUMPDEST PUSH1 0x20 SWAP2 SWAP4 POP DUP1 PUSH1 0x1 SWAP2 SLOAD DUP4 DUP6 DUP10 ADD ADD MSTORE ADD SWAP2 ADD SWAP1 SWAP2 DUP5 SWAP3 PUSH2 0x4491 JUMP JUMPDEST SWAP1 POP PUSH1 0x20 SWAP3 POP PUSH2 0x4480 SWAP5 SWAP2 POP PUSH1 0xFF NOT AND DUP3 DUP5 ADD MSTORE ISZERO ISZERO PUSH1 0x5 SHL DUP3 ADD ADD PUSH0 PUSH2 0x4473 JUMP JUMPDEST DUP1 MLOAD DUP1 DUP4 MSTORE PUSH1 0x20 SWAP3 SWAP2 DUP2 SWAP1 DUP5 ADD DUP5 DUP5 ADD MCOPY PUSH0 DUP3 DUP3 ADD DUP5 ADD MSTORE PUSH1 0x1F ADD PUSH1 0x1F NOT AND ADD ADD SWAP1 JUMP JUMPDEST PUSH1 0x5 GT ISZERO PUSH2 0x855 JUMPI JUMP JUMPDEST SWAP1 PUSH1 0x6 DUP3 LT ISZERO PUSH2 0x855 JUMPI MSTORE JUMP JUMPDEST PUSH1 0x60 SWAP1 PUSH1 0x3 NOT ADD SLT PUSH2 0x346 JUMPI PUSH1 0x4 CALLDATALOAD SWAP1 PUSH1 0x24 CALLDATALOAD SWAP1 PUSH1 0x44 CALLDATALOAD SWAP1 JUMP JUMPDEST SWAP8 SWAP7 SWAP5 SWAP3 SWAP1 SWAP10 SWAP9 SWAP6 SWAP4 SWAP2 PUSH2 0x120 DUP10 ADD SWAP11 DUP10 MSTORE PUSH1 0x1 DUP1 PUSH1 0xA0 SHL SUB AND PUSH1 0x20 DUP10 ADD MSTORE PUSH1 0x40 DUP9 ADD MSTORE PUSH1 0x60 DUP8 ADD MSTORE PUSH1 0x1 DUP1 PUSH1 0xA0 SHL SUB AND PUSH1 0x80 DUP7 ADD MSTORE PUSH1 0xA0 DUP6 ADD MSTORE PUSH1 0xC0 DUP5 ADD MSTORE PUSH1 0x3 DUP3 LT ISZERO PUSH2 0x855 JUMPI PUSH2 0x100 SWAP2 PUSH1 0xE0 DUP5 ADD MSTORE ISZERO ISZERO SWAP2 ADD MSTORE JUMP JUMPDEST DUP1 SLOAD DUP3 LT ISZERO PUSH2 0x45AB JUMPI PUSH0 MSTORE PUSH1 0x20 PUSH0 KECCAK256 ADD SWAP1 PUSH0 SWAP1 JUMP JUMPDEST PUSH4 0x4E487B71 PUSH1 0xE0 SHL PUSH0 MSTORE PUSH1 0x32 PUSH1 0x4 MSTORE PUSH1 0x24 PUSH0 REVERT JUMPDEST PUSH1 0x40 SWAP1 PUSH1 0x3 NOT ADD SLT PUSH2 0x346 JUMPI PUSH1 0x4 CALLDATALOAD SWAP1 PUSH1 0x24 CALLDATALOAD SWAP1 JUMP JUMPDEST DUP1 SLOAD DUP3 LT ISZERO PUSH2 0x45AB JUMPI PUSH0 MSTORE PUSH1 0x20 PUSH0 KECCAK256 SWAP1 PUSH1 0x2 SHL ADD SWAP1 PUSH0 SWAP1 JUMP JUMPDEST ISZERO PUSH2 0x45F5 JUMPI JUMP JUMPDEST PUSH1 0x40 MLOAD PUSH3 0x461BCD PUSH1 0xE5 SHL DUP2 MSTORE PUSH1 0x20 PUSH1 0x4 DUP3 ADD MSTORE PUSH1 0xF PUSH1 0x24 DUP3 ADD MSTORE PUSH15 0x125B9D985B1A59081B185B99081251 PUSH1 0x8A SHL PUSH1 0x44 DUP3 ADD MSTORE PUSH1 0x64 SWAP1 REVERT JUMPDEST ISZERO PUSH2 0x4633 JUMPI JUMP JUMPDEST PUSH1 0x40 MLOAD PUSH3 0x461BCD PUSH1 0xE5 SHL DUP2 MSTORE PUSH1 0x20 PUSH1 0x4 DUP3 ADD MSTORE PUSH1 0x22 PUSH1 0x24 DUP3 ADD MSTORE PUSH32 0x596F7520617265206E6F7420746865206F776E6572206F662074686973206C61 PUSH1 0x44 DUP3 ADD MSTORE PUSH2 0x1B99 PUSH1 0xF2 SHL PUSH1 0x64 DUP3 ADD MSTORE PUSH1 0x84 SWAP1 REVERT JUMPDEST ISZERO PUSH2 0x468A JUMPI JUMP JUMPDEST PUSH1 0x40 MLOAD PUSH3 0x461BCD PUSH1 0xE5 SHL DUP2 MSTORE PUSH1 0x20 PUSH1 0x4 DUP3 ADD MSTORE PUSH1 0x18 PUSH1 0x24 DUP3 ADD MSTORE PUSH32 0x4C616E642069732063757272656E746C792072656E7465640000000000000000 PUSH1 0x44 DUP3 ADD MSTORE PUSH1 0x64 SWAP1 REVERT JUMPDEST SWAP2 SWAP1 DUP3 SUB SWAP2 DUP3 GT PUSH2 0x614 JUMPI JUMP JUMPDEST ISZERO PUSH2 0x46E3 JUMPI JUMP JUMPDEST PUSH1 0x40 MLOAD PUSH3 0x461BCD PUSH1 0xE5 SHL DUP2 MSTORE PUSH1 0x20 PUSH1 0x4 DUP3 ADD MSTORE PUSH1 0x11 PUSH1 0x24 DUP3 ADD MSTORE PUSH17 0x426964206973206E6F7420616374697665 PUSH1 0x78 SHL PUSH1 0x44 DUP3 ADD MSTORE PUSH1 0x64 SWAP1 REVERT JUMPDEST DUP2 DUP2 MUL SWAP3 SWAP2 DUP2 ISZERO SWAP2 DUP5 DIV EQ OR ISZERO PUSH2 0x614 JUMPI JUMP JUMPDEST DUP2 DUP2 LT PUSH2 0x473A JUMPI POP POP JUMP JUMPDEST PUSH0 DUP2 SSTORE PUSH1 0x1 ADD PUSH2 0x472F JUMP JUMPDEST SWAP2 SWAP1 SWAP2 DUP3 MLOAD PUSH1 0x1 PUSH1 0x1 PUSH1 0x40 SHL SUB DUP2 GT PUSH2 0x1E4D JUMPI PUSH2 0x4762 DUP3 SLOAD PUSH2 0x4410 JUMP JUMPDEST PUSH1 0x1F DUP2 GT PUSH2 0x4802 JUMPI JUMPDEST POP PUSH1 0x20 PUSH1 0x1F DUP3 GT PUSH1 0x1 EQ PUSH2 0x47A4 JUMPI DUP2 SWAP3 SWAP4 SWAP5 PUSH0 SWAP3 PUSH2 0x4799 JUMPI JUMPDEST POP POP DUP2 PUSH1 0x1 SHL SWAP2 PUSH0 NOT SWAP1 PUSH1 0x3 SHL SHR NOT AND OR SWAP1 SSTORE JUMP JUMPDEST ADD MLOAD SWAP1 POP PUSH0 DUP1 PUSH2 0x4784 JUMP JUMPDEST PUSH1 0x1F NOT DUP3 AND SWAP1 DUP4 PUSH0 MSTORE DUP1 PUSH0 KECCAK256 SWAP2 PUSH0 JUMPDEST DUP2 DUP2 LT PUSH2 0x47EA JUMPI POP SWAP6 DUP4 PUSH1 0x1 SWAP6 SWAP7 SWAP8 LT PUSH2 0x47D2 JUMPI JUMPDEST POP POP POP DUP2 SHL ADD SWAP1 SSTORE JUMP JUMPDEST ADD MLOAD PUSH0 NOT PUSH1 0xF8 DUP5 PUSH1 0x3 SHL AND SHR NOT AND SWAP1 SSTORE PUSH0 DUP1 DUP1 PUSH2 0x47C8 JUMP JUMPDEST SWAP2 SWAP3 PUSH1 0x20 PUSH1 0x1 DUP2 SWAP3 DUP7 DUP12 ADD MLOAD DUP2 SSTORE ADD SWAP5 ADD SWAP3 ADD PUSH2 0x47B3 JUMP JUMPDEST PUSH2 0x482D SWAP1 DUP4 PUSH0 MSTORE PUSH1 0x20 PUSH0 KECCAK256 PUSH1 0x1F DUP5 ADD PUSH1 0x5 SHR DUP2 ADD SWAP2 PUSH1 0x20 DUP6 LT PUSH2 0x4833 JUMPI JUMPDEST PUSH1 0x1F ADD PUSH1 0x5 SHR ADD SWAP1 PUSH2 0x472F JUMP JUMPDEST PUSH0 PUSH2 0x476B JUMP JUMPDEST SWAP1 SWAP2 POP DUP2 SWAP1 PUSH2 0x4820 JUMP JUMPDEST DUP1 SLOAD PUSH1 0x1 PUSH1 0x40 SHL DUP2 LT ISZERO PUSH2 0x1E4D JUMPI PUSH2 0x485A SWAP2 PUSH1 0x1 DUP3 ADD DUP2 SSTORE PUSH2 0x4596 JUMP JUMPDEST SWAP2 SWAP1 SWAP2 PUSH2 0x1E3A JUMPI PUSH2 0x4480 SWAP2 PUSH2 0x4745 JUMP JUMPDEST SWAP1 DUP2 SLOAD SWAP2 PUSH1 0x1 PUSH1 0x40 SHL DUP4 LT ISZERO PUSH2 0x1E4D JUMPI DUP3 PUSH2 0x488D SWAP2 PUSH1 0x1 PUSH2 0x4480 SWAP6 ADD DUP2 SSTORE PUSH2 0x4596 JUMP JUMPDEST SWAP1 SWAP2 SWAP1 DUP3 SLOAD SWAP1 PUSH1 0x3 SHL SWAP2 DUP3 SHL SWAP2 PUSH0 NOT SWAP1 SHL NOT AND OR SWAP1 SSTORE JUMP JUMPDEST SWAP1 PUSH1 0x40 MLOAD SWAP2 DUP3 DUP2 SLOAD SWAP2 DUP3 DUP3 MSTORE PUSH1 0x20 DUP3 ADD SWAP1 PUSH0 MSTORE PUSH1 0x20 PUSH0 KECCAK256 SWAP3 PUSH0 JUMPDEST DUP2 DUP2 LT PUSH2 0x48D4 JUMPI POP POP PUSH2 0x4480 SWAP3 POP SUB DUP4 PUSH2 0x4326 JUMP JUMPDEST DUP5 SLOAD DUP4 MSTORE PUSH1 0x1 SWAP5 DUP6 ADD SWAP5 DUP8 SWAP5 POP PUSH1 0x20 SWAP1 SWAP4 ADD SWAP3 ADD PUSH2 0x48BF JUMP JUMPDEST SWAP2 SWAP1 DUP3 ADD DUP1 SWAP3 GT PUSH2 0x614 JUMPI JUMP JUMPDEST DUP1 MLOAD ISZERO PUSH2 0x45AB JUMPI PUSH1 0x20 ADD SWAP1 JUMP JUMPDEST DUP1 MLOAD DUP3 LT ISZERO PUSH2 0x45AB JUMPI PUSH1 0x20 SWAP2 PUSH1 0x5 SHL ADD ADD SWAP1 JUMP JUMPDEST PUSH0 NOT DUP2 EQ PUSH2 0x614 JUMPI PUSH1 0x1 ADD SWAP1 JUMP JUMPDEST ISZERO PUSH2 0x4930 JUMPI JUMP JUMPDEST PUSH1 0x40 MLOAD PUSH3 0x461BCD PUSH1 0xE5 SHL DUP2 MSTORE PUSH1 0x20 PUSH1 0x4 DUP3 ADD MSTORE PUSH1 0x2B PUSH1 0x24 DUP3 ADD MSTORE PUSH32 0x4F6E6C7920636F6E7472616374206F776E65722063616E20706572666F726D20 PUSH1 0x44 DUP3 ADD MSTORE PUSH11 0x3A3434B99030B1BA34B7B7 PUSH1 0xA9 SHL PUSH1 0x64 DUP3 ADD MSTORE PUSH1 0x84 SWAP1 REVERT JUMPDEST ISZERO PUSH2 0x4990 JUMPI JUMP JUMPDEST PUSH1 0x40 MLOAD PUSH3 0x461BCD PUSH1 0xE5 SHL DUP2 MSTORE PUSH1 0x20 PUSH1 0x4 DUP3 ADD MSTORE PUSH1 0x12 PUSH1 0x24 DUP3 ADD MSTORE PUSH18 0x125B9D985B1A5908185D58DD1A5BDB881251 PUSH1 0x72 SHL PUSH1 0x44 DUP3 ADD MSTORE PUSH1 0x64 SWAP1 REVERT JUMPDEST ISZERO PUSH2 0x49D1 JUMPI JUMP JUMPDEST PUSH1 0x40 MLOAD PUSH3 0x461BCD PUSH1 0xE5 SHL DUP2 MSTORE PUSH1 0x20 PUSH1 0x4 DUP3 ADD MSTORE PUSH1 0x15 PUSH1 0x24 DUP3 ADD MSTORE PUSH21 0x41756374696F6E206973206E6F7420616374697665 PUSH1 0x58 SHL PUSH1 0x44 DUP3 ADD MSTORE PUSH1 0x64 SWAP1 REVERT JUMPDEST ISZERO PUSH2 0x4A15 JUMPI JUMP JUMPDEST PUSH1 0x40 MLOAD PUSH3 0x461BCD PUSH1 0xE5 SHL DUP2 MSTORE PUSH1 0x20 PUSH1 0x4 DUP3 ADD MSTORE PUSH1 0x10 PUSH1 0x24 DUP3 ADD MSTORE PUSH16 0x24B73B30B634B210323AB930BA34B7B7 PUSH1 0x81 SHL PUSH1 0x44 DUP3 ADD MSTORE PUSH1 0x64 SWAP1 REVERT JUMPDEST ISZERO PUSH2 0x4A54 JUMPI JUMP JUMPDEST PUSH1 0x40 MLOAD PUSH3 0x461BCD PUSH1 0xE5 SHL DUP2 MSTORE PUSH1 0x20 PUSH1 0x4 DUP3 ADD MSTORE PUSH1 0x16 PUSH1 0x24 DUP3 ADD MSTORE PUSH22 0x13185B99081A5CC8185B1C9958591E481C995B9D1959 PUSH1 0x52 SHL PUSH1 0x44 DUP3 ADD MSTORE PUSH1 0x64 SWAP1 REVERT JUMPDEST PUSH1 0x40 DUP1 MLOAD SWAP1 SWAP2 SWAP1 PUSH2 0x4AA3 DUP4 DUP3 PUSH2 0x4326 JUMP JUMPDEST PUSH1 0x1 DUP2 MSTORE SWAP2 PUSH1 0x1F NOT ADD DUP3 PUSH0 JUMPDEST DUP3 DUP2 LT PUSH2 0x4ABB JUMPI POP POP POP JUMP JUMPDEST DUP1 PUSH1 0x60 PUSH1 0x20 DUP1 SWAP4 DUP6 ADD ADD MSTORE ADD PUSH2 0x4AAF JUMP JUMPDEST SWAP1 PUSH2 0x4AD6 DUP2 PUSH2 0x450C JUMP JUMPDEST PUSH2 0xFF00 DUP3 SLOAD SWAP2 PUSH1 0x8 SHL AND SWAP1 PUSH2 0xFF00 NOT AND OR SWAP1 SSTORE JUMP JUMPDEST SWAP1 PUSH2 0x4AF5 DUP2 PUSH2 0x450C JUMP JUMPDEST PUSH3 0xFF0000 DUP3 SLOAD SWAP2 PUSH1 0x10 SHL AND SWAP1 PUSH3 0xFF0000 NOT AND OR SWAP1 SSTORE JUMP JUMPDEST SWAP1 PUSH1 0x6 DUP2 LT ISZERO PUSH2 0x855 JUMPI PUSH4 0xFF000000 DUP3 SLOAD SWAP2 PUSH1 0x18 SHL AND SWAP1 PUSH4 0xFF000000 NOT AND OR SWAP1 SSTORE JUMP JUMPDEST PUSH2 0x4B39 DUP2 SLOAD PUSH2 0x4410 JUMP JUMPDEST SWAP1 DUP2 PUSH2 0x4B43 JUMPI POP POP JUMP JUMPDEST DUP2 PUSH1 0x1F PUSH0 SWAP4 GT PUSH1 0x1 EQ PUSH2 0x4B54 JUMPI POP SSTORE JUMP JUMPDEST DUP2 DUP4 MSTORE PUSH1 0x20 DUP4 KECCAK256 PUSH2 0x4B70 SWAP2 PUSH1 0x1F ADD PUSH1 0x5 SHR DUP2 ADD SWAP1 PUSH1 0x1 ADD PUSH2 0x472F JUMP JUMPDEST DUP1 DUP3 MSTORE DUP2 PUSH1 0x20 DUP2 KECCAK256 SWAP2 SSTORE SSTORE JUMP JUMPDEST SWAP1 PUSH1 0x1 PUSH1 0x40 SHL DUP2 GT PUSH2 0x1E4D JUMPI DUP2 SLOAD SWAP2 DUP2 DUP2 SSTORE DUP3 DUP3 LT PUSH2 0x4B9B JUMPI POP POP POP JUMP JUMPDEST PUSH0 MSTORE PUSH1 0x20 PUSH0 KECCAK256 SWAP2 DUP3 ADD SWAP2 ADD JUMPDEST DUP2 DUP2 LT PUSH2 0x4BB2 JUMPI POP POP JUMP JUMPDEST DUP1 PUSH2 0x4BBE PUSH1 0x1 SWAP3 PUSH2 0x4B2F JUMP JUMPDEST ADD PUSH2 0x4BA7 JUMP JUMPDEST PUSH0 DUP2 SSTORE PUSH0 PUSH1 0x1 DUP3 ADD SSTORE PUSH2 0x4BD9 PUSH1 0x2 DUP3 ADD PUSH2 0x4B2F JUMP JUMPDEST PUSH0 PUSH1 0x3 DUP3 ADD SSTORE PUSH0 PUSH1 0x4 DUP3 ADD SSTORE PUSH0 PUSH1 0x5 DUP3 ADD SSTORE PUSH0 PUSH1 0x6 DUP3 ADD SSTORE PUSH0 PUSH1 0x7 DUP3 ADD SSTORE PUSH0 PUSH1 0x8 DUP3 ADD SSTORE PUSH0 PUSH1 0x9 DUP3 ADD SSTORE PUSH1 0xA DUP2 ADD DUP1 SLOAD SWAP1 PUSH0 DUP2 SSTORE DUP2 PUSH2 0x4C47 JUMPI JUMPDEST POP POP PUSH1 0x13 DUP2 PUSH0 PUSH1 0xB DUP2 SWAP5 ADD SSTORE DUP3 PUSH1 0xC DUP3 ADD SSTORE DUP3 PUSH1 0xD DUP3 ADD SSTORE DUP3 PUSH1 0xE DUP3 ADD SSTORE DUP3 PUSH1 0xF DUP3 ADD SSTORE DUP3 PUSH1 0x10 DUP3 ADD SSTORE DUP3 PUSH1 0x12 DUP3 ADD SSTORE ADD SSTORE JUMP JUMPDEST PUSH0 MSTORE PUSH1 0x20 PUSH0 KECCAK256 SWAP1 DUP2 ADD SWAP1 JUMPDEST DUP2 DUP2 LT ISZERO PUSH2 0x4C13 JUMPI DUP1 PUSH2 0x4C66 PUSH1 0x1 SWAP3 PUSH2 0x4B2F JUMP JUMPDEST ADD PUSH2 0x4C52 JUMP JUMPDEST SWAP1 PUSH2 0x4C76 DUP3 PUSH2 0x439C JUMP JUMPDEST PUSH2 0x4C83 PUSH1 0x40 MLOAD SWAP2 DUP3 PUSH2 0x4326 JUMP JUMPDEST DUP3 DUP2 MSTORE DUP1 SWAP3 PUSH2 0x4C94 PUSH1 0x1F NOT SWAP2 PUSH2 0x439C JUMP JUMPDEST ADD SWAP1 PUSH1 0x20 CALLDATASIZE SWAP2 ADD CALLDATACOPY JUMP JUMPDEST ISZERO PUSH2 0x4CA5 JUMPI JUMP JUMPDEST PUSH1 0x40 MLOAD PUSH3 0x461BCD PUSH1 0xE5 SHL DUP2 MSTORE PUSH1 0x20 PUSH1 0x4 DUP3 ADD MSTORE PUSH1 0x17 PUSH1 0x24 DUP3 ADD MSTORE PUSH32 0x496E76616C6964206E65696768626F72686F6F64204944000000000000000000 PUSH1 0x44 DUP3 ADD MSTORE PUSH1 0x64 SWAP1 REVERT JUMPDEST SWAP1 DUP2 MLOAD DUP2 LT ISZERO PUSH2 0x45AB JUMPI ADD PUSH1 0x20 ADD SWAP1 JUMP JUMPDEST PUSH1 0x1 DUP1 PUSH1 0xA0 SHL SUB AND PUSH1 0x40 MLOAD PUSH2 0x4D11 PUSH1 0x40 DUP3 PUSH2 0x4326 JUMP JUMPDEST PUSH1 0x10 DUP2 MSTORE PUSH16 0x181899199A1A9B1B9C1CB0B131B232B3 PUSH1 0x81 SHL PUSH1 0x20 DUP3 ADD MSTORE PUSH1 0x40 MLOAD SWAP2 PUSH2 0x4D3D PUSH1 0x60 DUP5 PUSH2 0x4326 JUMP JUMPDEST PUSH1 0x2A DUP4 MSTORE PUSH1 0x20 DUP4 ADD PUSH1 0x40 CALLDATASIZE DUP3 CALLDATACOPY DUP4 MLOAD ISZERO PUSH2 0x45AB JUMPI PUSH1 0x30 SWAP1 MSTORE8 DUP3 MLOAD PUSH1 0x1 LT ISZERO PUSH2 0x45AB JUMPI PUSH1 0x78 PUSH1 0x21 DUP5 ADD MSTORE8 PUSH0 JUMPDEST PUSH1 0x14 DUP2 LT PUSH2 0x4D76 JUMPI POP POP POP SWAP1 JUMP JUMPDEST PUSH1 0xC DUP2 ADD DUP1 DUP3 GT PUSH2 0x614 JUMPI PUSH1 0x20 DUP2 LT ISZERO PUSH2 0x45AB JUMPI DUP3 SWAP1 BYTE SWAP1 PUSH1 0x1 PUSH1 0x1 PUSH1 0xF8 SHL SUB NOT PUSH2 0x4DA8 PUSH1 0x4 DUP5 SWAP1 SHR PUSH1 0xF AND DUP7 PUSH2 0x4CEA JUMP JUMPDEST MLOAD AND SWAP2 DUP2 PUSH1 0x1 SHL SWAP3 DUP3 DUP5 DIV PUSH1 0x2 EQ DUP4 ISZERO OR ISZERO PUSH2 0x614 JUMPI DUP4 PUSH1 0x2 ADD SWAP1 DUP2 PUSH1 0x2 GT PUSH2 0x614 JUMPI PUSH2 0x4DD8 SWAP1 PUSH0 BYTE SWAP2 DUP9 PUSH2 0x4CEA JUMP JUMPDEST MSTORE8 PUSH1 0x1 PUSH1 0x1 PUSH1 0xF8 SHL SUB NOT SWAP1 PUSH2 0x4DF0 SWAP1 PUSH1 0xF AND DUP7 PUSH2 0x4CEA JUMP JUMPDEST MLOAD AND SWAP2 PUSH1 0x3 ADD DUP1 PUSH1 0x3 GT PUSH2 0x614 JUMPI PUSH2 0x4E0D PUSH1 0x1 SWAP4 PUSH0 BYTE SWAP2 DUP8 PUSH2 0x4CEA JUMP JUMPDEST MSTORE8 ADD PUSH2 0x4D68 JUMP JUMPDEST PUSH1 0x1 PUSH1 0x1 PUSH1 0xA0 SHL SUB AND PUSH0 SWAP1 DUP2 MSTORE PUSH1 0x3 PUSH1 0x20 MSTORE PUSH1 0x40 DUP2 KECCAK256 SWAP1 JUMPDEST DUP2 SLOAD DUP1 DUP3 LT ISZERO PUSH2 0x4EBD JUMPI DUP4 PUSH2 0x4E41 DUP4 DUP6 PUSH2 0x4596 JUMP JUMPDEST SWAP1 SLOAD SWAP1 PUSH1 0x3 SHL SHR EQ PUSH2 0x4E56 JUMPI POP PUSH1 0x1 ADD PUSH2 0x4E2C JUMP JUMPDEST SWAP2 SWAP3 POP PUSH0 NOT DUP3 ADD SWAP2 DUP3 GT PUSH2 0x614 JUMPI PUSH2 0x488D PUSH2 0x4E74 PUSH2 0x4E82 SWAP4 DUP6 PUSH2 0x4596 JUMP JUMPDEST SWAP1 SLOAD SWAP1 PUSH1 0x3 SHL SHR SWAP2 DUP5 PUSH2 0x4596 JUMP JUMPDEST DUP1 SLOAD DUP1 ISZERO PUSH2 0x4EA9 JUMPI PUSH0 NOT ADD SWAP1 PUSH2 0x4E98 DUP3 DUP3 PUSH2 0x4596 JUMP JUMPDEST DUP2 SLOAD SWAP1 PUSH0 NOT SWAP1 PUSH1 0x3 SHL SHL NOT AND SWAP1 SSTORE SSTORE JUMP JUMPDEST PUSH4 0x4E487B71 PUSH1 0xE0 SHL PUSH0 MSTORE PUSH1 0x31 PUSH1 0x4 MSTORE PUSH1 0x24 PUSH0 REVERT JUMPDEST POP POP POP POP JUMP INVALID LOG2 PUSH5 0x6970667358 0x22 SLT KECCAK256 PUSH30 0x3CD4A4E324F9438EEA8EBCD1EE8BDFB7FAAFA4C45583471803C7416BA1F1 TLOAD PUSH5 0x736F6C6343 STOP ADDMOD 0x1E STOP CALLER "
		},
		"gasEstimates": {
			"creation": {
				"codeDepositCost": "4043400",
				"executionCost": "112330",
				"totalCost": "4155730"
			},
			"external": {
				"TAX_PERIOD()": "820",
				"acceptBid(uint256,address)": "infinite",
				"addLandToNeighborhood(uint256,uint256)": "110966",
				"auctions(uint256)": "17817",
				"bidOnAuction(uint256)": "infinite",
				"bidderIndex(uint256,address)": "3162",
				"calculateTaxDue(uint256)": "infinite",
				"cancelAuction(uint256)": "infinite",
				"cancelBid(uint256)": "infinite",
				"contractOwner()": "3101",
				"createAuction(uint256,uint256,uint256)": "infinite",
				"createNeighborhood(string,uint256[])": "infinite",
				"developLand(uint256)": "63771",
				"endAuction(uint256)": "infinite",
				"endRental(uint256)": "50275",
				"getActiveAuctions()": "infinite",
				"getAuctionDetails(uint256)": "21070",
				"getLandBids(uint256)": "infinite",
				"getLandDetails(uint256)": "infinite",
				"getLandHistory(uint256)": "infinite",
				"getLandResources(uint256)": "7135",
				"getMyLands()": "infinite",
				"getNeighborhoodDetails(uint256)": "infinite",
				"getRentalInfo(uint256)": "13308",
				"isWhitelisted(uint256,address)": "5135",
				"landBids(uint256,uint256)": "14056",
				"landParcels(uint256)": "infinite",
				"landToNeighborhood(uint256)": "2592",
				"listLandForRent(uint256,uint256,uint256)": "75715",
				"listLandForSale(uint256,uint256)": "57986",
				"mergeLands(uint256[],string)": "infinite",
				"neighborhoods(uint256)": "infinite",
				"payLandTax(uint256)": "infinite",
				"placeBid(uint256)": "153093",
				"platformFeePercent()": "2769",
				"platformWallet()": "3321",
				"purchaseLand(uint256)": "infinite",
				"registerLand(string,uint256,uint8,uint8,uint8,bool,bool,bool)": "infinite",
				"registerLandBasic(string,uint256)": "infinite",
				"rentLand(uint256)": "infinite",
				"setPrivateSale(uint256,bool)": "29390",
				"splitLand(uint256,uint256[],string[])": "infinite",
				"taxRatePerYear()": "3209",
				"totalAuctions()": "2329",
				"totalNeighborhoods()": "3099",
				"totalParcels()": "2791",
				"updatePlatformFee(uint256)": "25057",
				"updatePlatformWallet(address)": "27340",
				"updateTaxRate(uint256)": "24551",
				"updateWhitelist(uint256,address,bool)": "31203",
				"userLands(address,uint256)": "7664"
			},
			"internal": {
				"addressToString(address)": "infinite",
				"removeFromUserLands(address,uint256)": "infinite"
			}
		},
		"methodIdentifiers": {
			"TAX_PERIOD()": "abcac4f4",
			"acceptBid(uint256,address)": "02068664",
			"addLandToNeighborhood(uint256,uint256)": "f046fc01",
			"auctions(uint256)": "571a26a0",
			"bidOnAuction(uint256)": "26b7aeea",
			"bidderIndex(uint256,address)": "ad33a6f5",
			"calculateTaxDue(uint256)": "1535a96e",
			"cancelAuction(uint256)": "96b5a755",
			"cancelBid(uint256)": "9703ef35",
			"contractOwner()": "ce606ee0",
			"createAuction(uint256,uint256,uint256)": "cda4beef",
			"createNeighborhood(string,uint256[])": "16830e76",
			"developLand(uint256)": "1ca09098",
			"endAuction(uint256)": "b9a2de3a",
			"endRental(uint256)": "97491d6f",
			"getActiveAuctions()": "cf44b5d5",
			"getAuctionDetails(uint256)": "f20e5e35",
			"getLandBids(uint256)": "e0b04813",
			"getLandDetails(uint256)": "fe0cb7dc",
			"getLandHistory(uint256)": "4f389721",
			"getLandResources(uint256)": "5dedf657",
			"getMyLands()": "0695b9c3",
			"getNeighborhoodDetails(uint256)": "f84df874",
			"getRentalInfo(uint256)": "27dc3fbd",
			"isWhitelisted(uint256,address)": "7d22c35c",
			"landBids(uint256,uint256)": "e3f8da54",
			"landParcels(uint256)": "20e7c6d4",
			"landToNeighborhood(uint256)": "31a16ae4",
			"listLandForRent(uint256,uint256,uint256)": "27cdfaf0",
			"listLandForSale(uint256,uint256)": "fd1a8fef",
			"mergeLands(uint256[],string)": "37be3805",
			"neighborhoods(uint256)": "16f21470",
			"payLandTax(uint256)": "fa5d6387",
			"placeBid(uint256)": "9979ef45",
			"platformFeePercent()": "8c639a85",
			"platformWallet()": "fa2af9da",
			"purchaseLand(uint256)": "8009d5d7",
			"registerLand(string,uint256,uint8,uint8,uint8,bool,bool,bool)": "444a2814",
			"registerLandBasic(string,uint256)": "62861202",
			"rentLand(uint256)": "b06f9c9a",
			"setPrivateSale(uint256,bool)": "8498129f",
			"splitLand(uint256,uint256[],string[])": "cba7e034",
			"taxRatePerYear()": "e65459b6",
			"totalAuctions()": "16002f4a",
			"totalNeighborhoods()": "ce9c70cb",
			"totalParcels()": "94fafc58",
			"updatePlatformFee(uint256)": "aa0b5988",
			"updatePlatformWallet(address)": "ada4ef30",
			"updateTaxRate(uint256)": "17fdcc8e",
			"updateWhitelist(uint256,address,bool)": "3d4602a9",
			"userLands(address,uint256)": "dc219adc"
		}
	},
	"abi": [
		{
			"inputs": [],
			"stateMutability": "nonpayable",
			"type": "constructor"
		},
		{
			"anonymous": false,
			"inputs": [
				{
					"indexed": true,
					"internalType": "uint256",
					"name": "auctionId",
					"type": "uint256"
				},
				{
					"indexed": true,
					"internalType": "address",
					"name": "bidder",
					"type": "address"
				},
				{
					"indexed": false,
					"internalType": "uint256",
					"name": "amount",
					"type": "uint256"
				}
			],
			"name": "AuctionBidPlaced",
			"type": "event"
		},
		{
			"anonymous": false,
			"inputs": [
				{
					"indexed": true,
					"internalType": "uint256",
					"name": "auctionId",
					"type": "uint256"
				},
				{
					"indexed": true,
					"internalType": "uint256",
					"name": "landId",
					"type": "uint256"
				},
				{
					"indexed": false,
					"internalType": "uint256",
					"name": "startPrice",
					"type": "uint256"
				},
				{
					"indexed": false,
					"internalType": "uint256",
					"name": "endTime",
					"type": "uint256"
				}
			],
			"name": "AuctionCreated",
			"type": "event"
		},
		{
			"anonymous": false,
			"inputs": [
				{
					"indexed": true,
					"internalType": "uint256",
					"name": "auctionId",
					"type": "uint256"
				},
				{
					"indexed": true,
					"internalType": "address",
					"name": "winner",
					"type": "address"
				},
				{
					"indexed": false,
					"internalType": "uint256",
					"name": "amount",
					"type": "uint256"
				}
			],
			"name": "AuctionEnded",
			"type": "event"
		},
		{
			"anonymous": false,
			"inputs": [
				{
					"indexed": true,
					"internalType": "uint256",
					"name": "landId",
					"type": "uint256"
				},
				{
					"indexed": true,
					"internalType": "address",
					"name": "seller",
					"type": "address"
				},
				{
					"indexed": true,
					"internalType": "address",
					"name": "buyer",
					"type": "address"
				},
				{
					"indexed": false,
					"internalType": "uint256",
					"name": "amount",
					"type": "uint256"
				}
			],
			"name": "BidAccepted",
			"type": "event"
		},
		{
			"anonymous": false,
			"inputs": [
				{
					"indexed": true,
					"internalType": "uint256",
					"name": "landId",
					"type": "uint256"
				},
				{
					"indexed": true,
					"internalType": "address",
					"name": "bidder",
					"type": "address"
				}
			],
			"name": "BidCancelled",
			"type": "event"
		},
		{
			"anonymous": false,
			"inputs": [
				{
					"indexed": true,
					"internalType": "uint256",
					"name": "landId",
					"type": "uint256"
				},
				{
					"indexed": true,
					"internalType": "address",
					"name": "bidder",
					"type": "address"
				},
				{
					"indexed": false,
					"internalType": "uint256",
					"name": "amount",
					"type": "uint256"
				}
			],
			"name": "BidPlaced",
			"type": "event"
		},
		{
			"anonymous": false,
			"inputs": [
				{
					"indexed": true,
					"internalType": "uint256",
					"name": "landId",
					"type": "uint256"
				},
				{
					"indexed": true,
					"internalType": "uint256",
					"name": "neighborhoodId",
					"type": "uint256"
				}
			],
			"name": "LandAddedToNeighborhood",
			"type": "event"
		},
		{
			"anonymous": false,
			"inputs": [
				{
					"indexed": true,
					"internalType": "uint256",
					"name": "landId",
					"type": "uint256"
				},
				{
					"indexed": false,
					"internalType": "uint256",
					"name": "resourceLevel",
					"type": "uint256"
				},
				{
					"indexed": false,
					"internalType": "uint256",
					"name": "developmentStage",
					"type": "uint256"
				}
			],
			"name": "LandAttributesUpdated",
			"type": "event"
		},
		{
			"anonymous": false,
			"inputs": [
				{
					"indexed": true,
					"internalType": "uint256",
					"name": "landId",
					"type": "uint256"
				},
				{
					"indexed": false,
					"internalType": "uint256",
					"name": "price",
					"type": "uint256"
				}
			],
			"name": "LandListedForSale",
			"type": "event"
		},
		{
			"anonymous": false,
			"inputs": [
				{
					"indexed": true,
					"internalType": "uint256",
					"name": "landId",
					"type": "uint256"
				},
				{
					"indexed": true,
					"internalType": "address",
					"name": "previousOwner",
					"type": "address"
				},
				{
					"indexed": true,
					"internalType": "address",
					"name": "newOwner",
					"type": "address"
				},
				{
					"indexed": false,
					"internalType": "uint256",
					"name": "price",
					"type": "uint256"
				}
			],
			"name": "LandPurchased",
			"type": "event"
		},
		{
			"anonymous": false,
			"inputs": [
				{
					"indexed": true,
					"internalType": "uint256",
					"name": "landId",
					"type": "uint256"
				},
				{
					"indexed": true,
					"internalType": "address",
					"name": "owner",
					"type": "address"
				},
				{
					"indexed": false,
					"internalType": "string",
					"name": "location",
					"type": "string"
				},
				{
					"indexed": false,
					"internalType": "uint256",
					"name": "size",
					"type": "uint256"
				},
				{
					"indexed": false,
					"internalType": "enum MetaLand.LandCategory",
					"name": "category",
					"type": "uint8"
				},
				{
					"indexed": false,
					"internalType": "enum MetaLand.RarityLevel",
					"name": "rarity",
					"type": "uint8"
				}
			],
			"name": "LandRegistered",
			"type": "event"
		},
		{
			"anonymous": false,
			"inputs": [
				{
					"indexed": true,
					"internalType": "uint256",
					"name": "landId",
					"type": "uint256"
				},
				{
					"indexed": true,
					"internalType": "address",
					"name": "tenant",
					"type": "address"
				},
				{
					"indexed": false,
					"internalType": "uint256",
					"name": "rentPrice",
					"type": "uint256"
				},
				{
					"indexed": false,
					"internalType": "uint256",
					"name": "duration",
					"type": "uint256"
				}
			],
			"name": "LandRented",
			"type": "event"
		},
		{
			"anonymous": false,
			"inputs": [
				{
					"indexed": true,
					"internalType": "uint256",
					"name": "originalLandId",
					"type": "uint256"
				},
				{
					"indexed": false,
					"internalType": "uint256[]",
					"name": "newLandIds",
					"type": "uint256[]"
				},
				{
					"indexed": true,
					"internalType": "address",
					"name": "owner",
					"type": "address"
				}
			],
			"name": "LandSplit",
			"type": "event"
		},
		{
			"anonymous": false,
			"inputs": [
				{
					"indexed": true,
					"internalType": "uint256",
					"name": "newLandId",
					"type": "uint256"
				},
				{
					"indexed": false,
					"internalType": "uint256[]",
					"name": "mergedLandIds",
					"type": "uint256[]"
				},
				{
					"indexed": true,
					"internalType": "address",
					"name": "owner",
					"type": "address"
				}
			],
			"name": "LandsMerged",
			"type": "event"
		},
		{
			"anonymous": false,
			"inputs": [
				{
					"indexed": true,
					"internalType": "uint256",
					"name": "neighborhoodId",
					"type": "uint256"
				},
				{
					"indexed": false,
					"internalType": "string",
					"name": "name",
					"type": "string"
				},
				{
					"indexed": true,
					"internalType": "address",
					"name": "creator",
					"type": "address"
				}
			],
			"name": "NeighborhoodCreated",
			"type": "event"
		},
		{
			"anonymous": false,
			"inputs": [
				{
					"indexed": true,
					"internalType": "uint256",
					"name": "landId",
					"type": "uint256"
				},
				{
					"indexed": true,
					"internalType": "address",
					"name": "tenant",
					"type": "address"
				}
			],
			"name": "RentEnded",
			"type": "event"
		},
		{
			"anonymous": false,
			"inputs": [
				{
					"indexed": true,
					"internalType": "uint256",
					"name": "landId",
					"type": "uint256"
				},
				{
					"indexed": false,
					"internalType": "uint256",
					"name": "amount",
					"type": "uint256"
				}
			],
			"name": "TaxPaid",
			"type": "event"
		},
		{
			"anonymous": false,
			"inputs": [
				{
					"indexed": true,
					"internalType": "uint256",
					"name": "landId",
					"type": "uint256"
				},
				{
					"indexed": true,
					"internalType": "address",
					"name": "user",
					"type": "address"
				},
				{
					"indexed": false,
					"internalType": "bool",
					"name": "status",
					"type": "bool"
				}
			],
			"name": "WhitelistUpdated",
			"type": "event"
		},
		{
			"inputs": [],
			"name": "TAX_PERIOD",
			"outputs": [
				{
					"internalType": "uint256",
					"name": "",
					"type": "uint256"
				}
			],
			"stateMutability": "view",
			"type": "function"
		},
		{
			"inputs": [
				{
					"internalType": "uint256",
					"name": "_landId",
					"type": "uint256"
				},
				{
					"internalType": "address",
					"name": "_bidder",
					"type": "address"
				}
			],
			"name": "acceptBid",
			"outputs": [],
			"stateMutability": "nonpayable",
			"type": "function"
		},
		{
			"inputs": [
				{
					"internalType": "uint256",
					"name": "_landId",
					"type": "uint256"
				},
				{
					"internalType": "uint256",
					"name": "_neighborhoodId",
					"type": "uint256"
				}
			],
			"name": "addLandToNeighborhood",
			"outputs": [],
			"stateMutability": "nonpayable",
			"type": "function"
		},
		{
			"inputs": [
				{
					"internalType": "uint256",
					"name": "",
					"type": "uint256"
				}
			],
			"name": "auctions",
			"outputs": [
				{
					"internalType": "uint256",
					"name": "landId",
					"type": "uint256"
				},
				{
					"internalType": "address",
					"name": "seller",
					"type": "address"
				},
				{
					"internalType": "uint256",
					"name": "startPrice",
					"type": "uint256"
				},
				{
					"internalType": "uint256",
					"name": "currentBid",
					"type": "uint256"
				},
				{
					"internalType": "address",
					"name": "highestBidder",
					"type": "address"
				},
				{
					"internalType": "uint256",
					"name": "startTime",
					"type": "uint256"
				},
				{
					"internalType": "uint256",
					"name": "endTime",
					"type": "uint256"
				},
				{
					"internalType": "enum MetaLand.AuctionStatus",
					"name": "status",
					"type": "uint8"
				},
				{
					"internalType": "bool",
					"name": "ended",
					"type": "bool"
				}
			],
			"stateMutability": "view",
			"type": "function"
		},
		{
			"inputs": [
				{
					"internalType": "uint256",
					"name": "_auctionId",
					"type": "uint256"
				}
			],
			"name": "bidOnAuction",
			"outputs": [],
			"stateMutability": "payable",
			"type": "function"
		},
		{
			"inputs": [
				{
					"internalType": "uint256",
					"name": "",
					"type": "uint256"
				},
				{
					"internalType": "address",
					"name": "",
					"type": "address"
				}
			],
			"name": "bidderIndex",
			"outputs": [
				{
					"internalType": "uint256",
					"name": "",
					"type": "uint256"
				}
			],
			"stateMutability": "view",
			"type": "function"
		},
		{
			"inputs": [
				{
					"internalType": "uint256",
					"name": "_landId",
					"type": "uint256"
				}
			],
			"name": "calculateTaxDue",
			"outputs": [
				{
					"internalType": "uint256",
					"name": "",
					"type": "uint256"
				}
			],
			"stateMutability": "view",
			"type": "function"
		},
		{
			"inputs": [
				{
					"internalType": "uint256",
					"name": "_auctionId",
					"type": "uint256"
				}
			],
			"name": "cancelAuction",
			"outputs": [],
			"stateMutability": "nonpayable",
			"type": "function"
		},
		{
			"inputs": [
				{
					"internalType": "uint256",
					"name": "_landId",
					"type": "uint256"
				}
			],
			"name": "cancelBid",
			"outputs": [],
			"stateMutability": "nonpayable",
			"type": "function"
		},
		{
			"inputs": [],
			"name": "contractOwner",
			"outputs": [
				{
					"internalType": "address",
					"name": "",
					"type": "address"
				}
			],
			"stateMutability": "view",
			"type": "function"
		},
		{
			"inputs": [
				{
					"internalType": "uint256",
					"name": "_landId",
					"type": "uint256"
				},
				{
					"internalType": "uint256",
					"name": "_startPrice",
					"type": "uint256"
				},
				{
					"internalType": "uint256",
					"name": "_duration",
					"type": "uint256"
				}
			],
			"name": "createAuction",
			"outputs": [
				{
					"internalType": "uint256",
					"name": "",
					"type": "uint256"
				}
			],
			"stateMutability": "nonpayable",
			"type": "function"
		},
		{
			"inputs": [
				{
					"internalType": "string",
					"name": "_name",
					"type": "string"
				},
				{
					"internalType": "uint256[]",
					"name": "_landIds",
					"type": "uint256[]"
				}
			],
			"name": "createNeighborhood",
			"outputs": [
				{
					"internalType": "uint256",
					"name": "",
					"type": "uint256"
				}
			],
			"stateMutability": "nonpayable",
			"type": "function"
		},
		{
			"inputs": [
				{
					"internalType": "uint256",
					"name": "_landId",
					"type": "uint256"
				}
			],
			"name": "developLand",
			"outputs": [],
			"stateMutability": "nonpayable",
			"type": "function"
		},
		{
			"inputs": [
				{
					"internalType": "uint256",
					"name": "_auctionId",
					"type": "uint256"
				}
			],
			"name": "endAuction",
			"outputs": [],
			"stateMutability": "nonpayable",
			"type": "function"
		},
		{
			"inputs": [
				{
					"internalType": "uint256",
					"name": "_landId",
					"type": "uint256"
				}
			],
			"name": "endRental",
			"outputs": [],
			"stateMutability": "nonpayable",
			"type": "function"
		},
		{
			"inputs": [],
			"name": "getActiveAuctions",
			"outputs": [
				{
					"internalType": "uint256[]",
					"name": "",
					"type": "uint256[]"
				}
			],
			"stateMutability": "view",
			"type": "function"
		},
		{
			"inputs": [
				{
					"internalType": "uint256",
					"name": "_auctionId",
					"type": "uint256"
				}
			],
			"name": "getAuctionDetails",
			"outputs": [
				{
					"internalType": "uint256",
					"name": "landId",
					"type": "uint256"
				},
				{
					"internalType": "address",
					"name": "seller",
					"type": "address"
				},
				{
					"internalType": "uint256",
					"name": "startPrice",
					"type": "uint256"
				},
				{
					"internalType": "uint256",
					"name": "currentBid",
					"type": "uint256"
				},
				{
					"internalType": "address",
					"name": "highestBidder",
					"type": "address"
				},
				{
					"internalType": "uint256",
					"name": "startTime",
					"type": "uint256"
				},
				{
					"internalType": "uint256",
					"name": "endTime",
					"type": "uint256"
				},
				{
					"internalType": "enum MetaLand.AuctionStatus",
					"name": "status",
					"type": "uint8"
				},
				{
					"internalType": "bool",
					"name": "ended",
					"type": "bool"
				}
			],
			"stateMutability": "view",
			"type": "function"
		},
		{
			"inputs": [
				{
					"internalType": "uint256",
					"name": "_landId",
					"type": "uint256"
				}
			],
			"name": "getLandBids",
			"outputs": [
				{
					"internalType": "address[]",
					"name": "bidders",
					"type": "address[]"
				},
				{
					"internalType": "uint256[]",
					"name": "amounts",
					"type": "uint256[]"
				},
				{
					"internalType": "uint256[]",
					"name": "timestamps",
					"type": "uint256[]"
				}
			],
			"stateMutability": "view",
			"type": "function"
		},
		{
			"inputs": [
				{
					"internalType": "uint256",
					"name": "_landId",
					"type": "uint256"
				}
			],
			"name": "getLandDetails",
			"outputs": [
				{
					"internalType": "uint256",
					"name": "id",
					"type": "uint256"
				},
				{
					"internalType": "address",
					"name": "owner",
					"type": "address"
				},
				{
					"internalType": "string",
					"name": "location",
					"type": "string"
				},
				{
					"internalType": "uint256",
					"name": "size",
					"type": "uint256"
				},
				{
					"internalType": "uint256",
					"name": "price",
					"type": "uint256"
				},
				{
					"internalType": "bool",
					"name": "isForSale",
					"type": "bool"
				},
				{
					"internalType": "enum MetaLand.LandCategory",
					"name": "category",
					"type": "uint8"
				},
				{
					"internalType": "enum MetaLand.RarityLevel",
					"name": "rarity",
					"type": "uint8"
				},
				{
					"internalType": "enum MetaLand.TerrainType",
					"name": "terrain",
					"type": "uint8"
				},
				{
					"internalType": "uint256",
					"name": "resourceLevel",
					"type": "uint256"
				},
				{
					"internalType": "uint256",
					"name": "developmentStage",
					"type": "uint256"
				}
			],
			"stateMutability": "view",
			"type": "function"
		},
		{
			"inputs": [
				{
					"internalType": "uint256",
					"name": "_landId",
					"type": "uint256"
				}
			],
			"name": "getLandHistory",
			"outputs": [
				{
					"internalType": "string[]",
					"name": "previousOwners",
					"type": "string[]"
				},
				{
					"internalType": "uint256",
					"name": "registrationTime",
					"type": "uint256"
				}
			],
			"stateMutability": "view",
			"type": "function"
		},
		{
			"inputs": [
				{
					"internalType": "uint256",
					"name": "_landId",
					"type": "uint256"
				}
			],
			"name": "getLandResources",
			"outputs": [
				{
					"internalType": "bool",
					"name": "hasWater",
					"type": "bool"
				},
				{
					"internalType": "bool",
					"name": "hasMinerals",
					"type": "bool"
				},
				{
					"internalType": "bool",
					"name": "hasEnergy",
					"type": "bool"
				},
				{
					"internalType": "uint256",
					"name": "resourceLevel",
					"type": "uint256"
				}
			],
			"stateMutability": "view",
			"type": "function"
		},
		{
			"inputs": [],
			"name": "getMyLands",
			"outputs": [
				{
					"internalType": "uint256[]",
					"name": "",
					"type": "uint256[]"
				}
			],
			"stateMutability": "view",
			"type": "function"
		},
		{
			"inputs": [
				{
					"internalType": "uint256",
					"name": "_neighborhoodId",
					"type": "uint256"
				}
			],
			"name": "getNeighborhoodDetails",
			"outputs": [
				{
					"internalType": "uint256",
					"name": "id",
					"type": "uint256"
				},
				{
					"internalType": "string",
					"name": "name",
					"type": "string"
				},
				{
					"internalType": "uint256[]",
					"name": "landIds",
					"type": "uint256[]"
				},
				{
					"internalType": "address",
					"name": "creator",
					"type": "address"
				},
				{
					"internalType": "uint256",
					"name": "totalLands",
					"type": "uint256"
				},
				{
					"internalType": "bool",
					"name": "isActive",
					"type": "bool"
				}
			],
			"stateMutability": "view",
			"type": "function"
		},
		{
			"inputs": [
				{
					"internalType": "uint256",
					"name": "_landId",
					"type": "uint256"
				}
			],
			"name": "getRentalInfo",
			"outputs": [
				{
					"internalType": "bool",
					"name": "isForRent",
					"type": "bool"
				},
				{
					"internalType": "uint256",
					"name": "rentPrice",
					"type": "uint256"
				},
				{
					"internalType": "address",
					"name": "tenant",
					"type": "address"
				},
				{
					"internalType": "uint256",
					"name": "rentStartTime",
					"type": "uint256"
				},
				{
					"internalType": "uint256",
					"name": "rentEndTime",
					"type": "uint256"
				}
			],
			"stateMutability": "view",
			"type": "function"
		},
		{
			"inputs": [
				{
					"internalType": "uint256",
					"name": "_landId",
					"type": "uint256"
				},
				{
					"internalType": "address",
					"name": "_user",
					"type": "address"
				}
			],
			"name": "isWhitelisted",
			"outputs": [
				{
					"internalType": "bool",
					"name": "",
					"type": "bool"
				}
			],
			"stateMutability": "view",
			"type": "function"
		},
		{
			"inputs": [
				{
					"internalType": "uint256",
					"name": "",
					"type": "uint256"
				},
				{
					"internalType": "uint256",
					"name": "",
					"type": "uint256"
				}
			],
			"name": "landBids",
			"outputs": [
				{
					"internalType": "address",
					"name": "bidder",
					"type": "address"
				},
				{
					"internalType": "uint256",
					"name": "amount",
					"type": "uint256"
				},
				{
					"internalType": "uint256",
					"name": "timestamp",
					"type": "uint256"
				},
				{
					"internalType": "bool",
					"name": "active",
					"type": "bool"
				}
			],
			"stateMutability": "view",
			"type": "function"
		},
		{
			"inputs": [
				{
					"internalType": "uint256",
					"name": "",
					"type": "uint256"
				}
			],
			"name": "landParcels",
			"outputs": [
				{
					"internalType": "uint256",
					"name": "id",
					"type": "uint256"
				},
				{
					"internalType": "address",
					"name": "owner",
					"type": "address"
				},
				{
					"internalType": "string",
					"name": "location",
					"type": "string"
				},
				{
					"internalType": "uint256",
					"name": "size",
					"type": "uint256"
				},
				{
					"internalType": "uint256",
					"name": "price",
					"type": "uint256"
				},
				{
					"internalType": "bool",
					"name": "isForSale",
					"type": "bool"
				},
				{
					"internalType": "enum MetaLand.LandCategory",
					"name": "category",
					"type": "uint8"
				},
				{
					"internalType": "enum MetaLand.RarityLevel",
					"name": "rarity",
					"type": "uint8"
				},
				{
					"internalType": "enum MetaLand.TerrainType",
					"name": "terrain",
					"type": "uint8"
				},
				{
					"internalType": "uint256",
					"name": "resourceLevel",
					"type": "uint256"
				},
				{
					"internalType": "bool",
					"name": "hasWater",
					"type": "bool"
				},
				{
					"internalType": "bool",
					"name": "hasMinerals",
					"type": "bool"
				},
				{
					"internalType": "bool",
					"name": "hasEnergy",
					"type": "bool"
				},
				{
					"internalType": "uint256",
					"name": "developmentStage",
					"type": "uint256"
				},
				{
					"internalType": "uint256",
					"name": "registrationTime",
					"type": "uint256"
				},
				{
					"internalType": "bool",
					"name": "isForRent",
					"type": "bool"
				},
				{
					"internalType": "uint256",
					"name": "rentPrice",
					"type": "uint256"
				},
				{
					"internalType": "address",
					"name": "tenant",
					"type": "address"
				},
				{
					"internalType": "uint256",
					"name": "rentStartTime",
					"type": "uint256"
				},
				{
					"internalType": "uint256",
					"name": "rentEndTime",
					"type": "uint256"
				},
				{
					"internalType": "bool",
					"name": "isPrivateSale",
					"type": "bool"
				},
				{
					"internalType": "uint256",
					"name": "lastTaxPayment",
					"type": "uint256"
				},
				{
					"internalType": "uint256",
					"name": "taxBalance",
					"type": "uint256"
				}
			],
			"stateMutability": "view",
			"type": "function"
		},
		{
			"inputs": [
				{
					"internalType": "uint256",
					"name": "",
					"type": "uint256"
				}
			],
			"name": "landToNeighborhood",
			"outputs": [
				{
					"internalType": "uint256",
					"name": "",
					"type": "uint256"
				}
			],
			"stateMutability": "view",
			"type": "function"
		},
		{
			"inputs": [
				{
					"internalType": "uint256",
					"name": "_landId",
					"type": "uint256"
				},
				{
					"internalType": "uint256",
					"name": "_rentPrice",
					"type": "uint256"
				},
				{
					"internalType": "uint256",
					"name": "_duration",
					"type": "uint256"
				}
			],
			"name": "listLandForRent",
			"outputs": [],
			"stateMutability": "nonpayable",
			"type": "function"
		},
		{
			"inputs": [
				{
					"internalType": "uint256",
					"name": "_landId",
					"type": "uint256"
				},
				{
					"internalType": "uint256",
					"name": "_price",
					"type": "uint256"
				}
			],
			"name": "listLandForSale",
			"outputs": [],
			"stateMutability": "nonpayable",
			"type": "function"
		},
		{
			"inputs": [
				{
					"internalType": "uint256[]",
					"name": "_landIds",
					"type": "uint256[]"
				},
				{
					"internalType": "string",
					"name": "_newLocation",
					"type": "string"
				}
			],
			"name": "mergeLands",
			"outputs": [
				{
					"internalType": "uint256",
					"name": "",
					"type": "uint256"
				}
			],
			"stateMutability": "nonpayable",
			"type": "function"
		},
		{
			"inputs": [
				{
					"internalType": "uint256",
					"name": "",
					"type": "uint256"
				}
			],
			"name": "neighborhoods",
			"outputs": [
				{
					"internalType": "uint256",
					"name": "id",
					"type": "uint256"
				},
				{
					"internalType": "string",
					"name": "name",
					"type": "string"
				},
				{
					"internalType": "address",
					"name": "creator",
					"type": "address"
				},
				{
					"internalType": "uint256",
					"name": "totalLands",
					"type": "uint256"
				},
				{
					"internalType": "bool",
					"name": "isActive",
					"type": "bool"
				}
			],
			"stateMutability": "view",
			"type": "function"
		},
		{
			"inputs": [
				{
					"internalType": "uint256",
					"name": "_landId",
					"type": "uint256"
				}
			],
			"name": "payLandTax",
			"outputs": [],
			"stateMutability": "payable",
			"type": "function"
		},
		{
			"inputs": [
				{
					"internalType": "uint256",
					"name": "_landId",
					"type": "uint256"
				}
			],
			"name": "placeBid",
			"outputs": [],
			"stateMutability": "payable",
			"type": "function"
		},
		{
			"inputs": [],
			"name": "platformFeePercent",
			"outputs": [
				{
					"internalType": "uint256",
					"name": "",
					"type": "uint256"
				}
			],
			"stateMutability": "view",
			"type": "function"
		},
		{
			"inputs": [],
			"name": "platformWallet",
			"outputs": [
				{
					"internalType": "address",
					"name": "",
					"type": "address"
				}
			],
			"stateMutability": "view",
			"type": "function"
		},
		{
			"inputs": [
				{
					"internalType": "uint256",
					"name": "_landId",
					"type": "uint256"
				}
			],
			"name": "purchaseLand",
			"outputs": [],
			"stateMutability": "payable",
			"type": "function"
		},
		{
			"inputs": [
				{
					"internalType": "string",
					"name": "_location",
					"type": "string"
				},
				{
					"internalType": "uint256",
					"name": "_size",
					"type": "uint256"
				},
				{
					"internalType": "enum MetaLand.LandCategory",
					"name": "_category",
					"type": "uint8"
				},
				{
					"internalType": "enum MetaLand.RarityLevel",
					"name": "_rarity",
					"type": "uint8"
				},
				{
					"internalType": "enum MetaLand.TerrainType",
					"name": "_terrain",
					"type": "uint8"
				},
				{
					"internalType": "bool",
					"name": "_hasWater",
					"type": "bool"
				},
				{
					"internalType": "bool",
					"name": "_hasMinerals",
					"type": "bool"
				},
				{
					"internalType": "bool",
					"name": "_hasEnergy",
					"type": "bool"
				}
			],
			"name": "registerLand",
			"outputs": [
				{
					"internalType": "uint256",
					"name": "",
					"type": "uint256"
				}
			],
			"stateMutability": "nonpayable",
			"type": "function"
		},
		{
			"inputs": [
				{
					"internalType": "string",
					"name": "_location",
					"type": "string"
				},
				{
					"internalType": "uint256",
					"name": "_size",
					"type": "uint256"
				}
			],
			"name": "registerLandBasic",
			"outputs": [
				{
					"internalType": "uint256",
					"name": "",
					"type": "uint256"
				}
			],
			"stateMutability": "nonpayable",
			"type": "function"
		},
		{
			"inputs": [
				{
					"internalType": "uint256",
					"name": "_landId",
					"type": "uint256"
				}
			],
			"name": "rentLand",
			"outputs": [],
			"stateMutability": "payable",
			"type": "function"
		},
		{
			"inputs": [
				{
					"internalType": "uint256",
					"name": "_landId",
					"type": "uint256"
				},
				{
					"internalType": "bool",
					"name": "_isPrivate",
					"type": "bool"
				}
			],
			"name": "setPrivateSale",
			"outputs": [],
			"stateMutability": "nonpayable",
			"type": "function"
		},
		{
			"inputs": [
				{
					"internalType": "uint256",
					"name": "_landId",
					"type": "uint256"
				},
				{
					"internalType": "uint256[]",
					"name": "_sizes",
					"type": "uint256[]"
				},
				{
					"internalType": "string[]",
					"name": "_locations",
					"type": "string[]"
				}
			],
			"name": "splitLand",
			"outputs": [
				{
					"internalType": "uint256[]",
					"name": "",
					"type": "uint256[]"
				}
			],
			"stateMutability": "nonpayable",
			"type": "function"
		},
		{
			"inputs": [],
			"name": "taxRatePerYear",
			"outputs": [
				{
					"internalType": "uint256",
					"name": "",
					"type": "uint256"
				}
			],
			"stateMutability": "view",
			"type": "function"
		},
		{
			"inputs": [],
			"name": "totalAuctions",
			"outputs": [
				{
					"internalType": "uint256",
					"name": "",
					"type": "uint256"
				}
			],
			"stateMutability": "view",
			"type": "function"
		},
		{
			"inputs": [],
			"name": "totalNeighborhoods",
			"outputs": [
				{
					"internalType": "uint256",
					"name": "",
					"type": "uint256"
				}
			],
			"stateMutability": "view",
			"type": "function"
		},
		{
			"inputs": [],
			"name": "totalParcels",
			"outputs": [
				{
					"internalType": "uint256",
					"name": "",
					"type": "uint256"
				}
			],
			"stateMutability": "view",
			"type": "function"
		},
		{
			"inputs": [
				{
					"internalType": "uint256",
					"name": "_newFeePercent",
					"type": "uint256"
				}
			],
			"name": "updatePlatformFee",
			"outputs": [],
			"stateMutability": "nonpayable",
			"type": "function"
		},
		{
			"inputs": [
				{
					"internalType": "address",
					"name": "_newWallet",
					"type": "address"
				}
			],
			"name": "updatePlatformWallet",
			"outputs": [],
			"stateMutability": "nonpayable",
			"type": "function"
		},
		{
			"inputs": [
				{
					"internalType": "uint256",
					"name": "_newTaxRate",
					"type": "uint256"
				}
			],
			"name": "updateTaxRate",
			"outputs": [],
			"stateMutability": "nonpayable",
			"type": "function"
		},
		{
			"inputs": [
				{
					"internalType": "uint256",
					"name": "_landId",
					"type": "uint256"
				},
				{
					"internalType": "address",
					"name": "_user",
					"type": "address"
				},
				{
					"internalType": "bool",
					"name": "_status",
					"type": "bool"
				}
			],
			"name": "updateWhitelist",
			"outputs": [],
			"stateMutability": "nonpayable",
			"type": "function"
		},
		{
			"inputs": [
				{
					"internalType": "address",
					"name": "",
					"type": "address"
				},
				{
					"internalType": "uint256",
					"name": "",
					"type": "uint256"
				}
			],
			"name": "userLands",
			"outputs": [
				{
					"internalType": "uint256",
					"name": "",
					"type": "uint256"
				}
			],
			"stateMutability": "view",
			"type": "function"
		}
	]
}